:100000000C947C020C9499020C9499020C94990221
:100010000C9499020C9499020C9499020C949902F4
:100020000C9499020C9499020C9488140C94C014AA
:100030000C9499020C9499020C9499020C949902D4
:100040000C9499020C9499020C9499020C949902C4
:100050000C949B020C9499020C9499020C949902B2
:100060000C9499020C9499020C9499020C949902A4
:100070000C9499020C9499020C9499020C94990294
:100080000C9499020C9499020C9499020C94990284
:100090000C9499020C9499020C9499020C94990274
:1000A0000C9499020C9499020C94990205A84CCDD9
:1000B000B2D44EB93836A9020C50B9918688083CA2
:1000C000A6AAAA2ABE000000803F07634236B79B5B
:1000D000D8A71A39685618AEBAAB558C1D3CB7CCA8
:1000E0005763BD6DEDFD753EF6177231BF00000020
:1000F000803F08000000BE922449123EABAAAA2A03
:10010000BECDCCCC4C3E00000080BEABAAAAAA3E1D
:1001100000000000BF000000803F00000000000859
:100120004178D3BB4387D1133D190E3CC3BD4282F6
:10013000AD2B3E68EC8276BED98FE1A93E4C80EFB4
:10014000FFBE01C4FF7F3F00000000006E616E0033
:10015000696E660000407A10F35A00A0724E1809CA
:100160000010A5D4E80000E87648170000E40B541E
:10017000020000CA9A3B000000E1F50500008096ED
:100180009800000040420F000000A086010000001F
:10019000102700000000E8030000000064000000D9
:1001A00000000A00000000000100000000002C76A2
:1001B000D888DC674F0823DFC1DFAE59E1B1B796BD
:1001C000E5E3E453C63AE651997696E8E6C284261A
:1001D000EB898C9B62ED407C6FFCEFBC9C9F40F2F6
:1001E000BAA56FA5F490055A2AF75C936B6CF96772
:1001F0006DC11BFCE0E40D47FEF520E6B500D0ED37
:10020000902E0300943577050080841E080000209E
:100210004E0A000000C80C333333330F986E12833C
:100220001141EF8D2114893BE65516CFFEE6DB1810
:10023000D1844B381BF77C1D901DA4BBE4242032D5
:1002400084725E228100C9F124ECA1E53D27000102
:100250000000FB021200020000B80243000300008D
:10026000B40204010309049E021402030904860275
:10027000160303090478020C0C033100320033002A
:1002800034003500000016035500530042002000E2
:10029000530065007200690061006C0000001403E7
:1002A00059006F007500720020004E0061006D0063
:1002B000650000000403090409024300020100C0B4
:1002C00032090400000102020100052400100105AA
:1002D0002401010104240206052406000107058209
:1002E0000310004009040100020A00000007050392
:1002F00002400000070584024000001201000202D3
:10030000000010C0167A040001010203010001C1BF
:1003100012018036018136000000000000005F00FD
:10032000000007000700147F147F14242A7F2A127C
:10033000231308646236495522500005030000006B
:100340001C2241000041221C0014083E0814080829
:100350003E080800503000000808080808006060E7
:10036000000020100804023E5149453E00427F40F3
:100370000042615149462141454B311814127F100A
:1003800027454545393C4A4949300171090503363D
:1003900049494936064949291E00363600000056AB
:1003A00036000008142241001414141414004122D1
:1003B00014080201510906324979413E7E1111119A
:1003C0007E7F494949363E414141227F4141221CBD
:1003D0007F494949417F090909013E4149497A7FDD
:1003E0000808087F00417F41002040413F017F080D
:1003F0001422417F404040407F020C027F7F04086E
:10040000107F3E4141413E7F090909063E4151218D
:100410005E7F09192946464949493101017F010199
:100420003F4040403F1F2040201F3F4038403F6337
:100430001408146307087008076151494543007F99
:1004400041410002040810200041417F00040201E4
:100450000204404040404000010204002054545433
:10046000787F484444383844444420384444487FE2
:100470003854565418087E0901020C5252523E7FDD
:100480000804047800447D40002040443D007F1073
:1004900028440000417F40007C041804787C080454
:1004A000047838444444387C14141408081414188C
:1004B0007C7C080404084854545420043F444020E1
:1004C0003C4040207C1C2040201C3C4030403C44B0
:1004D000281028440C5050503C4464544C440008AC
:1004E00036410000007F0000004136080010080877
:1004F000100878464146780011241FBECFEFDAE09D
:10050000DEBFCDBF14E0A0E0B1E0ECE7F6E402C04E
:1005100005900D92AE37B107D9F72AE0AEE7B4E007
:1005200001C01D92A136B207E1F70E948E110C9412
:10053000FB220C9400001F921FB61F9211248F9370
:100540009F93AF93BF938091820490918304A09175
:100550008404B09185040196A11DB11D809382048D
:1005600090938304A0938404B093850480918804BD
:10057000909189048130910539F485B194E08927FF
:1005800085B985B198E005C08230910561F485B1E7
:1005900094E0892785B9BF91AF919F918F911F906A
:1005A0001FBE1F9018958330910559F32A982B98F8
:1005B000F2CFCF92DF92EF92FF92CF93DF936091D1
:1005C0008204709183048091840490918504C09189
:1005D0008400D09185000E94EC1C20E030E040E8CF
:1005E00057E40E94E21D6B017C01BE0190E080E0B7
:1005F0000E94EC1C9B01AC01C701B6010E94CE1BFE
:1006000020E030E040E852E40E94E21D20E034E2C5
:1006100044EF5AE40E94441CDF91CF91FF90EF9089
:10062000DF90CF90089583E20E94371821E04AE3DB
:1006300051E06AE070E08AE090E00E94F4170E94C6
:100640002C160E94D5110E94EE118823E1F30E941E
:100650003F1621E049E451E06AE070E08AE090E072
:100660000E94F4170C942C16CF9380E880936100BD
:10067000C1E0C09361000E9467181092800083E07F
:1006800080938100C0936F0078940E941303519867
:10069000279821985098209886988598229A239A8E
:1006A0003F9A479A0E9411161092540810925508CA
:1006B0001092560810925708109258081092590834
:1006C00010925A0810925B088EE08093640886E0CE
:1006D0008093650886E191E09093680880936708AD
:1006E000C093660810925C0810925D0810925E0834
:1006F00010925F08109260081092610810926208D0
:1007000010926308E3E1F8E087E02DE031E091E04A
:10071000108211821282138214821582168217822D
:10072000808B818B348B238B928B10861186128663
:1007300013861486158616861786759648E0E23568
:10074000F40731F7E1E9F7E085E028E031E091E0F6
:1007500010821182128213821482158216821782ED
:10076000808B818B348B238B928B10861186128623
:1007700013861486158616861786759648E0EF3020
:10078000F40731F7E4E4F6E083E025E031E091E0BE
:1007900010821182128213821482158216821782AD
:1007A000808B818B348B238B928B108611861286E3
:1007B00013861486158616861786759647E0E034EC
:1007C000F40731F7ECE9F4E082E024E131E091E074
:1007D000108211821282138214821582168217826D
:1007E000808B818B348B238B928B108611861286A3
:1007F00013861486158616861786759646E0E034AD
:10080000F40731F7CF910895FC0101900020E9F73A
:100810003197BF01681B790B0C94A212CF93DF9321
:10082000CDB7DEB79E012B5F3F4FF901419151914A
:100830009F0161E570E080E497E00E940E2280E471
:1008400097E00E940404DF91CF910895CF93DF9346
:10085000CDB7DEB79E01215F3F4F4D855E856B852D
:100860007C8589859A850E940E2221E049855A85DA
:100870006F8178858D819E810E94F417DF91CF91E1
:100880000895AF92BF92CF92EF920F931F93FC0106
:100890004083518362837383048315832683378364
:1008A000E08AC18AB48AA38A81E0828B108611868D
:1008B0001286138614861586168617861F910F9149
:1008C000EF90CF90BF90AF9008956F927F928F92EC
:1008D0009F92AF92BF92CF92DF92EF92FF920F93CF
:1008E0001F93CF93DF93EC018A89882309F46DC0AD
:1008F000688179818A819B810E949F1E0E94B61C1B
:100900005B01643571050CF060C06888712C660D60
:10091000771D161617060CF058C06C817D818E81EC
:100920009F810E949F1E0E94B61C603371050CF0CF
:100930004CC0298930E0260F371F121613060CF021
:1009400044C027E0620E711C33E0759467943A95B9
:10095000E1F78B01912C812CD12CC12C89898C152C
:100960001D0499F194F1F12CE12C22C0C70123E080
:10097000959587952A95E1F7EB89FC89E80DF91D96
:10098000E80FF91F408150E0C7018095909587706E
:10099000992702C0559547958A95E2F74170B801AD
:1009A000C5018E0D9F1D0E9447168FEFE81AF80AA9
:1009B00088898E151F0409F0CCF62FEFC21AD20ACF
:1009C000860C971C0F5F1F4FC9CFDF91CF911F91EE
:1009D0000F91FF90EF90DF90CF90BF90AF909F90DE
:1009E0008F907F906F900895FC0130E020E090E0C0
:1009F00080E0261737070CF00895428941110196CF
:100A00002F5F3F4F7596F5CFCF93DF9363E070E094
:100A100083E198E00E94F404EC0166E070E081E973
:100A200097E00E94F404C80FD91F6CE070E084E4E2
:100A300096E00E94F4048C0F9D1FDF91CF910895E2
:100A4000CF93DF93EC018A898823B1F0698970E044
:100A500090E080E00E94EE1C2C813D814E815F8100
:100A60000E94CE1B20E030E04CE152E40E94DD1DEC
:100A70008095881F8827881FDF91CF9108952F9236
:100A80003F924F925F926F927F928F929F92AF921E
:100A9000BF92CF92DF92EF92FF920F931F93CF936B
:100AA000DF9300D000D0CDB7DEB78C017C836B83A1
:100AB000FC018289882309F457C0FB0182898823BD
:100AC00009F452C0F80164817581868197810E9482
:100AD000B61C6B011B01F80140805180628073805D
:100AE000F089F983EB81FC8164817581868197812E
:100AF0000E94B61CEB81FC8180809180A280B38033
:100B0000F089FA83EB81FC814189F801218930E089
:100B1000C20ED31EC616D70634F1242F30E0C90109
:100B2000860F971F82159305F4F0C301B2010E944E
:100B3000B61C6B017C836B83C501B4010E94B61C9B
:100B40009B01FA814F2F50E0CA01860F971F8C1529
:100B50009D054CF05981652F70E06C0D7D1D81E085
:100B6000621773070CF480E00F900F900F900F90B6
:100B7000DF91CF911F910F91FF90EF90DF90CF9079
:100B8000BF90AF909F908F907F906F905F904F90AD
:100B90003F902F900895CF92DF92EF92FF92CF93E4
:100BA000DF93EC01C880D980EA80FB8020E030E050
:100BB000A901C701B6010E943A1C87FD3CC06889A3
:100BC00070E090E080E00E94EE1CA70196010E9478
:100BD000CE1B20E030E048EA52E40E94DD1D1816EA
:100BE00054F1CC80DD80EE80FF8020E030E0A90170
:100BF000C701B6010E943A1C87FD1DC0698970E0DB
:100C000090E080E00E94EE1CA70196010E94CE1B9E
:100C1000C1E020E030E040E452E40E94DD1D1816FF
:100C20000CF0C0E081E08C27DF91CF91FF90EF9036
:100C3000DF90CF90089580E0F7CF0E94F1117E9968
:100C400003C08237910559F40E94D90260930F08BE
:100C500070931008809311089093120808950E94D1
:100C60003F1621E047E551E062E170E088E090E066
:100C70000E94F4170E942C16E0CFCF93DF93D0E0B0
:100C8000C0E0C0FD06C041E067E270E0CE010E9416
:100C900047162196C435D105A1F7DF91CF9108956C
:100CA0004F925F926F927F928F929F92AF92BF927C
:100CB000DF92EF92FF920F931F93CF93DF93EC019C
:100CC0007B018A01D22E88819981AA81BB81FB0197
:100CD00080839183A283B3838C819D81AE81BF8108
:100CE00084839583A683B7830E94E0206EE170E041
:100CF0000E944320BC01990F880B990B0E94EE1CA7
:100D00002BED3FE049E450E40E94E21D20E030E09A
:100D100044E353E40E94441C4B015C010E943F1CCD
:100D20002B013C01C501B4010E94C31E4B015C01B3
:100D3000A30192016C857D858E859F850E94E21DB1
:100D4000F7016487758786879787DD2009F441C09E
:100D500080869186A286B38688819981AA81BB818B
:100D6000F80180839183A283B3838C819D81AE81BE
:100D7000BF8184839583A683B783A30192016C8589
:100D80007D858E859F850E94E21DF80164877587A9
:100D900086879787DD2059F1B7FAB094B7F8B094F9
:100DA00080869186A286B38681E0F701828BF80166
:100DB000828BDF91CF911F910F91FF90EF90DF9089
:100DC000BF90AF909F908F907F906F905F904F906B
:100DD0000895A5019401688579858A859B850E947F
:100DE000E21DF7016087718782879387B5CF688599
:100DF00079858A859B859058A50194010E94E21D02
:100E0000F8016087718782879387CECF7F928F9218
:100E10009F92AF92BF92CF92DF92EF92FF920F9389
:100E20001F93CF93DF9380905C0890905D08A09013
:100E30005E08B0905F0820915408309155084091A9
:100E4000560850915708C501B4010E94CE1B6B0192
:100E50007C01C0925408D0925508E0925608F09256
:100E6000570884E598E00E94CB05811116C0A501C2
:100E70009401C701B6010E94CD1B60935408709382
:100E80005508809356089093570810925C0810926A
:100E90005D0810925E0810925F080CE914E0E8010A
:100EA000FA88FF20E1F02C853D854E855F856C81B9
:100EB0007D818E819F810E94CE1B6C837D838E837A
:100EC0009F83288539854A855B85688179818A81F8
:100ED0009B810E94CE1B688379838A839B83CE018A
:100EE0000E94CB05811102C0F1101A8A659686E036
:100EF000C034D807A9F6C0900101D0900201E0905B
:100F00000301F0900401C3E1D8E04DEC842E4CECD9
:100F1000942EA92C4DE3B42E8C869D86AE86BF867A
:100F20007A887720A1F02DEC3CEC4CEC5DE3C70116
:100F3000B6010E94E21D9B01AC016C817D818E8116
:100F40009F810E94CE1B6C837D838E839F83CE0105
:100F50000E942005882361F0772051F01A8A809141
:100F60005208909153080197909353088093520828
:100F70006596E8E0C235DE0779F63CE9E32E34E019
:100F8000F32E21E9C22E27E0D22EC3E1D8E0BE0124
:100F9000C7010E943F058823A1F0F701128A1A8A2F
:100FA00080918B0490918C04019690938C04809393
:100FB0008B0421E0A601415C5F4FB601CE010E9487
:100FC00050066596F5E1CF0ED11C88E0C235D807F2
:100FD000F1F6E5E1EE0EF11CF0E4EF16F6E0FF06A7
:100FE00081F6C0900101D0900201E0900301F090E1
:100FF0000401C1E9D7E0BA88BB2041F12C853D85C9
:101000004E855F85C701B6010E94E21D9B01AC01C0
:101010006C817D818E819F810E94CE1B6C837D833C
:101020008E839F83288539854A855B85C701B601F4
:101030000E94E21D9B01AC01688179818A819B81BC
:101040000E94CE1B688379838A839B83CE010E9492
:101050002005882361F0BB2051F01A8A8091520844
:101060009091530801979093530880935208CE01B2
:101070000E94CB05811119C0288539854A855B8579
:101080005058288739874A875B87C701B6010E9475
:10109000E21D9B01AC01688179818A819B810E945C
:1010A000CE1B688379838A839B83659688E0CF30E3
:1010B000D80709F0A0CF9CE9E92E94E0F92E84E44A
:1010C000C82E86E0D82EC1E9D7E0BE01C7010E9434
:1010D0003F058823A1F0F701128A1A8A80918B04B8
:1010E00090918C04029690938C0480938B0420E062
:1010F000A60142585F4FB601CE010E945006659688
:10110000F5E1CF0ED11C88E0CF30D807F1F6E5E14C
:10111000EE0EF11CF0E4EF16F6E0FF0681F6C0904B
:101120000101D0900201E0900301F0900401C4E4B9
:10113000D6E0BA88BB2041F12C853D854E855F8580
:10114000C701B6010E94E21D9B01AC016C817D814B
:101150008E819F810E94CE1B6C837D838E839F83B3
:10116000288539854A855B85C701B6010E94E21D45
:101170009B01AC01688179818A819B810E94CE1B91
:10118000688379838A839B83CE010E94200588230C
:1011900061F0BB2051F01A8A809152089091530857
:1011A00001979093530880935208CE010E94CB057B
:1011B000811119C0288539854A855B855058288753
:1011C00039874A875B87C701B6010E94E21D9B01F0
:1011D000AC01688179818A819B810E94CE1B6883E2
:1011E00079838A839B83659687E0C034D80709F0AA
:1011F000A0CFC4E4D6E0BE01C8010E943F05882309
:1012000061F0F801128A1A8A80918B0490918C0403
:10121000049690938C0480938B046596F7E0C03419
:10122000DF0749F70B5E1F4F86E00034180709F708
:10123000DF91CF911F910F91FF90EF90DF90CF90B2
:10124000BF90AF909F908F907F9008954F925F9244
:101250006F927F928F929F92AF92BF92CF92DF92C6
:10126000EF92FF920F931F93CF93DF93CDB7DEB72B
:1012700028970FB6F894DEBF0FBECDBF84E598E087
:101280000E94650460916408669570E090E080E0DB
:101290000E94EE1C20915408309155084091560848
:1012A000509157080E94CE1B20E030E040E85FE3F9
:1012B0000E94CD1B6B017C0120E030E040E450E453
:1012C000609158087091590880915A0890915B0874
:1012D0000E94CE1B2B013C012BED3FE049E450E482
:1012E000609198047091990480919A0490919B0464
:1012F0000E94E21D20E030E044E353E40E94441CDD
:101300004B015C010E943F1C69837A838B839C8321
:10131000C501B4010E94C31E20E030E040E850E463
:101320000E94E21DA70196010E94CE1B4B015C01A9
:1013300020E030E040E850E469817A818B819C8133
:101340000E94E21D9B01AC01C301B2010E94CD1BB2
:101350000E94B61C69837A838B839C83C301B2018C
:101360000E94B61C2B01C501B4010E94B61C6D83FE
:101370007E838F839887C701B6010E94B61CCB017C
:1013800001E029813A814D815E81B2010E946D1692
:1013900020E030E040E85FE3C501B4010E94CE1BCD
:1013A0000E94B61C4B0120E030E040E85FE3C7013B
:1013B000B6010E94CE1B0E94B61CCB0129813A8146
:1013C000A401B2010E946D1683E198E00E946504B9
:1013D00088E298E00E9465048DE398E00E9465042D
:1013E00081E997E00E94650486EA97E00E9465041F
:1013F0008BEB97E00E94650480ED97E00E94650406
:1014000085EE97E00E9465048AEF97E00E946504EC
:1014100084E496E09A83898300E417E089819A81C5
:101420000E94650489819A8145969A838983081769
:101430001907A1F78CE994E09A83898389819A81BD
:101440000E94650489819A8145969A838983805494
:101450009640A1F728960FB6F894DEBF0FBECDBF19
:10146000DF91CF911F910F91FF90EF90DF90CF9080
:10147000BF90AF909F908F907F906F905F904F90B4
:101480000C943D061F93CF93DF930E943F1660910B
:1014900094047091950480919604909197040E9411
:1014A000B61CCB016CE370E00E9443209F938F93A6
:1014B0007F936F9382E691E09F938F931F9211E544
:1014C0001F93C0E4D7E0DF93CF931F921F921F9228
:1014D0001F920E942604809153088F938091520896
:1014E0008F9382E791E09F938F931F921F93DF93D7
:1014F000CF931F928AE08F931F921F920E9426041F
:1015000080918C048F9380918B048F938CE791E072
:101510009F938F931F921F93DF93CF931F9284E12A
:101520008F931F921F920E9426048DB79EB78696B6
:101530000FB6F8949EBF0FBE8DBFDF91CF911F9164
:101540000C942C163F924F925F926F927F928F92E3
:101550009F92AF92BF92CF92DF92EF92FF920F9342
:101560001F93CF93DF9303E118E0D0E0C0E0812C1C
:10157000912C90E1A92E91ECB92E332433942CE4D4
:10158000422E512CF80184829582A682B782328A3B
:101590000E94E020B2010E944320BC01990F880BF9
:1015A000990B0E94EE1CF801608371838283938300
:1015B0007E012097F1F521960B5E1F4FC330D105B8
:1015C00009F7DF91CF911F910F91FF90EF90DF907E
:1015D000CF90BF90AF909F908F907F906F905F90D3
:1015E0004F903F900895B601C8010E943F05F1E079
:1015F000EF1AF108882389F00E94E020B2010E94CE
:101600004320BC01990F880B990B0E94EE1CF80136
:1016100060837183828393837E01FFEF6F1A7F0A59
:1016200085E1C80ED11C6C167D06E9F61E141F0458
:1016300014F683E1C82E88E0D82E712C612CD3CF0C
:101640008F929F92AF92BF92EF92FF920F931F9350
:10165000CF93DF9303E118E0D0E0C0E0F12CE12C60
:10166000F80180809180A280B380608970E090E072
:1016700080E00E94EE1CA50194010E94CE1B20E098
:1016800030E048E252E40E943A1C87FF1CC0FFEFA2
:10169000EF1AFF0A0B5E1F4F88E00235180701F7AB
:1016A000E1E0EE16F104D9F4C130D105F1F4CE0138
:1016B000DF91CF911F910F91FF90EF90BF90AF906E
:1016C0009F908F90089520E030E048E252E4C501F9
:1016D000B4010E94DD1D1816ECF62196DBCFC2E0A6
:1016E000D0E0F2E0EF16F10414F7C3E0D0E0DFCF72
:1016F00086E891E09F938F930E940E0483E991E026
:101700009F938F930E940E0481EB91E09F938F93A0
:101710000E940E0480ED91E09F938F930E940E042F
:101720008CEE91E09F938F930E940E048AE092E0EA
:101730009F938F930E940E0480E292E09F938F9379
:101740000E940E0480E392E09F938F930E940E0408
:101750008FE392E09F938F930E940E048DE592E0B9
:101760009F938F930E940E048BE792E09F938F9339
:101770000E940E048EE892E09F938F930E940E04C5
:1017800082EA92E09F938F930E940E048BEB92E08B
:101790009F938F930E940E0488ED92E09F938F9306
:1017A0000E940E0484EF92E09F938F930E940E0498
:1017B0008DB79EB780960FB6F8949EBF0FBE8DBFB3
:1017C0008FE093E09F938F930E940E040F900F90F1
:1017D00008958D978D30910540F4835D9E4FFC01F7
:1017E0008081082E000C990B08958CE99FEF0895D5
:1017F0008F929F92AF92BF92DF92EF92FF920F93E0
:101800001F93CF93DF930E94F11101E010E0F12CC0
:10181000E12CD12C97FD2FC00E94E90BEC01CF3FAA
:101820008FEFD8075CF1CF3FDC0709F16D2D70E039
:1018300090E080E00E94EC1C9B01AC0160E070E055
:1018400080E291E40E944F1E4B015C01B701FF0C46
:10185000880B990B0E94EE1CA50194010E94E21DC9
:101860000E94B61C7E01E60EF71ED394E8010E948A
:10187000F1118E01CFCF0E94F111CCCFE09EC001BB
:10188000E19E900DF09E900D1124DF91CF911F915C
:101890000F91FF90EF90DF90BF90AF909F908F904F
:1018A0000895EF92FF920F931F93CF93DF938C01D4
:1018B000FC018089C4E5D0E09E01281B3109C901E3
:1018C0009F932F9380E294E09F938F930E940E0446
:1018D0000E94F80B7C010F900F900F900F9097FDD6
:1018E00007C0F8018089C81BD109CE15DF0514F4A3
:1018F000F12CE12CFF92EF9288E693E09F938F9377
:101900000E940E04F801218980E390E0821B910976
:101910009F938F938DE293E09F938F930E940E0489
:101920000E94F80BEC012DB73EB7285F3F4F0FB672
:10193000F8943EBF0FBE2DBF97FD09C0F801218965
:1019400084E590E0821B91098C179D0714F4D0E088
:10195000C0E0DF93CF9388E693E09F938F930E943C
:101960000E04B701FF0C880B990B0E94EE1CF801C6
:101970006083718382839383BE01DD0F880B990B93
:101980000E94EE1CF801648375838683978381E04F
:10199000828B0F900F900F900F90DF91CF911F913E
:1019A0000F91FF90EF9008951092250810923A0839
:1019B00010924F081092A3071092B8071092CD070B
:1019C0001092E2071092F70710920C08E4E4F6E098
:1019D000128A759687E0E034F807D1F7089580E021
:1019E00090E0ACE0B2E48093540890935508A09343
:1019F0005608B093570880E090E0A8E2B2E48093E4
:101A0000580890935908A0935A08B0935B080E9415
:101A1000E02062E070E00E944320892B31F580E0F5
:101A200090E0A0E8BFEB80935C0890935D08A093E2
:101A30005E08B0935F0881E08093000180938D047D
:101A400085E090E0909353088093520810928C04A4
:101A500010928B040E94D40CECE9F4E0128A759683
:101A600086E0E034F807D1F7089580E090E0A0E840
:101A7000BFE3D9CF6091940470919504809196044E
:101A8000909197040E94B61CCB016CE370E00E9419
:101A900043209F938F937F936F9381E493E09F9371
:101AA0008F930E940E04809153088F938091520867
:101AB0008F9385E593E09F938F930E940E0480910E
:101AC0008C048F9380918B048F9381E693E09F9396
:101AD0008F930E940E0463E070E083E198E00E941F
:101AE000F4049F938F938DE693E09F938F930E94CE
:101AF0000E0466E070E081E997E00E94F4049F9391
:101B00008F938DE793E09F938F930E940E046CE078
:101B100070E084E496E00E94F4049F938F938CE835
:101B200093E09F938F930E940E0464E170E08CE930
:101B300094E00E94F4049F938F938CE993E09F9329
:101B40008F930E940E0480919B048F9380919A043E
:101B50008F93809199048F93809198048F938AEA50
:101B600093E09F938F930E940E048DB79EB7849647
:101B70000FB6F8949EBF0FBE8DBF809104018F9366
:101B8000809103018F93809102018F9380910101D5
:101B90008F9386EB93E09F938F930E940E040F9098
:101BA0000F900F900F900F900F9008953F924F92CB
:101BB0005F926F927F928F929F92AF92BF92CF92DD
:101BC000DF92EF92FF920F931F93CF93DF9300D09A
:101BD00000D000D0CDB7DEB78091000181112AC0BE
:101BE0000E94D90220910F083091100840911108ED
:101BF000509112080E94CD1B209140063091410661
:101C000040914206509143060E94CD1B9B01AC01BE
:101C1000609194047091950480919604909197043A
:101C20000E94CE1B60939404709395048093960455
:101C3000909397040E94D90220910F0830911008C8
:101C400040911108509112080E94CD1B60934006EC
:101C50007093410680934206909343068091520808
:101C600090915308181619063CF0109253081092E0
:101C7000520881E080938E040E940405892B61F450
:101C80000E943F160E94A20A0E94200B9093890492
:101C9000809388041092860420E030E0A9016091CE
:101CA0001708709118088091190890911A080E94DD
:101CB000DD1D181624F410928904109288040E94E5
:101CC000F1118136910511F0199B27C0C0905C0875
:101CD000D0905D08E0905E08F0905F0820E030E072
:101CE00040E85FEBC701B6010E94DD1D181684F4C1
:101CF00020E030E040E85FE3C701B6010E94CD1B61
:101D000060935C0870935D0880935E0890935F0811
:101D100080918704811182C1D1C08436910511F070
:101D2000489B1BC0C0905C08D0905D08E0905E08A6
:101D3000F0905F0820E030E040E85FE3C701B601C3
:101D40000E943A1C87FFE4CF20E030E040E85FE3E8
:101D5000C701B6010E94CE1BD3CF8737910511F082
:101D6000499BD8C090910001ECE9F4E010E000E05C
:101D70008289892B09F0C6C02091540830915508FA
:101D8000409156085091570829833A834B835C83CE
:101D9000309064082BED3FE049E450E460919804F2
:101DA0007091990480919A0490919B040E94E21D85
:101DB00020E030E044E353E40E94441C4B015C010A
:101DC0000E943F1C6B017C01C501B4010E94C31E2F
:101DD0004B015C0120E030E040E450E460915808A1
:101DE0007091590880915A0890915B080E94CE1B0F
:101DF0002B013C0120E030E040E850E4C701B6018F
:101E00000E94E21D9B01AC01C301B2010E94CD1BE7
:101E10000E949F1E25E1209FA001219F500D1124AB
:101E200044565B4F5E834D83DA0114966D937D9328
:101E30008D939C9317973694632D70E090E080E02B
:101E40000E94EE1C29813A814B815C810E94CE1B4D
:101E50002B013C0120E030E040E850E4C501B40132
:101E60000E94E21D9B01AC01C301B2010E94CE1B86
:101E70000E949F1EED81FE81608371838283938324
:101E800081E0828BF7FAF094F7F8F094C486D58657
:101E9000E686F786A501940160915C0870915D0863
:101EA00080915E0890915F080E94CE1BED81FE81BB
:101EB00060877187828793871092870480E00E94F1
:101EC00015160196BC0190E080E00E94EC1C20E019
:101ED00030E040EF52E40E94E21D20E030E040E8B4
:101EE0005AE30E94E21D20E030E040E752E40E9405
:101EF000CD1B609398047093990480939A049093F7
:101F00009B048CC00F5F1F4F75960431110509F0BB
:101F10002FCFD2CF8337910511F01F9B0BC00E94AA
:101F20003A0D80910001882309F4F2CE81E080937C
:101F30008A04EECE8237910511F07E9B03C00E9489
:101F4000EF0CE6CE8037910511F0189B20C08091F0
:101F50000001811104C081E080930001D9CE8091FD
:101F60008A04811110928A0480918D04882361F083
:101F700086EC93E09F938F930E940E040E943A0D8B
:101F800010928D040F900F9010920001C1CE8137F6
:101F9000910511F07D9B04C081E080938E04B8CE42
:101FA0008F36910509F07DC084ED93E09F938F9368
:101FB0000E940E040E94F80B9A838983BC01990F3A
:101FC000880B990B0E94EE1C9B01462F532F682F04
:101FD000792F409398045093990460939A047093D6
:101FE0009B0449815A81445C5F4F0F900F904937A1
:101FF000510508F04DC09F938F933F932F938FEA25
:1020000093E09F938F930E940E0481E08093870456
:102010000F900F900F900F900F900F90809186046B
:10202000811113C081E00E94151664E670E00E94E1
:102030002F2090E080E00E94EC1C609301017093DF
:102040000201809303019093040180910001882391
:1020500009F404C180918A04882309F405C12696F5
:102060000FB6F894DEBF0FBECDBFDF91CF911F91A9
:102070000F91FF90EF90DF90CF90BF90AF909F9027
:102080008F907F906F905F904F903F900C94420A9A
:102090008AEE93E09F938F930E940E040F900F900F
:1020A00037CE8D369105B9F584EF93E09F938F93EA
:1020B0000E940E040E94F80B9A838983BC01990F39
:1020C000880B990B0E94EE1C9B01462F532F682F03
:1020D000792F4093010150930201609303017093A3
:1020E00004010F900F90A981BA811B9788F69F93E6
:1020F0008F933F932F938FEA93E09F938F930E9448
:102100000E0481E0809386040F900F900F900F9043
:102110000F900F90FDCD8C369105A9F486E094E0E8
:102120009F938F930E940E040E94F80B8093520895
:10213000909353089F938F9388E693E09F938F9398
:102140000E940E04E1CF8736910569F48EE094E099
:102150009F938F930E940E040E94F80B80938B0430
:1021600090938C04E7CF8F33910519F40E94780B7C
:10217000CFCD8836910509F044C08091640804E50C
:1021800010E0F801E81BF109CF019F93EF9386E17E
:1021900094E09F938F930E940E040E94F80B9A8301
:1021A00089830F900F900F900F9097FD09C0809139
:1021B0006408081B110929813A810217130714F4D6
:1021C0001A8219823A813F9349814F9388E693E0BE
:1021D0009F938F930E940E04A981BA81BD01BB0F0A
:1021E000880B990B0E94EE1C60935408709355085D
:1021F00080935608909357080F900F900F900F9070
:1022000087CD8A36910569F40E94D40C84E394E06A
:102210009F938F930E940E0483E198E00E94510CDB
:102220003DCF8B36910559F40E94D40C8EE394E097
:102230009F938F930E940E0481E997E0EFCF893638
:10224000910509F065CD0E94D40C87E494E09F933A
:102250008F930E940E0484E496E0E0CF0E9406076C
:10226000809100018111F6CE26960FB6F894DEBF5C
:102270000FBECDBFDF91CF911F910F91FF90EF90D7
:10228000DF90CF90BF90AF909F908F907F906F9096
:102290005F904F903F900C9426091F93CF93DF934C
:1022A00081E594E09F938F930E940E040E943A0D63
:1022B0000E943F1621E04EE554E06CE170E088E0BA
:1022C00090E00E94F4170E942C160F900F90C8E621
:1022D000D4E011E080918F04811104C080918E04BC
:1022E000811104C0DF91CF911F9108950E94F111D7
:1022F0008237910511F07E9B03C010928E04EACFC5
:102300008137910511F07D9BE5CFDF93CF930E943C
:102310000E0410938F040F900F90DCCF0E943403B3
:1023200080918F048823A1F00E943F166DE080E029
:102330000E94191821E044E754E06CE170E088E065
:1023400090E00E94F4170E942C1690E080E008951F
:102350000E941D0660910F0870911008809111086D
:10236000909112080E94BD1CCB010E94E5200E94A2
:10237000EF0C80918E04882319F00E944D11D0CF6C
:102380000E943F160E94D60D0E942C162FE788E36C
:1023900091E0215080409040E1F700C00000E9CF7B
:1023A0008091E80080FFFCCF089581E08093D70002
:1023B00080EA8093D80082E189BD09B400FEFDCF98
:1023C00080E98093D8001092E0001092930410925C
:1023D00090048CE08093E2007894089580919304B7
:1023E00008959FB7F89480919304811104C09FBF12
:1023F0008FEF9FEF089583E08093E9002BE68091B3
:10240000E80085FD05C082FFF2CF2093E800F7CFFA
:102410008091F1002091E80025FD03C02BE6209378
:10242000E8009FBF90E008952FB7F894809193043F
:10243000811103C080E02FBF089583E08093E900FD
:102440008091F2008111F7CF9091E80092FFF2CFD6
:10245000892F807295FDEECF9BE69093E800EBCF3D
:1024600080919304882359F08FB7F89493E0909368
:10247000E9002BE69091E80095FD02C08FBF08951A
:102480002093E800F7CF90919304911102C08FEF51
:1024900008959FB7F89424E02093E90020919104D7
:1024A000222341F02091E80025FD02C09FBFEFCF1D
:1024B000109291042091E400275E34E04091E800FE
:1024C00045FD12C09FBF9091E400921304C081E0CB
:1024D00080939104DCCF909193049923C1F29FB72C
:1024E000F8943093E900EACF8093F1008091E800FE
:1024F00085FD03C08AE38093E80085E08093920421
:102500009FBF80E0089590919304992351F09FB765
:10251000F89424E02093E9002091E80025FD03C011
:102520009FBF8FEF08958093F1008091E80085FDB3
:1025300003C08AE38093E80085E0809392049FBF04
:1025400080E0089520919304211102C08FEF089537
:102550002FB7F89434E03093E9003091910433239D
:1025600041F03091E80035FD02C02FBFEFCF10924F
:10257000910434E040E45AE3A5E06115710511F4DB
:1025800080E00895E091E400E75EF091E800F5FD59
:1025900012C02FBF2091E4002E1304C081E080936D
:1025A0009104D4CF20919304222381F22FB7F89481
:1025B0003093E900EACFE091F200B42FBE1BB617CA
:1025C000170611F008F0B62FEB2FF0E06E1B7F0B13
:1025D000B13408F03FC1E350FD4D0C945720FC018D
:1025E00081918093F100CF01FC0181918093F100F2
:1025F000CF01FC0181918093F100CF01FC01819119
:102600008093F100CF01FC0181918093F100CF0113
:10261000FC0181918093F100CF01FC0181918093B5
:10262000F100CF01FC0181918093F100CF01FC0109
:1026300081918093F100CF01FC0181918093F100A1
:10264000CF01FC0181918093F100CF01FC018191C8
:102650008093F100CF01FC0181918093F100CF01C3
:10266000FC0181918093F100CF01FC018191809365
:10267000F100CF01FC0181918093F100CF01FC01B9
:1026800081918093F100CF01FC0181918093F10051
:10269000CF01FC0181918093F100CF01FC01819178
:1026A0008093F100CF01FC0181918093F100CF0173
:1026B000FC0181918093F100CF01FC018191809315
:1026C000F100CF01FC0181918093F100CF01FC0169
:1026D00081918093F100CF01FC0181918093F10001
:1026E000CF01FC0181918093F100CF01FC01819128
:1026F0008093F100CF01FC0181918093F100CF0123
:10270000FC0181918093F100CF01FC0181918093C4
:10271000F100CF01FC0181918093F100CF01FC0118
:1027200081918093F100CF01FC0181918093F100B0
:10273000CF01FC0181918093F100CF01FC018191D7
:102740008093F100CF01FC0181918093F100CF01D2
:10275000FC0181918093F100CF01FC018191809374
:10276000F100CF01FC0181918093F100CF01FC01C8
:1027700081918093F100CF01FC0181918093F10060
:10278000CF01FC0181918093F100CF01FC01819187
:102790008093F100CF01FC0181918093F100CF0182
:1027A000FC0181918093F100CF01FC018191809324
:1027B000F100CF01FC0181918093F100CF01FC0178
:1027C00081918093F100CF01FC0181918093F10010
:1027D000CF01FC0181918093F100CF01FC01819137
:1027E0008093F100CF01FC0181918093F100CF0132
:1027F000FC0181918093F100CF01FC0181918093D4
:10280000F100CF01FC0181918093F100CF01FC0127
:1028100081918093F100CF01FC0181918093F100BF
:10282000CF01FC0181918093F100CF01FC018191E6
:102830008093F100CF01FC0181918093F100CF01E1
:10284000FC0181918093F100CF01FC018191809383
:10285000F100CF01FC0181918093F100CF01E09163
:10286000E800E5FF5093E800A09392042FBF85CEC7
:102870008FB7F89490919204992341F094E090934B
:10288000E9009AE39093E800109292048FBF0895B4
:102890006091220170912301809124019091250182
:1028A00008958091260108958091270108958091CF
:1028B000280108958091900408959FB7F89420917D
:1028C0009304211103C09FBF8FEF089522E020934E
:1028D000E9002091E80025FFF6CF21EA2093F100DE
:1028E00020E22093F1001092F1001092F10010927A
:1028F000F1001092F10021E02093F1001092F1001C
:102900008093F1008AE38093E8009FBF80E0089500
:102910001F921FB61F9211248F939F938091E10005
:102920001092E10083FF11C01092E90091E09093B2
:10293000EB001092EC0092E19093ED0098E0909300
:10294000F000109293041092900482FF13C08091C3
:102950009304882379F080919204882359F0815060
:1029600080939204811106C084E08093E9008AE399
:102970008093E8009F918F911F901FBE1F90189524
:102980001F920F920FB60F921124EF92FF920F93A6
:102990001F932F933F934F935F936F937F938F93E7
:1029A0009F93AF93BF93CF93DF93EF93FF931092D7
:1029B000E9008091E80083FF72C0D091F100C091DE
:1029C000F100E090F1008091F100F82E0091F1000B
:1029D0008091F100182F8091F1009091F10022EF89
:1029E0002093E800C63009F066C02EE432E0F90119
:1029F00045915491E416F50609F04AC0F901329662
:102A0000459154910417150709F042C0F901349615
:102A100045915491F9013696E4918F3F910519F053
:102A200010F08FEF90E0E81708F48E2F3EEF9091B2
:102A3000E800292F2570D9F392FD13C0982F81311A
:102A400008F090E1FA01292F21112FC0490F511DE3
:102A5000E82FE91B9E2F3093E800E11124C080315C
:102A600010F5FF91EF91DF91CF91BF91AF919F91C1
:102A70008F917F916F915F914F913F912F911F9116
:102A80000F91FF90EF900F900FBE0F901F90189531
:102A9000295F3F4F42E02837340709F0A8CF81E291
:102AA0008093EB00DECF892FC2CF64916093F10059
:102AB00021503196C9CFC53051F48EEF8093E80094
:102AC0000E94D0118E2D80688093E300CACFC93058
:102AD00069F5D111E4CFE092930410929004109222
:102AE00092048EEF8093E80021E08DE093E0209344
:102AF000E900AC014F5F5F4FFC0134913093EB0074
:102B0000332391F0FA0144914093EC003196E49123
:102B10000396E093ED002F5F253049F78EE1809317
:102B2000EA001092EA009DCFCA01F5CFC83069F4DF
:102B3000D03809F0B4CF0E94D011809193048093D3
:102B4000F1008EEF8093E8008CCFC13289F4D13A46
:102B500009F0A5CF0E94D01182E291E0FC01219101
:102B6000CF012093F100F1E089329F07B9F7E9CF57
:102B7000C032B1F4D13209F092CF8091E80082FFE7
:102B8000FCCF82E291E02091F100FC012193CF0182
:102B9000F1E089329F07B9F78BEF8093E800D1CF3E
:102BA000C23241F4D13209F07ACFE09290040E940F
:102BB000D011C7CFC11112C00E94D011D23849F430
:102BC0000093E900C091EB00C5FBCC27C0F910923F
:102BD000E900C093F1001092F100B3CF8C2F8D7FEC
:102BE000813009F05CCFD23009F059CFEF2809F0DD
:102BF00056CF0F778FEF800F843008F050CF8EEFD5
:102C00008093E8000093E900C33009F448CF89E1DC
:102C10008093EB0081E090E001C0880F0A95EAF70D
:102C20007ECF87E880937A000895982F9F719064F3
:102C300090937C00807280937B0080917A00806406
:102C400080937A0080917A0086FDFCCF20917800F5
:102C500030917900C9010895CF93DF9360E080E05F
:102C60000E947418C9E6D8E0699181E00E941918A1
:102C70008AE0C136D807C1F7DF91CF910895E9E620
:102C8000F8E011928AE0E136F807D9F70895843523
:102C90009105F8F460337105E0F49B0173E035951C
:102CA00027957A95E1F774E5729FF001739FF00D17
:102CB0001124E80FF91FE759F74F8081677021E071
:102CC00030E001C0220F6A95EAF7452B19F0282B56
:102CD0002083089520952823FBCF2F923F924F9277
:102CE0005F926F927F928F929F92AF92BF92CF929C
:102CF000DF92EF92FF920F931F93CF93DF93CDB7A5
:102D0000DEB728970FB6F894DEBF0FBECDBF988709
:102D10008F837B016A01190184179507A1F56B0167
:102D200013C031E0C31AD1080FC0C214D30494F009
:102D3000A801B6018F8198850E944716E214F3041A
:102D400084F72FEFC21AD20AE214F30474F72C149A
:102D50003D0474F728960FB6F894DEBF0FBECDBFC2
:102D6000DF91CF911F910F91FF90EF90DF90CF9067
:102D7000BF90AF909F908F907F906F905F904F909B
:102D80003F902F9008956217730701F5AF80B884C4
:102D900014C021E0A21AB10810C0AC14BD04D4F2D2
:102DA000A801B701C5010E9447168F8198858C152F
:102DB0009D057CF79FEFA91AB90A8F8198858C151C
:102DC0009D055CF7CA14DB045CF7C4CF2F813885FE
:102DD0004217530754F48F2D7101262E382E9F81F0
:102DE000888558874F83C92ED82EC6012F813885F4
:102DF000821B930B9C838B83C1018E199F099A833D
:102E00008983BC01990F880B990B0E94EE1C4B0122
:102E10005C012B813C81B901330F880B990B0E9417
:102E2000EE1C9B01AC01C501B4010E94441C2B01A6
:102E30003C0120E030E0A9010E94DD1D87FF04C0B5
:102E400077FA709477F87094812C912C54018A81D0
:102E5000881F8827881F282F30E03E832D838B8191
:102E60009C81181619060CF057C02F813885C216A0
:102E7000D3060CF46FCFA801B7018F8198850E940B
:102E80004716A3019201C501B4010E94CE1B4B015C
:102E90005C0120E030E040E05FE30E94DD1D87FD43
:102EA00008C089819A811816190674F42E143F04FB
:102EB00074F42B813C81121613063CF58F819885A2
:102EC000019698878F83CBCFE214F30494F3A80183
:102ED000B7018F8198850E94471681E090E0298193
:102EE0003A811216130614F090E080E02D813E81A5
:102EF000821B930BE80EF91E20E030E040E85FE310
:102F0000C501B4010E94CD1BC2CF2F81388521504D
:102F1000310938872F83A3CF8F8198858C159D0524
:102F20000CF0A9CF17CF4F925F926F927F928F9242
:102F30009F92AF92BF92CF92DF92EF92FF920F9348
:102F40001F93CF93DF935B0139014052550B65E02E
:102F5000649F9001659F300D1124A901495E5C4F6B
:102F60007A018C012C0155E0450E511C8824839474
:102F7000912CF701C4906114710409F4C094D0E05D
:102F8000C0E0D12CA4010C2E02C0440F551F0A949E
:102F9000E2F74C215D210C2E02C0559547950A940D
:102FA000E2F7B5016C0F7D1FC8010E9447162196FC
:102FB000C830D10539F74FEFE41AF40A0F5F1F4FFD
:102FC00004151505B1F6DF91CF911F910F91FF9078
:102FD000EF90DF90CF90BF90AF909F908F907F90B9
:102FE0006F905F904F900895CF92DF92EF92FF9293
:102FF0000F931F93CF93DF937B018A016901D82F31
:10300000C0E0F801EC0FF11D4081411109C0DF91D2
:10301000CF911F910F91FF90EF90DF90CF90089587
:103020009601B7018D2F90E00E949317DB5FCF5F71
:10303000E8CF95B19F7D40E2849F90011124922BAF
:1030400095B95F9887E090E070E08F989B01082E1B
:1030500002C0359527950A94E2F720FF06C02E9A04
:103060008F9A019790F75F9A08952E98F9CFCF9392
:10307000C82F579A249A259A269A879A2C985F9A4D
:103080002C9A61E280E00E9419186C2F606880E041
:103090000E94191864E080E00E94191863E180E042
:1030A0000E9419186CE080E00E94191860E280E02C
:1030B0000E9419186CE080E00E94191860E480E01A
:1030C0000E94191860E880E0CF910C941918CF93F2
:1030D000DF93C8EFD1E060E081E00E9419182197EA
:1030E000D1F7DF91CF910895CF93C82F606480E02E
:1030F0000E9419186C2F606880E0CF910C94191809
:10310000AFE0B0E0E6E8F8E10C945D206C011B0153
:103110004A01FC0117821682838181FF34C39E011C
:103120002F5F3F4F3901F6019381F10193FD8591A6
:1031300093FF81911F01882309F4D6C2853239F4A7
:1031400093FD859193FF81911F01853239F4B6017A
:1031500090E00E94DE2154014501E5CFF12C512C75
:1031600000E0003238F48B3209F190F48032F9F04B
:10317000833209F107FD34C020ED280F2A3020F5F5
:1031800006FF1BC0FAE0FF9E200D1124F22E05C0A1
:103190008D3279F0803371F70160F10193FD8591F3
:1031A00093FF81911F018111DCCF1AC0026004607E
:1031B000F4CF0860F2CF0061F0CF3AE0539E200DCB
:1031C0001124522E0062E9CF8E3221F406FD8CC20A
:1031D0000064E3CF8C3611F40068DFCF8836E9F263
:1031E0009BEB980F933008F05CC00061805E06FD99
:1031F00002C046E0F42E102F1F73853609F058C028
:10320000106417FF5EC08F2D9BE39F1508F48BE3BE
:1032100044244394480E27E0F40161917191819117
:1032200091915F01042DA3010E94F0204C01F981CE
:10323000FC87F0FF03C00DE2F3FF07C00BE211FDB6
:1032400004C0012F047012FD00E22C852C70E22EC8
:1032500009F457C001119AC2F3E0E12CF515A0F46E
:1032600083E0E52CE81A13FD08C0B60180E290E087
:103270000E94DE21EA94E110F8CF002329F0B60184
:10328000802F90E00E94DE213C852CE4822E21E0FC
:10329000922E33FD04C090E5892E91E0992E107195
:1032A00022C09BE9980F933008F034C10F7E9FCF66
:1032B000863611F41068A5CFFF2009F4A2CFFA9446
:1032C000A0CFE7E02F2DEF1518F427E037E0F32E1D
:1032D000412CA2CF11118052B60190E00E94DE2154
:1032E0008FEF881A980AF40184918111F3CFEE20B0
:1032F00009F432CFB60180E290E00E94DE21EA9428
:10330000F6CF17FF70C0480CFC85F4FF04C08A811B
:10331000813309F44A9414140CF087C028E0241572
:1033200010F488E0482E85E090E017FF06C0C40145
:1033300097FE02C090E080E0019601110196FF2007
:1033400031F02F2D30E02F5F3F4F820F931F581623
:10335000190619F014F0E52CE81A812F897011F480
:10336000E11068C0002329F0B601802F90E00E9490
:10337000DE2113FD02C0E11064C017FF7DC084018F
:1033800097FE02C010E000E0C401841991092C01ED
:103390006F2D70E0EE27FF27E61BF70BFF87EE8708
:1033A000801691060CF454C0401651060CF050C023
:1033B000F401E01BF10BE60DF71D818101501109AD
:1033C0002E853F85021713070CF444C0B60190E028
:1033D0000E94DE210F3F100719F7B6018EE290E040
:1033E0000E94DE21DDCF16FD9ECFEF2DF0E0E81527
:1033F000F90534F03CEF83163FEF93060CF01068AC
:103400003296E60DF71D01C0FA94FF2019F0829163
:103410008033D1F317FF87CF442443944F0CF81423
:10342000190431F02CF0F8187ECF442443947BCF5C
:10343000F12C79CFB60180E290E00E94DE21EA947F
:103440008FCFB60180E390E00E94DE21EA9493CF13
:1034500080E3B4CF8016910641F49A81963350F4FC
:10346000953319F49C8594FF05C0B60190E00E9445
:10347000DE213DCF81E3F9CF8A81813319F0EC85DC
:10348000EF7EEC87B60190E00E94DE21FF20A9F0DC
:10349000B6018EE290E00E94DE21F394F394E2E024
:1034A00001E00E0FE60DF72DF11D8081B60190E0D1
:1034B0000E94DE21E02F0F11F3CF85E690E014FF8C
:1034C00002C085E490E0B6010E94DE2197FC06C0B0
:1034D00081149104C1F4FC85F4FF15C0919481948A
:1034E00091088DE2B60190E00E94DE2180E33AE08F
:1034F0008316910454F4B60190E00E94DE21B601D7
:10350000C401C096B4CF8BE2EDCF8F5F2AE0821A60
:103510009108EDCF8336B1F0833759F1833509F047
:1035200055C0F401819091905F016F2D70E006FD10
:1035300002C06FEF7FEFC4010E94C8219D878C8776
:1035400000680DC0540182E0A80EB11CF401808116
:10355000898321E030E03D872C8743010F7703FD0D
:1035600006C02C853D855216130609F090F4E52C13
:1035700028C0F401819091905F016F2D70E006FDED
:1035800002C06FEF7FEFC4010E94D3219D878C871B
:10359000E5CFB60180E290E00E94DE215A94E1CFAF
:1035A000F40107FD859107FF81914F01B60190E07D
:1035B0000E94DE21E110EA948C859D8501979D870C
:1035C0008C87EC85FD85EF2B59F791CE843619F069
:1035D000893609F06EC0F40107FF63C061917191F3
:1035E000819191915F01102F1F7697FF08C09095F0
:1035F0008095709561957F4F8F4F9F4F10682AE09F
:1036000030E0A3010E943A22882E8618982C012FC0
:1036100016FF0AC00E7F8F1438F414FF04C012FD89
:1036200002C0012F0E7E9F2C04FF85C0FE01E80D15
:10363000F11D8081803309F077C0097EF02FF8708A
:10364000EF2E03FD87C000FF81C0F82C951410F405
:10365000F50CF91804FF84C0B60180E390E00E94E5
:10366000DE2102FF09C088E790E001FF02C088E583
:1036700090E0B6010E94DE218F1408F47DC08A9488
:10368000082D10E00F5F1F4F060D171DF8018291E6
:103690008F01B60190E00E94DE2106151705B1F7F3
:1036A00026CE619171915F01072E000C880B990B5A
:1036B0009ACF102F853791F41F7E2AE030E0F40175
:1036C00017FF2CC061917191819191915F01A301CC
:1036D0000E943A22882E86181F7798CF197F8F363E
:1036E000D1F048F4883591F0F601868197812F96C4
:1036F000E2E10C947920803739F08837A9F714FD7E
:10370000146020E130E0DBCF1061F9CF04FD1660DA
:1037100020E132E0D4CF28E030E0D1CF6191719147
:103720005F0190E080E0D3CF02FD02C0939486CF8A
:103730009394939483CF802F867809F47FCFF6CF2C
:10374000B60180E290E00E94DE2193949514C0F3CC
:10375000E12C80CFE52CE918951408F47BCFF8CF45
:10376000802F867809F488CF8BE201FF80E207FD85
:103770008DE2B60190E07ECFB60180E390E00E943A
:10378000DE21FA9479CF8FEF9FEFB1CF24E0E12CC7
:10379000251508F074CD84E064CD5058BB27AA27C6
:1037A0000E94E51B0C948F1D0E94561D38F00E944C
:1037B0005D1D20F039F49F3F19F426F40C94531D3D
:1037C0000EF4E095E7FB0C944D1DE92F0E94B41D0B
:1037D00058F3BA17620773078407950720F079F446
:1037E000A6F50C94D61D0EF4E0950B2EBA2FA02D45
:1037F0000B01B90190010C01CA01A0011124FF279E
:10380000591B99F0593F50F4503E68F11A16F04098
:10381000A22F232F342F4427585FF3CF4695379597
:103820002795A795F0405395C9F77EF41F16BA0B5C
:10383000620B730B840BBAF09150A1F0FF0FBB1F0A
:10384000661F771F881FC2F70EC0BA0F621F731F53
:10385000841F48F4879577956795B795F7959E3FB0
:1038600008F0B0CF9395880F08F09927EE0F979541
:10387000879508950E94291D08F481E008950E940B
:10388000661DE3950C94A01D0E94581C0C948F1D7E
:103890000E945D1D58F00E94561D40F029F45F3FC4
:1038A00029F00C944D1D51110C94D71D0C94531DEF
:1038B0000E94B41D68F39923B1F3552391F3951B2E
:1038C000550BBB27AA2762177307840738F09F5F41
:1038D0005F4F220F331F441FAA1FA9F335D00E2EAE
:1038E0003AF0E0E832D091505040E695001CCAF71B
:1038F0002BD0FE2F29D0660F771F881FBB1F2617DE
:1039000037074807AB07B0E809F0BB0B802DBF01B4
:10391000FF2793585F4F3AF09E3F510578F00C9483
:103920004D1D0C94D71D5F3FE4F3983ED4F386956C
:1039300077956795B795F7959F5FC9F7880F911DA4
:103940009695879597F90895E1E0660F771F881F90
:10395000BB1F621773078407BA0720F0621B730B43
:10396000840BBA0BEE1F88F7E09508950E94BD1CEA
:103970006894B1110C94D71D08950E94BC1D88F065
:103980009F5798F0B92F9927B751B0F0E1F0660F23
:10399000771F881F991F1AF0BA95C9F714C0B13064
:1039A00091F00E94D61DB1E008950C94D61D672FAA
:1039B000782F8827B85F39F0B93FCCF38695779593
:1039C0006795B395D9F73EF490958095709561957C
:1039D0007F4F8F4F9F4F0895E89409C097FB3EF4A7
:1039E00090958095709561957F4F8F4F9F4F99234C
:1039F000A9F0F92F96E9BB279395F69587957795CA
:103A00006795B795F111F8CFFAF4BB0F11F460FF89
:103A10001BC06F5F7F4F8F4F9F4F16C0882311F0E1
:103A200096E911C0772321F09EE8872F762F05C0F5
:103A3000662371F096E8862F70E060E02AF09A9590
:103A4000660F771F881FDAF7880F9695879597F985
:103A50000895990F0008550FAA0BE0E8FEEF16161F
:103A60001706E807F907C0F012161306E407F50772
:103A700098F0621B730B840B950B39F40A2661F0E6
:103A8000232B242B252B21F408950A2609F4A14089
:103A9000A6958FEF811D811D089597F99F6780E896
:103AA00070E060E008959FEF80EC089500240A9490
:103AB0001616170618060906089500240A94121609
:103AC00013061406050608950C94531D0E94BC1D90
:103AD000D8F3E894E0E0BB279F57F0F02AED3FE0F1
:103AE00049EC06C0EE0FBB0F661F771F881F28F03A
:103AF000B23A62077307840728F0B25A620B730B5D
:103B0000840BE3959A9572F7803830F49A95BB0F41
:103B1000661F771F881FD2F790480C94221F092E2A
:103B20000394000C11F4882352F0BB0F40F4BF2B18
:103B300011F460FF04C06F5F7F4F8F4F9F4F089558
:103B4000EF93E0FF07C0A2EA2AED3FE049EC5FEB0C
:103B50000E94E51B0E948F1D0F90039401FC90585A
:103B6000ECEAF0E00C94551F57FD9058440F551F98
:103B700059F05F3F71F04795880F97FB991F61F0EF
:103B80009F3F79F087950895121613061406551F66
:103B9000F2CF4695F1DF08C0161617061806991FD2
:103BA000F1CF86957105610508940895E894BB27C7
:103BB00066277727CB0197F908950E94291D08F4FD
:103BC0008FEF08950E94F51D0C948F1D0E94561DC5
:103BD00038F00E945D1D20F0952311F00C944D1DCE
:103BE0000C94531D11240C94D71D0E94B41D70F326
:103BF000959FC1F3950F50E0551F629FF001729F92
:103C0000BB27F00DB11D639FAA27F00DB11DAA1FA0
:103C1000649F6627B00DA11D661F829F2227B00DED
:103C2000A11D621F739FB00DA11D621F839FA00D78
:103C3000611D221F749F3327A00D611D231F849FC8
:103C4000600D211D822F762F6A2F11249F5750401F
:103C50009AF0F1F088234AF0EE0FFF1FBB1F661F9A
:103C6000771F881F91505040A9F79E3F510580F063
:103C70000C944D1D0C94D71D5F3FE4F3983ED4F394
:103C8000869577956795B795F795E7959F5FC1F707
:103C9000FE2B880F911D9695879597F90895FA0147
:103CA000EE0FFF1F309621053105A1F16115710559
:103CB00061F48038BFE39B0749F16894903881052F
:103CC00061F08038BFEF9B0741F099234AF5FF3F31
:103CD000E1053105210519F1E8940894E795D9012A
:103CE000AA2329F4AB2FBE2FF85FD0F310C0FF5FDB
:103CF00070F4A695E0F7F73950F019F0FF3A38F470
:103D00009F779F930DD00F9007FC9058089546F031
:103D10000C94531D60E070E080E89FE308954FE746
:103D20009F775F934F933F932F930E94B31F2F91E1
:103D30003F914F915F910E94E21D0C94D31E0E940F
:103D4000BC1DE8F09E37E8F09639B8F49E3848F488
:103D5000672F782F8827985FF9CF86957795679595
:103D600093959539D0F3B62FB1706B0F711D811DEE
:103D700020F487957795679593950C94051F0C947F
:103D8000201F0C94D71D9F930E94661D0F9007FC67
:103D9000EE5F0C94A01D29F416F00C944D1D0C94AC
:103DA000D61D0C94531D0E94BC1DA8F39638A0F795
:103DB00007F80F92E8942BE33AEA48EB5FE70E949A
:103DC000F81D0F920F920F924DB75EB70F920E949F
:103DD000FB1FEAECF0E00E942E1F4F915F91EF91E4
:103DE000FF91E595EE1FFF1F49F0FE57E06844275D
:103DF000EE0F441FFA95E1F74195550B0E94751F90
:103E00000F9007FE0C94691F0895882371F477239F
:103E100021F09850872B762F07C0662311F499273D
:103E20000DC09051862B70E060E02AF09A95660FE5
:103E3000771F881FDAF7880F9695879597F9089569
:103E40009F3F31F0915020F4879577956795B7950E
:103E5000880F911D9695879597F90895DF93CF93D5
:103E60001F930F93FF92EF92DF927B018C01689476
:103E700006C0DA2EEF010E94F51DFE01E894A5911F
:103E80002591359145915591A6F3EF010E94E51BCF
:103E9000FE019701A801DA9469F7DF90EF90FF9097
:103EA0000F911F91CF91DF9108959F938F937F93EF
:103EB0006F93FF93EF939B01AC010E94E21DEF9182
:103EC000FF910E942E1F2F913F914F915F910C9473
:103ED000E21D9B01AC0160E070E080E89FE30C9480
:103EE000441C0C944D1D0C94201F0E94BC1DD8F343
:103EF0009923C9F3940F511DA3F39150504094F0AE
:103F000059F0882332F0660F771F881F9150504078
:103F1000C1F79E3F51052CF7880F911D9695879507
:103F200097F908955F3FACF0983E9CF0BB278695CB
:103F300077956795B79508F4B1609395C1F7BB0F76
:103F400058F711F460FFE8CF6F5F7F4F8F4F9F4F9F
:103F5000E3CF0C94D71D16F00C94201F0C94531D26
:103F600068940C944D1D0E94BC1DA8F39923C1F3C5
:103F7000AEF3DF93CF931F930F93FF92C92FDD27EB
:103F800088232AF02197660F771F881FDAF720E031
:103F900030E040E85FEB9FE3883920F0803E38F066
:103FA00021968F770E94CE1BE2EFF0E004C00E94C2
:103FB000CE1BEFE1F1E00E942E1F8B01BE01EC0150
:103FC000FB2E6F5771097595771F880B990B0E940F
:103FD000EE1C28E132E741E35FE30E94F51DAF2DBF
:103FE0009801AE01FF900F911F91CF91DF910E9438
:103FF000E51B0C948F1DFA01DC01AA0FBB1F9B016E
:10400000AC01BF5728F4222733274427507820C01B
:10401000B75190F4AB2F0024469537952795011C96
:10402000A395D2F3002071F0220F331F441FB395E4
:10403000DAF30ED00C94CD1B61307105A0E88A072D
:10404000B94630F49B01AC01662777278827907822
:10405000309621F020833183428353830895AA1B35
:10406000BB1B51E107C0AA1FBB1FA617B70710F063
:10407000A61BB70B881F991F5A95A9F78095909595
:10408000BC01CD01089597FB072E16F4009407D0CC
:1040900077FD09D00E942F2007FC05D03EF49095B3
:1040A00081959F4F0895709561957F4F0895EE0F0C
:1040B000FF1F0590F491E02D09942F923F924F92AB
:1040C0005F926F927F928F929F92AF92BF92CF92A8
:1040D000DF92EF92FF920F931F93CF93DF93CDB7B1
:1040E000DEB7CA1BDB0B0FB6F894DEBF0FBECDBF29
:1040F00009942A88398848885F846E847D848C84FA
:104100009B84AA84B984C884DF80EE80FD800C8102
:104110001B81AA81B981CE0FD11D0FB6F894DEBFE5
:104120000FBECDBFED0108958F929F92AF92BF92C7
:10413000CF92DF92EF92FF92CF93DF93EC016881F1
:1041400079818A819B81611571058105910521F431
:1041500064E279ED8BE597E02DE133EF41E050E04B
:104160000E94982249015A019B01AC01A7EAB1E4DF
:104170000E94B7226B017C01ACEEB4EFA501940163
:104180000E94C522DC01CB018C0D9D1DAE1DBF1D03
:10419000B7FF03C00197A109B04888839983AA8318
:1041A000BB839F77DF91CF91FF90EF90DF90CF900F
:1041B000BF90AF909F908F9008950E949420089593
:1041C00089E291E00E9494200895B0E0A0E08093FD
:1041D000290190932A01A0932B01B0932C010895FB
:1041E000283008F027E03327DA01990F311D87FDC9
:1041F000916000966105710539F432602E5F3D9340
:1042000030E32A95E1F708959F3F30F0803871053B
:10421000610509F03C5F3C5F3D93913008F0806898
:10422000911DDF93CF931F930F93FF92EF92192F5E
:10423000987F9695E92F96959695E90FFF27E25579
:10424000FE4F99273327EE24FF24A701E7010590AD
:104250000894079428F4360FE71EF81E491F511DD5
:10426000660F771F881F991F0694A1F70590079482
:1042700028F4E70EF81E491F561FC11D770F881F2F
:10428000991F661F0694A1F70590079428F4F80E6D
:10429000491F561FC71FD11D880F991F661F771F03
:1042A0000694A1F70590079420F4490F561FC71FE5
:1042B000D81F990F661F771F881F0694A9F784914E
:1042C0001095177041F0D695C79557954795F79477
:1042D000E7941A95C1F7E4E5F1E06894159015911B
:1042E00035916591959105907FE27395E118F10AFA
:1042F000430B560BC90BD009C0F7E10CF11E431F4D
:10430000561FC91FD01D7EF4703311F48A95E6CF75
:10431000E894015030F0080F0AF40027021708F45F
:10432000202F2395022F7A3328F079E37D932A9565
:10433000E9F710C07D932A9589F6069497956795BD
:10434000379517951794E118F10A430B560BC90BD3
:10435000D00998F023957E9173957A3308F070E335
:104360007C932013B8F77E9170617D9330F0839534
:1043700071E37D9370E32A95E1F71124EF90FF90AC
:104380000F911F91CF91DF91992787FD9095089507
:10439000FC010590615070400110D8F78095909510
:1043A0008E0F9F1F0895FC01615070400190011015
:1043B000D8F7809590958E0F9F1F08950F931F93A8
:1043C000CF93DF93182F092FEB018B8181FD09C05B
:1043D0001FEF0FEF812F902FDF91CF911F910F9142
:1043E000089582FF14C02E813F818C819D81281702
:1043F00039073CF4E881F981CF01019699838883DC
:1044000010838E819F8101969F838E83E3CFE88501
:10441000F985812F0995892BA1F3DACFAEE0B0E0C1
:10442000E4E1F2E20C946B208C01FA0186E08C83CB
:104430001A83098377FF02C060E070E86150710958
:104440007E836D83A901BF01CE0101960E94801871
:104450004D815E8157FD0AC02F8138854217530771
:104460000CF49A01020F131FF80110822E96E4E05B
:104470000C948720FA01AA27283051F1203181F1CC
:10448000E8946F936E7F6E5F7F4F8F4F9F4FAF4F5C
:10449000B1E03ED0B4E03CD0670F781F891F9A1F6F
:1044A000A11D680F791F8A1F911DA11D6A0F711D23
:1044B000811D911DA11D20D009F468943F912AE02F
:1044C000269F11243019305D3193DEF6CF01089517
:1044D000462F4770405D4193B3E00FD0C9F7F6CF48
:1044E000462F4F70405D4A3318F0495D31FD405210
:1044F000419302D0A9F7EACFB4E0A69597958795A6
:1045000077956795BA95C9F7009761057105089584
:104510009B01AC010A2E0694579547953795279530
:10452000BA95C9F7620F731F841F951FA01D0895C8
:10453000052E97FB1EF400940E94AF2257FD07D072
:104540000E94CA2207FC03D04EF40C94AF2250956F
:104550004095309521953F4F4F4F5F4F089590956F
:104560008095709561957F4F8F4F9F4F08950E9462
:10457000EC22A59F900DB49F900DA49F800D911DDE
:1045800011240895B7FF0C94B7220E94B722821B12
:10459000930B0895A1E21A2EAA1BBB1BFD010DC0AF
:1045A000AA1FBB1FEE1FFF1FA217B307E407F507E3
:1045B00020F0A21BB30BE40BF50B661F771F881FBF
:1045C000991F1A9469F760957095809590959B0155
:1045D000AC01BD01CF010895A29FB001B39FC001FE
:1045E000A39F700D811D1124911DB29F700D811D1F
:1045F0001124911D0895F894FFCF2F142A14251427
:1046000020141B14161411140C1407140214FD1397
:10461000F813F313EE13E913E413DF13DA13D513CE
:10462000D013CB13C613C113BC13B713B213AD13FE
:10463000A813A3139E13991394138F138A1385132E
:1046400080137B13761371136C13671362135D135E
:10465000581353134E13491344133F133A1335138E
:1046600030132B13261321131C13171312130D13BE
:0C46700008130313FE12F912F412EF12EB
:10467C00010000803F40E0402070F8702010387C32
:10468C00FE7C3810C0C00000000080048FC4FFFC0A
:10469C008FC400E1000000000801000000FF9C9C9A
:1046AC0000010203040506070809436F6E6E65637B
:1046BC0074205553422E2E2E0055534220636F6E9C
:1046CC006E65637465640044656D6F20496E747229
:1046DC006F0054696D653A20252E32643A252E32CE
:1046EC0064004C697665733A2025640053636F72DD
:1046FC00653A202564000D0A436F6E74726F6C73FB
:10470C000D0A0027612720E28093206D6F766520CB
:10471C00737061636573686970206C6566740D0AEB
:10472C000027642720E28093206D6F7665207370DC
:10473C00616365736869702072696768740D0A003B
:10474C0027772720E28093206669726520706C6160
:10475C00736D6120626F6C74730D0A0027732720D0
:10476C00E280932073656E642F646973706C617959
:10477C00207374617475730D0A0027722720E28010
:10478C00932073746172742F72657365740D0A00D3
:10479C0027702720E280932070617573650D0A00E5
:1047AC0027712720E2809320717569740D0A002708
:1047BC00742720E28093207365742061696D202832
:1047CC002D363020746F203630290D0A00276D27C6
:1047DC0020E28093207365742073706565642028D3
:1047EC003020746F203130290D0A00276C2720E20D
:1047FC00809320736574206C6966650D0A002767C9
:10480C002720E28093207365742073636F72650DAB
:10481C000A00273F2720E28093207072696E742073
:10482C00636F6E74726F6C730D0A0027682720E239
:10483C0080932073706163657368697020746F2056
:10484C00636F6F72640D0A00276A2720E280932041
:10485C0061737465726F696420746F20636F6F721B
:10486C00640D0A00276B2720E2809320626F756C21
:10487C0064657220746F20636F6F72640D0A002779
:10488C00692720E2809320667261676D656E7420E3
:10489C00746F20636F6F72640D0A0D0A00792D63BB
:1048AC006F6F726420283020746F202564293A20A1
:1048BC00000D0A54696D653A20252E32643A252E76
:1048CC0032640D0A004C697665733A2025640D0A32
:1048DC000053636F72653A2025640D0A00417374AE
:1048EC0065726F6964733A2025640D0A00426F7516
:1048FC006C646572733A2025640D0A004672616718
:10490C006D656E74733A2025640D0A0042756C6CEB
:10491C006574733A2025640D0A0041696D3A2025AF
:10492C002E30660D0A0053706565643A20252E30D2
:10493C00660D0A0D0A0053746172742047616D652F
:10494C00210D0A0041696D20282D363020746F200E
:10495C00363020646567293A2000696E76616C698F
:10496C00640D0A00537065656420283020746F2034
:10497C003130293A20004C697665733A2000536334
:10498C006F72653A200053706163657368697020BB
:10499C00782D636F6F726420283020746F2025642B
:1049AC00293A200041737465726F69642000426F6C
:1049BC00756C6465722000467261676D656E74205B
:1049CC000047616D65204F766572210D0A006761A5
:1049DC006D65206F7665720047616D6520456E646C
:0E49EC00210D0A0044656D6F20456E640000C9
:00000001FF