:100000000C947C020C9499020C9499020C94990221
:100010000C9499020C9499020C9499020C949902F4
:100020000C9499020C9499020C941A170C9455177D
:100030000C9499020C9499020C9499020C949902D4
:100040000C9499020C9499020C9499020C949902C4
:100050000C9499020C9499020C9499020C949512A8
:100060000C9499020C944C190C9421190C9499023B
:100070000C9499020C9499020C9499020C94990294
:100080000C9499020C9499020C9499020C94CD1240
:100090000C9499020C9499020C9499020C94990274
:1000A0000C9499020C9499020C949902AF16AC1618
:1000B000A916A616A316A0169D169A16971694169C
:1000C00091168E168B168816851682167F167C164C
:1000D00079167616731670166D166A1667166416FC
:1000E00061165E165B165816551652164F164C16AC
:1000F00049164616431640163D163A16371634165C
:1001000031162E162B162816251622161F161C160B
:1001100019161616131610160D160A1607160416BB
:100120000116FE15FB15F815F515F215EF1505A8C6
:100130004CCDB2D44EB93836A9020C50B99186884C
:10014000083CA6AAAA2ABE000000803F00010000C9
:100150008001120002000092014300030000D5015B
:100160000401030904D9011402030904EF01160371
:1001700003090407020C0001C11201803601813617
:100180001201000202000010C0167A0400010102F0
:10019000030109024300020100C03209040000010A
:1001A00002020100052400100105240101010424BC
:1001B0000206052406000107058203100040090419
:1001C0000100020A000000070503024000000705C5
:1001D000840240000004030904140359006F0075F1
:1001E00000720020004E0061006D006500000016E6
:1001F000035500530042002000530065007200695F
:100200000061006C0000000C033100320033003448
:100210000035000000000000000000005F0000004A
:1002200007000700147F147F14242A7F2A12231347
:1002300008646236495522500005030000001C2264
:1002400041000041221C0014083E081408083E0822
:10025000080050300000080808080800606000002E
:1002600020100804023E5149453E00427F400042B2
:10027000615149462141454B311814127F102745E1
:100280004545393C4A494930017109050336494918
:100290004936064949291E00363600000056360008
:1002A00000081422410014141414140041221408EC
:1002B0000201510906324979413E7E1111117E7FBA
:1002C000494949363E414141227F4141221C7F49F3
:1002D0004949417F090909013E4149497A7F080896
:1002E000087F00417F41002040413F017F081422E8
:1002F000417F404040407F020C027F7F0408107F16
:100300003E4141413E7F090909063E4151215E7F40
:1003100009192946464949493101017F01013F40F8
:1003200040403F1F2040201F3F4038403F6314089B
:10033000146307087008076151494543007F414134
:100340000002040810200041417F00040201020461
:100350004040404040000102040020545454787F43
:10036000484444383844444420384444487F38544E
:10037000545418087E0901020C5252523E7F080460
:10038000047800447D40002040443D007F10284414
:100390000000417F40007C041804787C0804047845
:1003A00038444444387C14141408081414187C7C11
:1003B000080404084854545420043F4440203C405E
:1003C00040207C1C2040201C3C4030403C442810F5
:1003D00028440C5050503C4464544C44000836416E
:1003E0000000007F000000413608001008081008D7
:1003F00078464146786E616E00696E660000407A0C
:1004000010F35A00A0724E18090010A5D4E800009D
:10041000E87648170000E40B54020000CA9A3B003B
:100420000000E1F505000080969800000040420FB2
:10043000000000A08601000000102700000000E876
:1004400003000000006400000000000A000000003B
:10045000000100000000002C76D888DC674F0823DC
:10046000DFC1DFAE59E1B1B796E5E3E453C63AE642
:1004700051997696E8E6C28426EB898C9B62ED4022
:100480007C6FFCEFBC9C9F40F2BAA56FA5F4900571
:100490005A2AF75C936B6CF9676DC11BFCE0E40DA5
:1004A00047FEF520E6B500D0ED902E030094357799
:1004B000050080841E080000204E0A000000C80CC1
:1004C000333333330F986E12831141EF8D2114892A
:1004D0003BE65516CFFEE6DB18D1844B381BF77C84
:1004E0001D901DA4BBE424203284725E228100C9C9
:1004F000F124ECA1E53D270011241FBECFEFDAE087
:10050000DEBFCDBF13E0A0E0B1E0ECE8FBE402C049
:1005100005900D92AC3FB107D9F718E0ACEFB3E00E
:1005200001C01D92AE3AB107E1F70E9405030C9499
:10053000C4250C9400000E941D050E9476060E94AE
:10054000870A0E94A2060E9445070E94B1100E94DD
:100550003A130895E1E6F0E080E8808381E080834B
:100560000E94F2120E9403050E94F6050E94D01418
:100570000E9473190E94AB050895CF93DF93C0E0EA
:10058000D0E0CE0167E270E041E00E949619229629
:10059000C635D105B1F7DF91CF9108950E948E192C
:1005A0000E9425120E94BD020E94D0080E944C09A0
:1005B0000E94AA1B0895CF93DF930E94FE05EC01D1
:1005C0000E94B4058FB1829586958695837080FDD3
:1005D00003C0C237D10511F40E949B020E945B0642
:1005E000882341F40E94C50F0E9410070E948609CB
:1005F0000E94E2070E94C00F0E94E5100E94D503EE
:100600000E94CE02DF91CF910895EF92FF920F9357
:100610001F93CF93DF930E9447067C010E9432060E
:100620008C010E9451130E0D1F1D800F911F0E94FF
:10063000F8230E941705882311F00E94AA020E9445
:100640009B02C8ECD0E009C00E94DB0284EF91E07D
:10065000FE013197F1F70197D9F70E9465068823CB
:1006600099F380E090E0DF91CF911F910F91FF907F
:10067000EF900895292F332727FD3A952093BF0047
:100680008093CF00089580E091E00E9427060895AE
:100690002F923F924F925F926F927F928F929F9292
:1006A000AF92BF92CF92DF92EF92FF920F931F9380
:1006B000CF93DF930E946F06882351F40E94650652
:1006C000882331F481EC92E00E9427060E94720692
:1006D0000E944313EC010E9451131C010E94470623
:1006E0002C010E9432063C010E94F1094C010E943B
:1006F000310A5C010E945E0A6C010E945D077C0168
:100700000E9440078C010E9488062DB73EB72C51ED
:1007100030400FB6F8943EBF0FBE2DBFEDB7FEB709
:10072000319620E734E0ADB7BEB712963C932E93D6
:10073000119728E730E03383228321ED32E03583BF
:100740002483D783C6833186208653864286758666
:10075000648697868686B18AA08AD38AC28AF58AF9
:10076000E48A178B068B608F718F828F938F0E9424
:1007700001062DB73EB7245E3F4F0FB6F8943EBF3B
:100780000FBE2DBFDF91CF911F910F91FF90EF9082
:10079000DF90CF90BF90AF909F908F907F906F90A1
:1007A0005F904F903F902F9008950E944706181633
:1007B00019060CF454C00E9468060E948E1981E04C
:1007C00090E06AE070E043E453E021E00E94851B82
:1007D0000E94AA1B8EE493E00E9427060E94480311
:1007E0002A9A2B9A20E030E040E157E2832F9927A4
:1007F00087FD9A958093BF002093CF00CA0101978F
:10080000F1F72F5F3F4F84E02030380779F780E21F
:100810009EE428EC30E0F9013197F1F70197D9F720
:100820002A982B9881E090E064E170E04DE553E078
:1008300021E00E94851B81E090E06EE170E04FE6D0
:1008400053E021E00E94851B0E94AA1B04C00E9465
:10085000EC140E94B4050E9465068823C1F7089530
:100860004F925F926F927F928F929F92AF92BF92C0
:10087000CF92DF92EF92FF920F931F93CF93DF936C
:100880000E94480311E0E12EF12CC0E7D4E0B2E869
:100890004B2EB3E05B2EAAE06A2E712CF2E98F2E6C
:1008A000F3E09F2EE4E1AE2EB12C7BE9C72E73E07E
:1008B000D72E81C00E948E190E9443138C010E9482
:1008C00051132DB73EB72C5030400FB6F8943EBFB1
:1008D0000FBE2DBFEDB7FEB73196ADB7BEB71296BE
:1008E000FC92EE92119713821282D583C4835782B1
:1008F000468211870087938782870E9448122DB70E
:100900003EB7245F3F4F0FB6F8943EBF0FBE2DBFDA
:100910000E944706ADB7BEB71A970FB6F894BEBF90
:100920000FBEADBFEDB7FEB731961296FC92EE92B8
:10093000119773826282D583C4839782868291875E
:1009400080870E9448122DB73EB7265F3F4F0FB6F3
:10095000F8943EBF0FBE2DBF0E943206ADB7BEB7A2
:100960001A970FB6F894BEBF0FBEADBFEDB7FEB776
:1009700031961296FC92EE921197B382A282D583A1
:10098000C483D782C682918780870E9448122DB780
:100990003EB7265F3F4F0FB6F8943EBF0FBE2DBF48
:1009A0000E94AA1B0E94EC148037910511F0189B3D
:1009B00002C00E945E060E945B06882309F07ACF7F
:1009C000DF91CF911F910F91FF90EF90DF90CF902B
:1009D000BF90AF909F908F907F906F905F904F905F
:1009E00008950E948E1980E06DE00E94BD1B86E193
:1009F00090E068E170E045EA53E020E00E94851B4A
:100A00000E94AA1BFFCF8FE30E94DE1B80E061E201
:100A10000E94BD1B80E063EA0E94BD1B80E06CE089
:100A20000E94BD1B80E060E20E94BD1B0895809182
:100A3000CD0308951092CD030895AF92BF92CF9247
:100A4000DF92EF92FF920F931F93CF93DF9339E5DD
:100A5000E32EF12C0FEB1FEFC2E7D0E02FEFA22E19
:100A600023E0B22E90E5C92E93ECD92E43C00E940C
:100A7000EC140E94B4050E948E19C7016FE070E06B
:100A80004FEA53E021E00E94851BC80168E170E055
:100A900048EB53E021E00E94851BCE0167E270E045
:100AA00043EC53E021E00E94851B0F5F1F4F013193
:100AB000110514F001E110E00894E108F10826E1C5
:100AC000E216F1041CF486E1E82EF12C2197C431E2
:100AD000D10514F4C4E1D0E00E94AA1B80E00E947A
:100AE00077199501281B390BC9010E943A03C601E9
:100AF0000197F1F78091CD03882311F07E9BB7CF4A
:100B00001092CD030E948E19DF91CF911F910F910A
:100B1000FF90EF90DF90CF90BF90AF9008955198E5
:100B20002198509827982098089586988598089538
:100B3000229A239A089583E08093BF008FEF8093D9
:100B4000D10082E88093C0003F9A87E08093C10083
:100B50001092C30008950E948F0586988598229A66
:100B6000239A0E949B050895CF93DF93EC010E9486
:100B7000B306C737D10521F089B1869580FF02C041
:100B80000E943308C337D10511F01F9B02C00E9499
:100B90003004C237D10539F08FB18295869586959C
:100BA000837080FF08C00E941A050E9468060E9498
:100BB00048030E947606C037D10511F0189B04C087
:100BC0000E945E060E947206C137D10531F08FB1D6
:100BD00082958695877080FF02C00E94F104EF978E
:100BE00011F40E944303DF91CF91089585B584608D
:100BF00085BD81E080936E00789408950E94EC1486
:100C000008950F931F93DF93CF93CDB7DEB71F8166
:100C10000885FE013D96812F902F69857A854B8549
:100C20005C859F010E941D25E12FF02FDF010D90B3
:100C30000020E9F71197AE1BBF0B812F902FBD014C
:100C40000E94A115CF91DF911F910F910895DC01B2
:100C50000D900020E9F71197A81BB90BBD010E9468
:100C6000A115089580913E0590913F05089520912A
:100C70003E0530913F05280F391F30933F052093E3
:100C80003E05089590933F0580933E050895809119
:100C9000390590913A0508958091390590913A056A
:100CA000019790933A0580933905089590933A05FA
:100CB00080933905089580913B05089580913B0507
:100CC00091E0892780933B05089580913D05089523
:100CD00080913D0591E0892780933D05089580919D
:100CE0003C05089581E080933C05089581E0809360
:100CF0003B0510923D0510923C0510923F05109265
:100D00003E0585E090E090933A058093390508957B
:100D100081E00E9477192FEF33E0281B390B40E068
:100D200050E0CA01B9010E94B8202AE939E94CEC27
:100D300052E40E941F202DEC3CEC4CEC5DE30E9441
:100D40004822089585E290E0909341058093400504
:100D500089E290E090933906809338061092370626
:100D6000109236060895282F83B1869580FD02C023
:100D7000213649F48091360690913706892B19F473
:100D80008FEF9FEF0CC0489902C0243669F4809120
:100D9000360690913706892B39F481E090E09093E4
:100DA0003706809336061BC083B1869580FD02C04E
:100DB000213631F48091360690913706019759F02B
:100DC000489902C0243659F480913606909137062E
:100DD0008F5F9F4F21F41092370610923606809154
:100DE0004005909141058A3491054CF010923706E8
:100DF00010923606019790934105809340058091AB
:100E0000400590914105823091054CF410923706CF
:100E100010923606019690934105809340050895FF
:100E200080E00E94B30680913606909137062FEF3E
:100E30008F3F920751F480914005909141050197B1
:100E400090934105809340050895019749F480915E
:100E5000400590914105019690934105809340058E
:100E60000895809136069091370608958091400547
:100E70009091410508958091380690913906089522
:100E800080913206909133060895E2E4F5E080E027
:100E900090E0A0E2B1EC80839183A283B38384834A
:100EA0009583A683B78380879187A287B3873C9673
:100EB00026E0E233F20779F708950F931F93CF935B
:100EC000DF93C6E4D5E000E010E0688179818A8193
:100ED0009B8120E030E040E050E00E94182018168E
:100EE00014F00F5F1F4F2C9686E0C633D80769F7C2
:100EF00024E130E0201B310BC901DF91CF911F911C
:100F00000F910895FC01EE0FFF1FE80FF91FEE0F80
:100F1000FF1FEE0FFF1FEE5BFA4F208131814281F0
:100F20005381B901CA010895FC01EE0FFF1FE80FBC
:100F3000F91FEE0FFF1FEE0FFF1FEA5BFA4F208134
:100F4000318142815381B901CA0108950F931F93E2
:100F50009B018C01000F111F080F191F000F111F9B
:100F6000000F111F0E5B1A4F442737FD4095542F79
:100F7000CA01B9010E94BA20F8016083718382839B
:100F800093831F910F9108950F931F939B018C01E1
:100F9000000F111F080F191F000F111F000F111F45
:100FA0000A5B1A4F442737FD4095542FCA01B901F7
:100FB0000E94BA20F80160837183828393831F911A
:100FC0000F910895EF92FF920F931F93CF93DF93AA
:100FD000C2E4D5E0E880F9800A811B8168857985C3
:100FE0008A859B850E948720DC01CB010E947E12AE
:100FF0002DEC3CEC4CE45FEB0E9448229B01AC01E1
:10100000C801B7010E94B41F688379838A839B83D8
:10101000EC80FD800E811F81688579858A859B859E
:101020000E948720DC01CB010E9467122DEC3CEC72
:101030004CE45FEB0E9448229B01AC01C801B70160
:101040000E94B41F6C837D838E839F832C9686E0E1
:10105000C233D80709F0BECFDF91CF911F910F9116
:10106000FF90EF900895CF92DF92EF92FF920F934F
:101070001F93CF93DF9392E4C92E95E0D92EC0E061
:10108000D0E0F601648175818681978120E030E0AF
:1010900040E050E00E94182087FD1AC0F601E08071
:1010A000F18002811381C801B70120E030E040E007
:1010B00050E00E94182087FD0BC0C801B70120E056
:1010C00030E048EA52E40E94442218160CF056C060
:1010D0000E94FB1220E030E040E050E00E944422F9
:1010E00018160CF04BC08E01000F111F0C0F1D1FA6
:1010F000000F111F000F111FA2E4EA2EA5E0FA2E27
:10110000E00EF11E6091400570914105882777FD42
:101110008095982F0E94BA20F701608371838283A3
:1011200093830A5B1A4F60913806709139068827BD
:1011300077FD8095982F0E94BA20F8016083718313
:1011400082839383609132067091330680913406D6
:101150009091350668597E4F8F4F9F4F28E631E0BA
:1011600040E050E00E943C230E94BA20F7016087D3
:101170007187828793870E94FB1209C021968CE0B9
:1011800090E0C80ED91EC431D10509F07ACFDF91A5
:10119000CF911F910F91FF90EF90DF90CF90089526
:1011A0004F925F926F927F928F929F92AF92BF9277
:1011B000CF92DF92EF92FF920F931F93CF93DF9323
:1011C00032E4A32E35E0B32E53C0F201808190E0CB
:1011D0000C2E02C0959587950A94E2F780FF26C0F1
:1011E000BE01882777FD8095982F0E94BA20F501CF
:1011F00020813181428153810E94B41F0E94872047
:101200007B018C01C401B3010E94BA20F501248145
:101210003581468157810E94B41F0E9487209B011F
:10122000AC01C701B90141E00E9496192196C7306F
:10123000D10559F60894C11CD11CF2E0CF16D10497
:1012400071F0C0E0D0E02EEC422E23E0522E4C0C88
:101250005D1C3601882477FC8094982CB6CF8CE0F6
:1012600090E0A80EB91E92E3A91696E0B90619F00F
:10127000CC24DD24E6CFDF91CF911F910F91FF9019
:10128000EF90DF90CF90BF90AF909F908F907F9026
:101290006F905F904F900895EF92FF920F931F937E
:1012A000CF93DF9300E010E021C0C7010C2E02C0F5
:1012B000959587950A94E2F780FF0FC080914005CD
:1012C000909141056091380670913906600F711F49
:1012D0008C0F9D1F41E00E9496192196C730D105C1
:1012E00021F70F5F1F4F0730110549F0F801E05358
:1012F000FC4F8081E82EFF24C0E0D0E0D6CFDF9104
:10130000CF911F910F91FF90EF90089580E00E9480
:101310007719A0E0B0E0BC01CD010E94B82026E61C
:1013200036E648E051E40E941F200E9487209B017E
:10133000AC016D337105810591057CF02DE330E042
:1013400040E050E00E943C236093320670933306E5
:101350008093340690933506089566277727CB014E
:10136000621B730B840B950B2DE330E040E050E0E3
:101370000E943C2324EC3FEF4FEF5FEF261B370B1F
:10138000480B590B209332063093330640933406B2
:10139000509335060895FC01EE0FFF1FE80FF91F6B
:1013A000EE0FFF1FEE0FFF1FE65CF94F60817181AA
:1013B000828193810E948720CB010895FC01EE0F6A
:1013C000FF1FE80FF91FEE0FFF1FEE0FFF1FE25C7C
:1013D000F94F60817181828193810E948720CB01C6
:1013E0000895CF93DF93C0E0D0E060913A0670910A
:1013F0003B0680913C0690913D0620E030E040E0C5
:1014000050E00E941820882314F4C1E0D0E06091DD
:10141000460670914706809148069091490620E063
:1014200030E040E050E00E94182088230CF4219620
:101430006091520670915306809154069091550622
:1014400020E030E040E050E00E94182088230CF4B7
:10145000219623E030E02C1B3D0BC901DF91CF9199
:101460000895EEE5F6E040E050E08081918197FF3D
:1014700002C04F5F5F4F369686E0E238F807A9F763
:1014800026E030E0241B350BC9010895FC01EE0F66
:10149000FF1FE80FF91FEE0FFF1FE25AF94F80817F
:1014A00091810895FC01EE0FFF1FE80FF91FEE0F69
:1014B000FF1FE05AF94F808191810895E2E8F6E03C
:1014C00040E050E08081918197FF02C04F5F5F4F05
:1014D000349686E0E23BF807A9F72CE030E0241BC5
:1014E000350BC9010895FC01EE0FFF1FEE0FFF1F22
:1014F000EE57F94F808191810895FC01EE0FFF1F97
:10150000EE0FFF1FEC57F94F808191810895EF9204
:10151000FF920F931F930F2EF0E0EF2EF0E0FF2EBF
:10152000F8EA0F2FF2EC1F2FF02DE0923A06F0921E
:101530003B0600933C0610933D0620E030E040E47B
:1015400052EC20933E0630933F0640934006509362
:10155000410680E090E0A0E0B0E0809342069093E6
:101560004306A0934406B0934506E0924606F092E7
:101570004706009348061093490620934A06309385
:101580004B0640934C0650934D0680934E06909325
:101590004F06A0935006B0935106E0925206F09287
:1015A0005306009354061093550620935606309325
:1015B0005706409358065093590680935A069093C5
:1015C0005B06A0935C06B0935D06EEE5F6E02CEAC0
:1015D0003FEF80ED9FEF31832083938382831582D9
:1015E0001482369646E0E238F407A9F7E2E8F6E01E
:1015F0002CEA3FEF80ED9FEF31832083938382833A
:1016000015821482349646E0E23BF407A9F71F9155
:101610000F91FF90EF900895CF92DF92EF92FF929B
:101620000F931F93CF93DF938C017B016A012115E8
:10163000310509F046C0CA018A579E4F68E671E03D
:101640000E940723B82FA92FEEE5F6E060E070E0D6
:1016500020E030E0A801455050408081918197FF03
:1016600029C0672B49F451834083F382E282B4831B
:10167000A58361E070E01EC0F901EE0FFF1FE20FCD
:10168000F31FEE0FFF1F9F01225A394F0B5F1F4FB1
:10169000D9010D931C93E05AF94FF182E082C60103
:1016A000865B9E4F68E671E00E940723F9019583EF
:1016B000848351C02F5F3F4F36962630310569F63F
:1016C0004AC02130310509F046C0CA018A579E4FF1
:1016D00068E671E00E940723782F692FE2E8F6E0C0
:1016E00020E030E0C0E0D0E0A801455050408081CB
:1016F000918197FF2BC0232B49F451834083F382C0
:10170000E2827483658321E030E020C0FE01EE0FA9
:10171000FF1FEE0FFF1FEE57F94F0B5F1F4F118397
:101720000083CC0FDD1FCC0FDD1FFE01EC57F94FFE
:10173000F182E082CA57D94FC601865B9E4F68E6A8
:1017400071E00E9407239983888305C0219634960F
:10175000CC30D10561F6DF91CF911F910F91FF90B1
:10176000EF90DF90CF900895AF92BF92CF92DF922B
:10177000EF92FF920F931F93CF93DF93CAE3D6E0CC
:10178000AA24BB24CC24DD24688179818A819B81B1
:101790000E9487206D5F7F4F882777FD8095982F67
:1017A0000E94BA200E94F5207B018C0120E030E0ED
:1017B00048E252E40E941820882324F40894A11CD3
:1017C000B11C0DC0C801B70120E030E048E252E48E
:1017D0000E94442218161CF40894C11CD11C2C969B
:1017E00086E0CE35D80781F6CA14DB041CF42A9AA9
:1017F0002A9804C0AC14BD040CF42B9A88EE93E034
:1018000028EC30E0F9013197F1F70197D9F72A98E0
:101810002B98DF91CF911F910F91FF90EF90DF9068
:10182000CF90BF90AF9008952F923F924F925F92CA
:101830006F927F928F929F92AF92BF92CF92DF92E0
:10184000EF92FF920F931F93DF93CF93CDB7DEB745
:1018500060970FB6F894DEBF0FBECDBF1E821D820B
:101860008D819E810E9494070E94F52020E030E047
:1018700040E050E00E94442218160CF073C28D81A3
:101880009E810E9482070E94F52020E030E040E027
:1018900050E00E94442218160CF064C28D819E8193
:1018A0000E9482070E94F52020E030E048EA52E4DE
:1018B0000E94182088230CF055C2FAE32F2EF6E080
:1018C0003F2ED1016D917D918D919C910E94872039
:1018D000882777FD8095982F0E94BA203B014C0104
:1018E000F10164817581868197810E948720882714
:1018F00077FD8095982F0E94BA207B018C018D8105
:101900009E810E9482075B016C018D819E810E94F5
:1019100094072DB73EB7285030400FB6F8943EBF1D
:101920000FBE2DBFEDB7FEB73196ADB7BEB711965E
:101930006D937D938D939C93149727E030E03583CE
:10194000248382E090E097838683C401B301A801D9
:10195000970107E010E0E7E0EE2EF12C0E940F1453
:10196000ADB7BEB718960FB6F894BEBF0FBEADBFE9
:10197000882309F470C0F1016081718182819381B3
:101980000E9487206F83788789879A87D101149670
:101990006D917D918D919C9117970E9487206B8707
:1019A0007C878D879E878D819E810E9482077B0127
:1019B0008C018D819E810E9494075B016C0100D097
:1019C0004DB65EB60894411C511CC801B7010E9477
:1019D00087203B014C01C601B5010E9487205B01B5
:1019E0006C0127EE33E0F201318320838F819885EB
:1019F0006B857C8547E050E027E030E009EE13E09E
:101A000073016501B7E0AB2EB12CA2E08A2E912CB8
:101A10000E9461130F900F908823E9F080E090E01E
:101A2000A0E2B1ECF10180839183A283B38384832C
:101A30009583A683B7838D819E8166EF7FEF0E9499
:101A4000A6078D819E8166EF7FEF0E94C40781E02B
:101A500090E00E9437062CE030E0220E331E3EE577
:101A6000231636E0330609F02CCF8EE596E0988BEE
:101A70008F87AF85B8896D917C91882777FD809598
:101A8000982F0E94BA203B014C01EF85F8896281B2
:101A90007381882777FD8095982F0E94BA207B015B
:101AA0008C018D819E810E9482075B016C018D817A
:101AB0009E810E9494072DB73EB7285030400FB644
:101AC000F8943EBF0FBE2DBFEDB7FEB73196ADB750
:101AD000BEB711966D937D938D939C93149727E0D9
:101AE00030E03583248382E090E097838683C401CD
:101AF000B301A801970105E010E0F5E0EF2EF12C0D
:101B00000E940F14ADB7BEB718960FB6F894BEBFBB
:101B10000FBEADBF882309F45DC0EF85F889208032
:101B20003180228133813C832B838D819E810E9471
:101B300082077B018C018D819E810E9494075B014D
:101B40006C0100D04DB65EB60894411C511CC80112
:101B5000B7010E9487203B014C01C601B5010E94DC
:101B600087205B016C01E7EEF3E0D201ED93FC937B
:101B7000C1016B817C8145E050E025E030E009EE59
:101B800013E073016501E7E0AE2EB12CB2E08B2EBD
:101B9000912C0E9461130F900F908823D9F0E6EFEB
:101BA000FFEFAF85B8891196FC93EE931396FC93E3
:101BB000EE9312978D819E8166EF7FEF0E94A607BC
:101BC0008D819E8166EF7FEF0E94C40782E090E0E6
:101BD0000E9437062F8538892A5F3F4F388B2F8721
:101BE0002258364009F045CFA2E8B6E0B88BAF875F
:101BF000EF85F88960817181882777FD8095982F1E
:101C00000E94BA203B014C01AF85B88912966D91B4
:101C10007C911397882777FD8095982F0E94BA2092
:101C20007B018C018D819E810E9482075B016C018A
:101C30008D819E810E949407EDB7FEB738970FB64D
:101C4000F894FEBF0FBEEDBF3196ADB7BEB711968B
:101C50006D937D938D939C93149727E030E03583AB
:101C6000248382E090E097838683C401B301A801B6
:101C7000970103E010E0A3E0EA2EF12C0E940F147C
:101C8000ADB7BEB718960FB6F894BEBF0FBEADBFC6
:101C9000882309F45DC0EF85F88920803180228196
:101CA00033813A8329838D819E810E9482077B0143
:101CB0008C018D819E810E9494075B016C0100D094
:101CC0004DB65EB60894411C511CC801B7010E9474
:101CD00087203B014C01C601B5010E9487205B01B2
:101CE0006C01E7EEF3E0D201ED93FC93C101698151
:101CF0007A8143E050E023E030E009EE13E0730125
:101D00006501F7E0AF2EB12CE2E08E2E912C0E94FF
:101D100061130F900F908823D9F0E6EFFFEFAF85A6
:101D2000B8891196FC93EE931396FC93EE93129759
:101D30008D819E8166EF7FEF0E94A6078D819E8137
:101D400066EF7FEF0E94C40784E090E00E943706B0
:101D50002F8538892C5F3F4F388B2F87225B364089
:101D600009F046CFAD81BE811196BE83AD835997F0
:101D700009F076CD60960FB6F894DEBF0FBECDBFEA
:101D8000CF91DF911F910F91FF90EF90DF90CF9057
:101D9000BF90AF909F908F907F906F905F904F908B
:101DA0003F902F900895AF92BF92CF92DF92EF9223
:101DB000FF920F931F93CF93DF93CAE3D6E00F2ECA
:101DC000F0E0AF2EF0E0BF2EF0E2CF2EF1ECDF2EF0
:101DD000F02D688179818A819B810E94F5207B01A9
:101DE0008C0120E030E040E050E00E944422882353
:101DF00074F1C801B70120E030E048EA52E40E94E3
:101E00001820181624F16C817D818E819F8120E03D
:101E100030E040EE50E40E94B41F20E030E040E8A3
:101E20005FE30E94B31F0E94F52020E030E04CE108
:101E300052E40E944422882354F0A882B982CA82C4
:101E4000DB82AC82BD82CE82DF820E944C062C9661
:101E500086E0CE35D80709F0BCCFCEE5D6E0B6EFA8
:101E6000CB2EBFEFDB2E68817981882777FD8095A7
:101E7000982F0E94BA200E94F5207B018C0120E05F
:101E800030E040E050E00E944422882324F1C80161
:101E9000B70120E030E048EA52E40E94182018160A
:101EA000D4F06A817B816C5F7F4F882777FD8095B6
:101EB000982F0E94BA200E94F52020E030E04CE1EB
:101EC00052E40E944422882334F0D982C882DB8203
:101ED000CA820E944C06269686E0C238D80709F0CE
:101EE000C2CFC2E8D6E0A6EFCA2EAFEFDA2E6881E5
:101EF0007981882777FD8095982F0E94BA200E94CB
:101F0000F5207B018C0120E030E040E050E00E94B1
:101F10004422882324F1C801B70120E030E048EAD8
:101F200052E40E9418201816D4F06A817B816E5FFB
:101F30007F4F882777FD8095982F0E94BA200E94B6
:101F4000F52020E030E04CE152E40E944422882356
:101F500034F0D982C882DB82CA820E944C06249661
:101F600086E0CE38D80709F0C2CFDF91CF911F911C
:101F70000F91FF90EF90DF90CF90BF90AF900895BA
:101F80000E94D30E0E94140C0895AF92BF92CF927C
:101F9000DF92EF92FF920F931F93CF93DF93CAE3E9
:101FA000D6E0A880B980CA80DB800E9488067B01C9
:101FB0008C0180E090E00E947E129B01AC01C80180
:101FC000B7010E9448229B01AC01C601B5010E94E5
:101FD000B41F688379838A839B83AC80BD80CE8065
:101FE000DF800E9488067B018C0180E090E00E94E7
:101FF00067129B01AC01C801B7010E9448229B01F6
:10200000AC01C601B5010E94B41F6C837D838E8331
:102010009F832C9686E0CE35D80719F6CEE5D6E01C
:1020200068817981882777FD8095982F0E94BA2052
:102030005B016C010E9488067B018C0180E090E0CE
:102040000E947E129B01AC01C801B7010E94482288
:102050009B01AC01C601B5010E94B41F0E948720FC
:10206000798368836A817B81882777FD8095982FA3
:102070000E94BA205B016C010E9488067B018C01E2
:1020800080E090E00E9467129B01AC01C801B7019B
:102090000E9448229B01AC01C601B5010E94B41FF9
:1020A0000E9487207B836A83269686E0C238D80701
:1020B00009F0B6CFC2E8D6E068817981882777FD3C
:1020C0008095982F0E94BA205B016C010E948806BF
:1020D0007B018C0180E090E00E947E129B01AC01AC
:1020E000C801B7010E9448229B01AC01C601B5019D
:1020F0000E94B41F0E948720798368836A817B8154
:10210000882777FD8095982F0E94BA205B016C018B
:102110000E9488067B018C0180E090E00E9467129B
:102120009B01AC01C801B7010E9448229B01AC0190
:10213000C601B5010E94B41F0E9487207B836A8379
:10214000249686E0C23BD80709F0B6CFDF91CF9145
:102150001F910F91FF90EF90DF90CF90BF90AF90C5
:102160000895EF92FF920F931F93CF93DF93CAE3EB
:10217000D6E00F2EF0E0EF2EF0E0FF2EF0E20F2F72
:10218000F1EC1F2FF02D0E94F3236CE470E00E940D
:102190000723AA2797FDA095BA2FBC01CD010E9465
:1021A000BA20688379838A839B83EC82FD820E83C5
:1021B0001F832C9686E0CE35D80729F7DF91CF9183
:1021C0001F910F91FF90EF9008950E94F109892BC4
:1021D00061F40E94310A892B41F40E945E0A892B26
:1021E00021F40E94B1100E94B40B0895AF92BF92E7
:1021F000CF92DF92EF92FF920F931F93CF93DF93D3
:1022000041EEC42E43E0D42E00E010E0880F991F69
:10221000880F991F22E8A22E26E0B22EA80EB91E22
:102220007C0184E896E0E80EF91E25C0F601808165
:1022300091810C2E02C0959587950A94E2F780FF54
:102240000DC0F50180819181F70160817181600F7E
:10225000711F8C0F9D1F41E00E9496192196C73077
:10226000D10521F70F5F1F4F82E090E0C80ED91E05
:102270000330110519F0C0E0D0E0D8CFDF91CF9145
:102280001F910F91FF90EF90DF90CF90BF90AF9094
:102290000895AF92BF92CF92DF92EF92FF920F9389
:1022A0001F93CF93DF93F7EDCF2EF3E0DF2E00E007
:1022B00010E09C01220F331F280F391F220F331FFC
:1022C0006EE5A62E66E0B62EA20EB31E790180E65C
:1022D00096E0E80EF91E25C0F601808191810C2E52
:1022E00002C0959587950A94E2F780FF0DC0F5012D
:1022F00080819181F70160817181600F711F8C0F66
:102300009D1F41E00E9496192196C730D10521F703
:102310000F5F1F4F82E090E0C80ED91E05301105F7
:1023200019F0C0E0D0E0D8CFDF91CF911F910F918D
:10233000FF90EF90DF90CF90BF90AF9008952F92D5
:102340003F924F925F926F927F928F929F92AF9245
:10235000BF92CF92DF92EF92FF920F931F93CF9392
:10236000DF93CC24DD249C01220F331F280F391F5B
:10237000220F331F220F331F1AE3212E16E0312EB6
:10238000220E331E59018EE396E0A80EB91E3CC002
:10239000F201808190E00C2E02C0959587950A94F9
:1023A000E2F780FF26C0BE01882777FD8095982F31
:1023B0000E94BA20F10120813181428153810E9423
:1023C000B41F0E9487207B018C01C401B3010E94CD
:1023D000BA20F50120813181428153810E94B41FCE
:1023E0000E9487209B01AC01C701B90141E00E9416
:1023F00096192196C730D10559F60894C11CD11CF5
:10240000F7E0CF16D10471F0C0E0D0E0A9EE4A2E7B
:10241000A3E05A2E4C0C5D1C3601882477FC809476
:10242000982CB6CFDF91CF911F910F91FF90EF9035
:10243000DF90CF90BF90AF909F908F907F906F90E4
:102440005F904F903F902F900895CF93DF9380E05F
:1024500090E00E949F1181E090E00E949F1182E035
:1024600090E00E949F11C0E0D0E0CE010E9449118F
:102470002196C630D105C9F7C0E0D0E0CE010E9458
:10248000F6102196CC30D105C9F7DF91CF91089590
:102490000F931F93DF93CF93CDB7DEB70B851C85CA
:1024A000FE013F96C80160E570E04D855E859F01A5
:1024B0000E941D258F81988569857A85A80121E074
:1024C0000E94851BCF91DF911F910F910895AA273C
:1024D00097FDA095BA2FBC01CD010E94BA202BED2B
:1024E0003FE049E450E40E94482220E030E044E329
:1024F00053E40E941F200E941C200895AA2797FDE4
:10250000A095BA2FBC01CD010E94BA202BED3FE06F
:1025100049E450E40E94482220E030E044E353E4E0
:102520000E941F200E94CB2208951F920F920FB687
:102530000F9211242F933F934F935F936F937F9349
:102540008F939F93AF93BF93EF93FF936091FC039F
:102550007091FD038091FE039091FF032DEB37E313
:1025600046E05CE30E94B41F6093FC037093FD039C
:102570008093FE039093FF03FF91EF91BF91AF9182
:102580009F918F917F916F915F914F913F912F918B
:102590000F900FBE0F901F9018951F920F920FB6BD
:1025A0000F9211248F939F93AF93BF938091B206A4
:1025B0009091B306A091B406B091B5060196A11D05
:1025C000B11D8093B2069093B306A093B406B09366
:1025D000B506BF91AF919F918F910F900FBE0F9055
:1025E0001F9018951092900082E08093910081E0F6
:1025F000809371000895AF92BF92CF92DF92EF92D5
:10260000FF920F931F93E0909400F09095006091DB
:10261000B2067091B3068091B4069091B5060E94FF
:10262000B82020E030E040E857E40E9448225B01F7
:102630006C0100E010E0C801B7010E94B8209B01C6
:10264000AC01C601B5010E94B41F20E030E040E0BB
:1026500051E40E94482220E034E244EF5AE40E9410
:102660001F201F910F91FF90EF90DF90CF90BF90B0
:10267000AF9008951092B2061092B3061092B4066D
:102680001092B50608950E94FB1220E030E040E76A
:1026900052E40E941F200E94F5200E948720CB0157
:1026A00008950E94FB1220E030E040E752E40E94CF
:1026B0000F219B01AC01CA01B9010E948720CB0107
:1026C00008952F923F924F925F926F927F928F92D6
:1026D0009F92AF92BF92CF92DF92EF92FF920F93B1
:1026E0001F93DF93CF93CDB7DEB728970FB6F8943B
:1026F000DEBF0FBECDBF9A8389831B013A0129013A
:102700006D8D7E8D88279927821993099C01249FBE
:10271000C001259F900D349F900D1124E981FA810D
:102720008E1B9F0B080F191F882799278C199D094D
:102730009C012A9DC0012B9D900D3A9D900D112466
:102740008E199F09680F791FA0E0B0E0E40FF51F14
:10275000FC83EB83420C531CC5018E0D9F1D9E8391
:102760008D838C0C9D1C35C0E981FA81AE17BF07A3
:10277000ECF08F81988582159305C4F0F901808172
:102780008823A1F0AE15BF058CF08D819E81A8171E
:10279000B90764F4EF81F885EC15FD053CF0E81508
:1027A000F90524F4FA0180818823F9F48F81988552
:1027B000019698878F834A0D5B1D260D371DEF818B
:1027C000F885E415F50584F211960F5F1F4F6F5FD2
:1027D0007F4F2B813C81A217B30714F080E006C025
:1027E000AB01980118861F82EACF81E028960FB6C8
:1027F000F894DEBF0FBECDBFCF91DF911F910F9137
:10280000FF90EF90DF90CF90BF90AF909F908F9010
:102810007F906F905F904F903F902F9008952F92F0
:102820003F924F925F926F927F928F929F92AF9260
:10283000BF92CF92DF92EF92FF920F931F93DF939D
:10284000CF9300D000D000D0CDB7DEB729833A8334
:102850004B835C831801FE82ED828F8C98A049A087
:102860005AA00E94AB227B018C01C10162E070E0A2
:102870000E940723882777FD8095982F0E94BA2011
:102880009B01AC01C801B7010E94B31F0E948720C1
:102890003B01C601B5010E94AB227B018C01C40142
:1028A00062E070E00E940723882777FD8095982FCB
:1028B0000E94BA209B01AC01C801B7010E94B31F5E
:1028C0000E948720860E971E681479040CF04DC074
:1028D000620C731C661577050CF047C069817A811C
:1028E0008B819C810E94AB227B018C018D819E811A
:1028F00062E070E00E940723882777FD8095982F7B
:102900000E94BA209B01AC01C801B7010E94B31F0D
:102910000E9487206B016B8D7C8D8D8D9E8D0E941A
:10292000AB227B018C01C20162E070E00E940723B0
:10293000882777FD8095982F0E94BA209B01AC01D3
:10294000C801B7010E94B31F0E948720460E571E80
:10295000C414D50454F420E08D819E81C80ED91E84
:102960006C157D051CF421E001C020E0822F269625
:102970000FB6F894DEBF0FBECDBFCF91DF911F9190
:102980000F91FF90EF90DF90CF90BF90AF909F900E
:102990008F907F906F905F904F903F902F90089511
:1029A00081E08093D70080EA8093D80082E189BDDE
:1029B00009B400FEFDCF80E98093D8001092E000BA
:1029C00010920004109201048CE08093E20078944D
:1029D00008958091000408952FB7F8948091000421
:1029E000882369F083E08093E9009BE68091E8000A
:1029F00085FD09C082FF03C09093E800F7CF2FBF89
:102A00002FEF3FEF0CC09091F1008091E80085FD21
:102A100003C08BE68093E8002FBF292F30E0C90167
:102A200008952FB7F89480910004882311F490E062
:102A300010C083E08093E9009091F200992349F45B
:102A40008091E80082FF05C085FD03C08BE680937E
:102A5000E8002FBF892F089580910004882371F02A
:102A60009FB7F89483E08093E9002BE602C020939F
:102A7000E8008091E80085FDFACF9FBF0895482FB8
:102A8000809100048823D9F12FB7F89484E08093D3
:102A9000E90080910304882341F08091E80085FDDE
:102AA00002C02FBF12C0109203049091E400975E01
:102AB00034E08091E80085FD13C02FBF8091E400D1
:102AC000891729F481E0809303048FEF08958091A2
:102AD00000048823A1F02FB7F8943093E900E9CFE0
:102AE0004093F1008091E80085FD03C08AE3809364
:102AF000E80085E0809302042FBF80E008958FEF07
:102B00000895282F80910004882351F09FB7F894EE
:102B100084E08093E9008091E80085FD03C09FBFB9
:102B20008FEF08952093F1008091E80085FD03C0A8
:102B30008AE38093E80085E0809302049FBF80E0F1
:102B40000895CF93DF93EC0180910004882309F46A
:102B50001CC13FB7F89484E08093E900809103049E
:102B6000882309F408C18091E80085FD02C03FBFB9
:102B70000CC110920304FFC09091E400975E809115
:102B8000E80085FD13C03FBF8091E400891721F460
:102B900081E080930304F9C080910004882309F444
:102BA000F4C03FB7F894B093E900E9CF8091F20008
:102BB000242F281B822F90E06817790708F4262F0E
:102BC000822F90E08134910508F0C6C08A5A9F4F49
:102BD000FC01EE0FFF1F0590F491E02D09948991FF
:102BE0008093F10089918093F10089918093F100A5
:102BF00089918093F10089918093F100899180936C
:102C0000F10089918093F10089918093F10089917D
:102C10008093F10089918093F10089918093F10074
:102C200089918093F10089918093F100899180933B
:102C3000F10089918093F10089918093F10089914D
:102C40008093F10089918093F10089918093F10044
:102C500089918093F10089918093F100899180930B
:102C6000F10089918093F10089918093F10089911D
:102C70008093F10089918093F10089918093F10014
:102C800089918093F10089918093F10089918093DB
:102C9000F10089918093F10089918093F1008991ED
:102CA0008093F10089918093F10089918093F100E4
:102CB00089918093F10089918093F10089918093AB
:102CC000F10089918093F10089918093F1008991BD
:102CD0008093F10089918093F10089918093F100B4
:102CE00089918093F10089918093F100899180937B
:102CF000F10089918093F10089918093F10089918D
:102D00008093F10089918093F10089918093F10083
:102D100089918093F10089918093F100899180934A
:102D2000F10089918093F10089918093F10089915C
:102D30008093F10089918093F10089918093F10053
:102D400089918093F10089918093F100899180931A
:102D5000F10089918093F10089918093F100809135
:102D6000E80085FD02C05093E800621B7109A09342
:102D700002043FBF04C0B4E040E45AE3A5E061159B
:102D8000710509F0F9CE80E001C08FEFDF91CF919E
:102D900008959FB7F89480910204882341F084E05D
:102DA0008093E9008AE38093E800109202049FBFB9
:102DB00008956091F0037091F1038091F203909176
:102DC000F30308958091F40308958091F503089525
:102DD0008091F6030895809101040895282F9FB7EC
:102DE000F89480910004882339F082E08093E90010
:102DF0008091E80085FD03C09FBF8FEF089581EAB1
:102E00008093F10080E28093F1001092F100109223
:102E1000F1001092F1001092F10081E08093F10036
:102E20001092F1002093F1008AE38093E8009FBFA5
:102E300080E008951F920F920FB60F9211248F9386
:102E40009F938091E1001092E100982F83FF11C0C1
:102E50001092E90081E08093EB001092EC0082E197
:102E60008093ED0088E08093F000109200041092AF
:102E7000010492FF13C080910004882379F08091AF
:102E80000204882359F0815080930204882331F48E
:102E900084E08093E9008AE38093E8009F918F911A
:102EA0000F900FBE0F901F9018951F920F920FB6A4
:102EB0000F9211240F931F932F933F934F935F9380
:102EC0006F937F938F939F93AF93BF93EF93FF93F2
:102ED0001092E9008091E80083FF3CC14091F1002D
:102EE0003091F1008091F100682F70E02091F100A5
:102EF000922F80E0682B792B8091F100A82FB0E011
:102F00002091F100922F80E0A82BB92B1091F100B5
:102F10000091F10082EF8093E800363009F05AC04A
:102F200023E531E0A90145505040F90137978591DB
:102F300094918617970701F5FA01859194918A1764
:102F40009B07D1F49A012E5F3F4FF901659174916F
:102F50002E5F3F4FF9014491212F30E0902F80E008
:102F6000282B392B2F3F310519F010F02FEF30E0CF
:102F7000241758F4422F09C0295F3F4F495F5F4F24
:102F8000F1E02D373F0789F6E5C05EEF8091E8005C
:102F9000282F30E0C90185709070892BB9F322FD8C
:102FA000DCC0342F413108F030E1232FCB0106C0C3
:102FB000FC010196E491E093F10021502223C1F736
:102FC000630F711D431B5093E8004423F9F6303121
:102FD000E9F2C3C0353061F48EEF8093E800809150
:102FE000E80080FFFCCF862F80688093E300B5C0A7
:102FF000393051F5442309F0ADC0609300041092BC
:103000000104109202048EEF8093E80086E791E0BD
:1030100021E02093E900FC010196E491E093EB00AC
:10302000EE2369F0AC014F5F5F4FFC018491809308
:10303000EC00CA010196FA0134913093ED002F5F44
:10304000253039F78EE181C0383061F4403809F01D
:1030500081C08091E80080FFFCCF809100048093C4
:10306000F10050C0313289F4413A09F073C08091C7
:10307000E80080FFFCCFE0EFF3E081918093F10066
:1030800083E0E73FF807C9F73DC03032A1F4413291
:1030900009F060C08091E80082FFFCCFE0EFF3E030
:1030A0008091F100819383E0E73FF807C9F78BEF48
:1030B0008093E80027C0323251F4413209F04AC00F
:1030C000609301048091E80080FFFCCF1BC0332394
:1030D000E9F48091E80080FFFCCF423811F080E0F5
:1030E0000DC0A093E9008091EB0090E025E096955B
:1030F00087952A95E1F781701092E9008093F1009D
:103100001092F1008EEF8093E80027C0313011F06B
:10311000333001F54230F1F4672BE1F42A2F2F7799
:10312000822F81508430B0F48EEF8093E80020939A
:10313000E900333079F089E18093EB0081E090E0A1
:1031400002C0880F991F2A95E2F78093EA00109237
:10315000EA0003C081E28093EB00FF91EF91BF9101
:10316000AF919F918F917F916F915F914F913F911F
:103170002F911F910F910F900FBE0F901F901895D8
:103180009B01AC01F89460E079E08DE390E00E944F
:103190001A2321503040404050405695479537956E
:1031A00027953093CD002093CC0082E08093C80017
:1031B00088E98093C90086E08093CA0010922D04AC
:1031C00080912D0480932C0410926F0480916F04E1
:1031D00080936E0478940895282F90912C049F5F1B
:1031E000983208F090E080912D048917E1F3E92FDF
:1031F000F0E0EC5FFB4F208390932C0488EB8093EE
:10320000C900089590916E0480916F049817D1F3CE
:1032100090916F049F5F903408F090E0E92FF0E008
:10322000E25DFB4F808190936F04089580916E045E
:1032300090916F04891710F0891B0895805C891B99
:1032400008951F920F920FB60F9211248F939F93A0
:10325000EF93FF9390912C0480912D04981721F403
:1032600088E98093C9000FC090912D049F5F983228
:1032700008F090E0E92FF0E0EC5FFB4F8081809355
:10328000CE0090932D04FF91EF919F918F910F901D
:103290000FBE0F901F9018951F920F920FB60F92AE
:1032A00011242F938F939F93EF93FF932091CE0040
:1032B00090916E049F5F903408F090E080916F04CD
:1032C000981739F0E92FF0E0E25DFB4F20839093EF
:1032D0006E04FF91EF919F918F912F910F900FBEF0
:1032E0000F901F90189587E880937A000895982F83
:1032F0009F71906490937C00807280937B0080919A
:103300007A00806480937A0080917A0086FDFCCFF9
:103310002091780030917900C9010895E6EBF6E03C
:10332000119288E0EE3AF807D9F708959C0197FDCD
:1033300037C077FD35C08435910594F5603371054C
:103340007CF5CB0173E0959587957A95E1F76770E9
:10335000452B99F0E4E58E9FF0011124E20FF31F55
:10336000EA54F94F81E090E002C0880F991F6A95F6
:10337000E2F72081282B20830895E4E58E9FF00159
:103380001124E20FF31FEA54F94F81E090E002C0EC
:10339000880F991F6A95E2F7809520812823208362
:1033A00008952F923F924F925F926F927F928F92E9
:1033B0009F92AF92BF92CF92DF92EF92FF920F93C4
:1033C0001F93DF93CF93CDB7DEB72E970FB6F89448
:1033D000DEBF0FBECDBF7C016B014A0139011C87E6
:1033E0000B8784179507F9F45B0110C0C701B5017D
:1033F0004B855C850E949619C614D70424F4089462
:10340000A11CB11C03C00894A108B108C614D704BC
:103410002CF46A147B040CF4FDC0E8CFA614B704A6
:103420000CF4F8C0E3CF62177307F9F45C0110C025
:10343000C501B6014B855C850E949619E814F90414
:1034400024F40894A11CB11C03C00894A108B1087D
:10345000E814F9042CF48A149B040CF4DBC0E8CFC4
:10346000A814B9040CF4D6C0E3CF4817590724F4C4
:1034700047017A013B016901B4016E197F09882770
:1034800077FD8095982F0E94BA206F83788789876F
:103490009A87B3016C197D09882777FD8095982F4D
:1034A0000E94BA206B837C838D839E832F81388515
:1034B00049855A850E941F201B012C0120E030E025
:1034C00040E050E00E94442287FF04C057FA509425
:1034D00057F85094DA82C9820F2EF0E0AF2EF0E058
:1034E000BF2EF0E0CF2EF0E0DF2EF02D7FC0C70121
:1034F00069817A814B855C850E949619C601B50168
:10350000A20191010E94B41F3BC0C70169817A8169
:103510004B855C850E9496191E861D866B817C8179
:103520008D819E8120E030E040E050E00E94442206
:10353000181624F421E030E03E872D8700E010E0EB
:103540006B817C818D819E8120E030E040E050E005
:103550000E941820882314F401E010E08D859E85D8
:10356000801B910BE981FA81E80FF91FFA83E98347
:10357000C601B50120E030E040E85FE30E94B31FE0
:103580005B016C0120E030E040E05FE30E944422F8
:103590008823CCF06B817C818D819E8120E030E09E
:1035A00040E050E00E94442218163CF429813A8100
:1035B000621673060CF0A9CF06C089819A81861520
:1035C00097050CF0A2CF6F81788589859A8520E0D8
:1035D00030E040E050E00E944422181624F40894A1
:1035E000E11CF11C03C00894E108F1086F817885A3
:1035F00089859A8520E030E040E050E00E94442236
:10360000181624F48E149F042CF071CFE814F904DA
:103610000CF06DCF2E960FB6F894DEBF0FBECDBF67
:10362000CF91DF911F910F91FF90EF90DF90CF909E
:10363000BF90AF909F908F907F906F905F904F90D2
:103640003F902F9008954F925F926F927F928F924A
:103650009F92AF92BF92CF92DF92EF92FF920F9321
:103660001F93CF93DF933B01490125E0429FA001C7
:103670001124A5E7EA2EA1E0FA2EE40EF51E8C0136
:10368000F1E04F2E512CEAE7AE2EE1E0BE2EA40E63
:10369000B51EF70184918114910409F48095C0E06E
:1036A000D0E0C82EDD24BE01660D771DA2010C2ED0
:1036B00002C0440F551F0A94E2F74C215D210C2EE5
:1036C00002C0559547950A94E2F7C8010E949619E1
:1036D0002196C830D10539F70894E11CF11C0F5F21
:1036E0001F4FEA14FB04A9F6DF91CF911F910F91B0
:1036F000FF90EF90DF90CF90BF90AF909F908F9012
:103700007F906F905F904F900895CF92DF92EF92ED
:10371000FF920F931F93CF93DF936B017A01E9011F
:10372000082F10E008C0802F90E0B6019E010E9493
:10373000231B0B5F1F5FF701E10FF11D4081442345
:1037400091F7DF91CF911F910F91FF90EF90DF9054
:10375000CF900895CF93DF9380E060E00E941F1C1C
:10376000C6EBD6E081E069910E94BD1B88E0CE3AAD
:10377000D807C1F7DF91CF91089595B18295880F51
:10378000807E9F7D982B95B95F9827E030E070E0B0
:103790008F98CB01022E02C0959587950A94E2F787
:1037A00080FF02C02E9A01C02E988F9A215030407F
:1037B0008FEF2F3F380761F75F9A08951F93182FF7
:1037C000579A249A259A269A879A2C985F9A2C9A27
:1037D00080E061E20E94BD1B106880E0612F0E94C2
:1037E000BD1B80E064E00E94BD1B80E063E10E949D
:1037F000BD1B80E06CE00E94BD1B80E060E20E9487
:10380000BD1B80E06CE00E94BD1B80E060E40E9474
:10381000BD1B80E060E80E94BD1B1F910895CF93FF
:10382000DF93C0E0D0E081E060E00E94BD1B219604
:1038300081E0C83FD807B9F7DF91CF9108951F9372
:10384000182F606480E00E94BD1B106880E0612F2B
:103850000E94BD1B1F910895A1E1B0E0E2E3FCE1ED
:103860000C9457233C017F876E876A01FC01178205
:103870001682838181FD03C06FEF7FEF6FC39E01CE
:103880002F5F3F4F398B288BF3012381EE85FF8516
:1038900023FD859123FF8191FF87EE87882309F41B
:1038A0005AC3853251F4EE85FF8523FD859123FFB0
:1038B0008191FF87EE87853229F490E0B3010E9461
:1038C000F124E2CF982F10E0882499241032B0F42C
:1038D0009B3269F09C3228F4903251F0933271F4AB
:1038E0000BC09D3239F0903349F4116028C012604A
:1038F000146025C0186023C0106121C017FD2AC0C4
:10390000892F80538A3078F416FF06C0FAE09F9E14
:10391000902C1124980E13C03AE0839E802C112421
:10392000880E10620CC09E3221F416FD14C3106480
:1039300006C09C3611F4106802C0983659F4EE8522
:10394000FF8523FD959123FF9191FF87EE879923B2
:1039500009F0BCCF892F8554833020F4812F8061FA
:10396000905E07C0892F8556833008F09FC1812F54
:103970008F7E86FD02C076E0972E6FE3F62EF8224A
:10398000953619F4F0E4FF2A07C0963619F420E8BA
:10399000F22A02C091109A94F7FE0AC03BE339154F
:1039A00018F45CE3B52E02C0B92CB39427E009C02B
:1039B00047E0491520F4BB2447E0942EF7CF292D8A
:1039C000BB24C60104969D878C87F60160817181B6
:1039D00082819381AE014F5F5F4F0B2D0E940324C4
:1039E0006C010981202E332400FF04C003FD02C0B6
:1039F0001DE209C0F1FE02C01BE205C0F2FC02C0DC
:103A000010E001C010E2C1018C709070892BB9F1F7
:103A1000112311F483E001C084E0881510F088249C
:103A20000AC0881AF3FC07C080E290E0B3010E944C
:103A3000F1248A94C9F7112329F0812F90E0B30172
:103A40000E94F12423FE03C005EF13E00EC009EF2E
:103A500013E00BC0E114F10409F0805290E0B301CF
:103A60000E94F1240F5F1F4F05C0EF2CFF24F0E1EF
:103A7000EF22FF24F8018491882361F714C1F7FE37
:103A800012C0BC0C24FE04C08A81813309F4BA94AC
:103A90001B141CF0BB24B3942DC0F8E0FB1550F5AB
:103AA00038E0B32E27C0F6FC25C0892D90E08C1598
:103AB0009D054CF02CEFC2162FEFD20624F030E813
:103AC000F32A01C09A94992049F0E2E0F0E0EC0F6B
:103AD000FD1FE90DF11D80818033A1F3F7FE0AC0BF
:103AE000B92CB394892D90E0C816D90614F0992406
:103AF00001C09C18F7FC03C025E030E009C01C148D
:103B00001D041CF021E030E003C096012F5F3F4F01
:103B1000112311F02F5F3F4F992029F0892D90E05C
:103B20000196280F391F882D90E02817390714F0C7
:103B3000882401C0821A4F2C5524C20189709070CC
:103B4000892B39F008C080E290E0B3010E94F12493
:103B50008A948820C1F7112329F0812F90E0B301C6
:103B60000E94F12443FE07C008C080E390E0B30147
:103B70000E94F1248A948820C1F7F7FE46C086018E
:103B8000D7FE02C000E010E076010894E11CF11CB1
:103B9000E01AF10A41E050E04C0F5D1FE40EF51E03
:103BA00026014B185108892D90E0AA24BB24A81A9D
:103BB000B90A5FEF0F3F150729F48EE290E0B301D9
:103BC0000E94F124C016D10634F0401651061CF4B0
:103BD000F701808101C080E3015010400894E11C8E
:103BE000F11C0A151B052CF090E0B3010E94F12492
:103BF000E0CF0C151D0539F49A81963318F49533EE
:103C000011F424FE81E390E04BC08A81813309F0F6
:103C10000F7E90E0B3010E94F1249920A1F08EE282
:103C200090E0B3010E94F12412E0E1E0F0E0EC0F3B
:103C3000FD1FE10FF11D1F5F808190E0B3010E9425
:103C4000F1249A9491F744FC03C085E690E002C009
:103C500085E490E0B3010E94F124D7FC05C0C114B3
:103C6000D10441F404FF06C0D094C194D108D39488
:103C70008DE201C08BE290E0B3010E94F12480E369
:103C800005C08F5F26EF3FEFC20ED31E3AE0C3168A
:103C9000D104BCF790E0B3010E94F124C601C096A4
:103CA000B3010E94F124CC84DD8452C1933631F0FB
:103CB000933799F0933509F059C023C0F6018081FC
:103CC00089835E010894A11CB11C22E030E0C20E81
:103CD000D31E21E0E22EF12C12C0F601A080B180AB
:103CE00016FD03C06FEF7FEF02C0692D70E022E088
:103CF00030E0C20ED31EC5010E94E6247C011F776E
:103D000013C0F601A080B18016FD03C06FEF7FEFF6
:103D100002C0692D70E022E030E0C20ED31EC50162
:103D20000E94DB247C01106813FF07C01BC080E2E7
:103D300090E0B3010E94F1248A94882D90E0E81667
:103D4000F906A8F30FC0F50117FD859117FF8191C2
:103D50005F0190E0B3010E94F12481108A940894DD
:103D6000E108F108E114F10471F7F2C0943611F0A2
:103D7000993689F517FF08C0F6012081318142810B
:103D8000538184E090E00AC0F601808191819C011A
:103D9000442737FD4095542F82E090E0C80ED91E8D
:103DA0009FE6F92EF12257FF09C0509540953095B6
:103DB00021953F4F4F4F5F4F90E8F92ACA01B90153
:103DC000AE014F5F5F4F2AE030E00E944725E82EAA
:103DD000E889EE1A41C0953721F41F7E2AE030E0D1
:103DE0001CC0197F9F3661F0903720F4983509F098
:103DF000B2C00FC0903739F0983709F0ACC004C09A
:103E000028E030E00AC0106114FD146020E130E0C9
:103E100004C014FD166020E132E017FF08C0F6016F
:103E2000608171818281938144E050E008C0F60195
:103E300080819181BC0180E090E042E050E0C40EBE
:103E4000D51EAE014F5F5F4F0E944725E82E58896F
:103E5000E51A8FE7F82EF122F6FE0BC08EEFF8225E
:103E6000E91438F4F4FE07C0F2FC05C09FEEF92215
:103E700002C01E2D01C0192DF4FE0DC0FE01EE0D75
:103E8000F11D8081803319F4E9EEFE2208C01F5F26
:103E9000F2FE05C003C08F2D867809F01F5F0F2D3D
:103EA000F3FC14C0F0FE0FC0181510F09E2C0BC0D0
:103EB0009E2C980C911A182D06C080E290E0B30158
:103EC0000E94F1241F5F1815C0F304C0181510F4E8
:103ED000811A01C0882404FF0FC080E390E0B30181
:103EE0000E94F12402FF1DC001FD03C088E790E09D
:103EF0000EC088E590E00BC0802F867891F001FF1E
:103F000002C08BE201C080E2F7FC8DE290E0B301D9
:103F10000E94F12406C080E390E0B3010E94F124E6
:103F20009A94E914C0F3EA94E1E0F0E0EC0FFD1F8D
:103F3000EE0DF11D808190E0B3010E94F124EE208E
:103F400091F706C080E290E0B3010E94F1248A94C8
:103F50008820C1F799CCF30166817781CB01619606
:103F6000E2E10C9473235058BB27AA270ED02AC233
:103F7000F3D130F0F8D120F031F49F3F11F41EF46A
:103F8000E8C10EF4E095E7FBB5C1E92F3DD280F31F
:103F9000BA17620773078407950718F071F49EF546
:103FA0006CC20EF4E0950B2EBA2FA02D0B01B901B7
:103FB00090010C01CA01A0011124FF27591B99F09F
:103FC000593F50F4503E68F11A16F040A22F232FAB
:103FD000342F4427585FF3CF469537952795A795FB
:103FE000F0405395C9F77EF41F16BA0B620B730BA2
:103FF000840BBAF09150A1F0FF0FBB1F661F771F13
:10400000881FC2F70EC0BA0F621F731F841F48F4C7
:10401000879577956795B795F7959E3F08F0B3CF4D
:104020009395880F08F09927EE0F97958795089537
:104030003DD108F481E008959ED1E395D4C10CD020
:10404000C1C191D140F088D130F021F45F3F19F027
:1040500051C1511113C27DC1D7D198F39923C9F32E
:104060005523B1F3951B550BBB27AA27621773077E
:10407000840738F09F5F5F4F220F331F441FAA1F32
:10408000A9F333D00E2E3AF0E0E830D091505040F2
:10409000E695001CCAF729D0FE2F27D0660F771FA0
:1040A000881FBB1F261737074807AB07B0E809F082
:1040B000BB0B802DBF01FF2793585F4F2AF09E3F17
:1040C000510568F017C1DAC15F3FECF3983EDCF3AD
:1040D000869577956795B795F7959F5FC9F7880F90
:1040E000911D9695879597F90895E1E0660F771FE2
:1040F000881FBB1F621773078407BA0720F0621B73
:10410000730B840BBA0BEE1F88F7E095089504D06B
:104110006894B111B3C108957FD188F09F5790F092
:10412000B92F9927B751A0F0D1F0660F771F881FDC
:10413000991F1AF0BA95C9F712C0B13081F09DD11C
:10414000B1E008959AC1672F782F8827B85F39F0BA
:10415000B93FCCF3869577956795B395D9F73EF43B
:1041600090958095709561957F4F8F4F9F4F0895E3
:10417000E89409C097FB3EF4909580957095619501
:104180007F4F8F4F9F4F9923A9F0F92F96E9BB27B7
:104190009395F695879577956795B795F111F8CF33
:1041A000FAF4BB0F11F460FF1BC06F5F7F4F8F4F9E
:1041B0009F4F16C0882311F096E911C0772321F094
:1041C0009EE8872F762F05C0662371F096E8862F2C
:1041D00070E060E02AF09A95660F771F881FDAF783
:1041E000880F9695879597F9089530D180F09F377D
:1041F00040F491110EF042C160E070E080E89FEB66
:10420000089526F41B16611D711D811D79C093C090
:10421000A3D018F011F0A7D038F49BC02FC1E92F1C
:10422000F3D0B0F35523C9F3E7FB62177307840794
:104230009507A8F199F3E92FFF2788232AF03197F2
:10424000660F771F881FDAF7952F5527442332F022
:1042500091505040220F331F441FD2F7BB27E91B58
:10426000F50B621B730B840BB109C1F222F4620FD0
:10427000731F841FB11D31972AF0660F771F881FA7
:10428000BB1FEFCF915050405AF041F0882332F0DD
:10429000660F771F881F91505040C1F793954BC010
:1042A0008695779567959F5FD9F7F8CF990F0008A6
:1042B000550FAA0BE0E8FEEF16161706E807F907F8
:1042C000C0F012161306E407F50798F0621B730B93
:1042D000840B950B39F40A2661F0232B242B252B14
:1042E00021F408950A2609F4A140A6958FEF811DB7
:1042F000811D089597F99F6780E870E060E0089558
:10430000882371F4772321F09850872B762F07C0EC
:10431000662311F499270DC09051862B70E060E060
:104320002AF09A95660F771F881FDAF7880F9695FF
:10433000879597F908959F3F31F0915020F4879524
:1043400077956795B795880F911D9695879597F9FD
:1043500008959FEF80EC089500240A94161617061E
:1043600018060906089500240A9412161306140666
:1043700005060895EECF50D0E8F3E894E0E0BB27BF
:104380009F57F0F02AED3FE049EC06C0EE0FBB0F5F
:10439000661F771F881F28F0B23A620773078407E9
:1043A00028F0B25A620B730B840BE3959A9572F75F
:1043B000803830F49A95BB0F661F771F881FD2F79D
:1043C0009048BBCF092E0394000C11F4882352F0BF
:1043D000BB0F40F4BF2B11F460FF04C06F5F7F4F31
:1043E0008F4F9F4F0895EF93E0FF06C0A2EA2AED9A
:1043F0003FE049EC5FEBC9DDE5DF0F90039401FC82
:104400009058EEE2F1E0CDC057FD9058440F551F93
:1044100059F05F3F71F04795880F97FB991F61F046
:104420009F3F79F087950895121613061406551FBD
:10443000F2CF4695F1DF08C0161617061806991F29
:10444000F1CF86957105610508940895E5DFA0F028
:10445000BEE7B91788F4BB279F3860F41616B11D64
:10446000672F782F8827985FF7CF86957795679580
:10447000B11D93959639C8F30895E894BB27662734
:104480007727CB0197F9089511DF08F48FEF08958E
:104490000BD098CF61DF28F066DF18F0952309F084
:1044A00029CF57CF1124EACFAFDFA0F3959FD1F3E7
:1044B000950F50E0551F629FF001729FBB27F00DD2
:1044C000B11D639FAA27F00DB11DAA1F649F662727
:1044D000B00DA11D661F829F2227B00DA11D621F76
:1044E000739FB00DA11D621F839FA00D611D221F30
:1044F000749F3327A00D611D231F849F600D211D14
:10450000822F762F6A2F11249F5750408AF0E1F0B6
:1045100088234AF0EE0FFF1FBB1F661F771F881FFF
:1045200091505040A9F79E3F510570F0E3CEA6CFC1
:104530005F3FECF3983EDCF3869577956795B795EA
:10454000F795E7959F5FC1F7FE2B880F911D969514
:10455000879597F9089560DFE0F09E37D8F0963997
:10456000B8F49E3848F4672F782F8827985FF9CFE2
:1045700086957795679593959539D0F3B62FB17059
:104580006B0F711D811D20F4879577956795939525
:10459000B7CED1CE73CF9F93EEDE0F9007FCEE5FC8
:1045A00022CF9F938F937F936F93FF93EF939B0102
:1045B000AC016EDFEF91FF9105D02F913F914F91AC
:1045C0005F9166CFDF93CF931F930F93FF92EF928C
:1045D000DF927B018C01689405C0DA2EEF0164DF65
:1045E000FE01E894A5912591359145915591AEF341
:1045F000EF01CBDCFE019701A801DA9479F7DF9097
:10460000EF90FF900F911F91CF91DF91089597FB4D
:10461000092E07260AD077FD04D080D006D00020CE
:104620001AF4709561957F4F0895F6F790958195EE
:104630009F4F0895A1E21A2EAA1BBB1BFD010DC0BE
:10464000AA1FBB1FEE1FFF1FA217B307E407F50742
:1046500020F0A21BB30BE40BF50B661F771F881F1E
:10466000991F1A9469F760957095809590959B01B4
:10467000AC01BD01CF01089597FB092E05260ED090
:1046800057FD04D0D7DF0AD0001C38F45095409570
:10469000309521953F4F4F4F5F4F0895F6F7909516
:1046A0008095709561957F4F8F4F9F4F08952F9202
:1046B0003F924F925F926F927F928F929F92AF92B2
:1046C000BF92CF92DF92EF92FF920F931F93CF93FF
:1046D000DF93CDB7DEB7CA1BDB0B0FB6F894DEBF96
:1046E0000FBECDBF09942A88398848885F846E84BC
:1046F0007D848C849B84AA84B984C884DF80EE8006
:10470000FD800C811B81AA81B981CE0FD11D0FB60E
:10471000F894DEBF0FBECDBFED010895AA1BBB1BF1
:1047200051E107C0AA1FBB1FA617B70710F0A61BB1
:10473000B70B881F991F5A95A9F780959095BC01D2
:10474000CD010895A0E0B0E0E8EAF3E20C945F2325
:10475000EC01A880B980CA80DB80A114B104C10437
:10476000D10441F484E2A82E89EDB82E8BE5C82E41
:1047700087E0D82EC601B5012DE133EF41E050E0CE
:104780000E943C2327EA31E440E050E00E94A52546
:104790007B018C01C601B5012DE133EF41E050E012
:1047A0000E943C23CA01B9012CEE34EF4FEF5FEFBA
:1047B0000E94A5256E0D7F1D801F911F97FF04C0CD
:1047C0006150704080409048688379838A839B83DE
:1047D0009B013F77C901CDB7DEB7EAE00C947B239C
:1047E0000E94A223089587EF93E00E94A2230895D8
:1047F000A0E0B0E08093F7039093F803A093F9034F
:10480000B093FA030895283008F027E03327DA013F
:10481000990F311D87FD916000966105710539F48E
:1048200032602E5F3D9330E32A95E1F708959F3F74
:1048300030F080387105610509F03C5F3C5F3D93C5
:10484000913008F08068911DDF93CF931F930F93F1
:10485000FF92EF92192F987F9695E92F969596954E
:10486000E90FFF27E95AFB4F99273327EE24FF244E
:10487000A701E70105900894079428F4360FE71E76
:10488000F81E491F511D660F771F881F991F069438
:10489000A1F70590079428F4E70EF81E491F561F4C
:1048A000C11D770F881F991F661F0694A1F70590F9
:1048B000079428F4F80E491F561FC71FD11D880FF3
:1048C000991F661F771F0694A1F70590079420F49F
:1048D000490F561FC71FD81F990F661F771F881FC4
:1048E0000694A9F784911095177041F0D695C79555
:1048F00057954795F794E7941A95C1F7EDEFF3E0D4
:1049000068941590159135916591959105907FE288
:104910007395E118F10A430B560BC90BD009C0F788
:10492000E10CF11E431F561FC91FD01D7EF47033CA
:1049300011F48A95E6CFE894015030F0080F0AF49C
:104940000027021708F4202F2395022F7A3328F02E
:1049500079E37D932A95E9F710C07D932A9589F62E
:10496000069497956795379517951794E118F10A6E
:10497000430B560BC90BD00998F023957E91739584
:104980007A3308F070E37C932013B8F77E9170615E
:104990007D9330F0839571E37D9370E32A95E1F781
:1049A0001124EF90FF900F911F91CF91DF919927E4
:1049B00087FD90950895FC010590615070400110AD
:1049C000D8F7809590958E0F9F1F0895FC01615038
:1049D000704001900110D8F7809590958E0F9F1F21
:1049E00008950F931F93CF93DF938C01EB018B817D
:1049F00081FF1BC082FF0DC02E813F818C819D8174
:104A00002817390764F4E881F9810193F983E88371
:104A100006C0E885F985802F0995892B31F48E81B0
:104A20009F8101969F838E8302C00FEF1FEFC80105
:104A3000DF91CF911F910F910895AEE0B0E0E3E2D6
:104A4000F5E20C9465238C0177FF02C060E070E80A
:104A5000615070407E836D831A83098386E08C8366
:104A6000CE010196BA01A9010E942C1C2D813E8124
:104A700037FD09C0EF81F8852E173F070CF4F901C7
:104A8000E00FF11F10822E96E4E00C948123FA01CE
:104A9000AA27283051F1203181F1E8946F936E7F7D
:104AA0006E5F7F4F8F4F9F4FAF4FB1E03ED0B4E06E
:104AB0003CD0670F781F891F9A1FA11D680F791FAF
:104AC0008A1F911DA11D6A0F711D811D911DA11DC0
:104AD00020D009F468943F912AE0269F11243019D0
:104AE000305D3193DEF6CF010895462F4770405D6B
:104AF0004193B3E00FD0C9F7F6CF462F4F70405D1A
:104B00004A3318F0495D31FD4052419302D0A9F774
:104B1000EACFB4E0A6959795879577956795BA956E
:104B2000C9F700976105710508959B01AC010A2E34
:104B300006945795479537952795BA95C9F7620F0B
:104B4000731F841F951FA01D0895629FD001739F3E
:104B5000F001829FE00DF11D649FE00DF11D929F19
:104B6000F00D839FF00D749FF00D659FF00D992758
:104B7000729FB00DE11DF91F639FB00DE11DF91F7C
:0C4B8000BD01CF0111240895F894FFCF6F
:104B8C000D0A436F6E74726F6C73200D0A202761CF
:104B9C002720E28093206D6F7665207370616365CA
:104BAC0073686970206C656674200D0A2027642771
:104BBC0020E28093206D6F7665207370616365735E
:104BCC0068697020726967687420200D0A20277745
:104BDC002720E28093206669726520706C61736D8A
:104BEC006120626F6C747320200D0A2027732720BC
:104BFC00E280932073656E64202F646973706C611E
:104C0C00792073746174757320200D0A2027722724
:104C1C0020E28093207374617274202F207265736C
:104C2C0065742027702720E280932070617573656E
:104C3C0020200D0A2027712720E2809320717569AE
:104C4C00742027742720E280932073657420616997
:104C5C006D282D363020746F2036302920200D0A17
:104C6C0020276D2720E28093207365742073706574
:104C7C006564283020746F2031302920200D0A20E3
:104C8C00276C2720E2809320736574206C6966651D
:104C9C0020200D0A2027672720E28093207365745B
:104CAC002073636F726520200D0A20273F2720E2B6
:104CBC008093207072696E7420636F6E74726F6C67
:104CCC007320200D0A2027682720E2809320737020
:104CDC006163657368697020746F20636F6F7264B1
:104CEC0020200D0A20276A2720E28093206173740C
:104CFC0065726F696420746F20636F6F726420201B
:104D0C000D0A20276B2720E2809320626F756C645C
:104D1C00657220746F20636F6F726420200D0A20FF
:104D2C0027692720E2809320667261676D656E7437
:104D3C0020746F20636F6F726420200D0A0D0A209F
:104D4C00000A0D47616D65205374617274210A0D60
:104D5C00000A0D54696D653A20253032643A2530CD
:104D6C0032640A0D4C6966653A2025640A0D53635A
:104D7C006F72653A2025640A0D41737465726F6910
:104D8C00643A2025640A0D426F756C6465723A2092
:104D9C0025640A0D467261676D656E74733A202541
:104DAC00640A0D426F6C74733A2025640A0D4169D4
:104DBC006D3A2025640A0D53706565643A202566AA
:104DCC000A0A0047616D65204F76657221000A0D55
:104DDC0047616D65204F766572210A0D00546F2076
:104DEC007175697420707265737320277127005474
:104DFC006F207265736574207072657373202772EF
:104E0C00270054696D653A20253032643A253032DA
:104E1C0064004C6966653A2025640053636F7265C3
:104E2C003A202564006E313033353339353000414A
:104E3C00737465726F69640041706F63616C797033
:104E4C007365006E31303335333935300001181845
:104E5C000849495D7F5D4108001C003E001C0008AC
:104E6C000008001C0008001818081C3E7F3E1C0897
:0C4E7C0000E10000000008010000000040
:00000001FF
