:100000000C947C020C9499020C9499020C94990221
:100010000C9499020C9499020C9499020C949902F4
:100020000C9499020C9499020C942F180C946A1851
:100030000C9499020C9499020C9499020C949902D4
:100040000C9499020C9499020C9499020C949902C4
:100050000C9499020C9499020C9499020C949B02B2
:100060000C9499020C94611A0C94361A0C9499020F
:100070000C9499020C9499020C9499020C94990294
:100080000C9499020C9499020C9499020C94D3024A
:100090000C9499020C9499020C9499020C94990274
:1000A0000C9499020C9499020C949902C417C117EC
:1000B000BE17BB17B817B517B217AF17AC17A917EC
:1000C000A617A317A0179D179A179717941791179C
:1000D0008E178B178817851782177F177C1779174C
:1000E0007617731770176D176A17671764176117FC
:1000F0005E175B175817551752174F174C174917AC
:100100004617431740173D173A173717341731175B
:100110002E172B172817251722171F171C1719170B
:100120001617131710170D170A170717041705A826
:100130004CCDB2D44EB93836A9020C50B99186884C
:10014000083CA6AAAA2ABE000000803F00010000C9
:100150008001120002000092014300030000D5015B
:100160000401030904D9011402030904EF01160371
:1001700003090407020C0001C11201803601813617
:100180001201000202000010C0167A0400010102F0
:10019000030109024300020100C03209040000010A
:1001A00002020100052400100105240101010424BC
:1001B0000206052406000107058203100040090419
:1001C0000100020A000000070503024000000705C5
:1001D000840240000004030904140359006F0075F1
:1001E00000720020004E0061006D006500000016E6
:1001F000035500530042002000530065007200695F
:100200000061006C0000000C033100320033003448
:100210000035000000000000000000005F0000004A
:1002200007000700147F147F14242A7F2A12231347
:1002300008646236495522500005030000001C2264
:1002400041000041221C0014083E081408083E0822
:10025000080050300000080808080800606000002E
:1002600020100804023E5149453E00427F400042B2
:10027000615149462141454B311814127F102745E1
:100280004545393C4A494930017109050336494918
:100290004936064949291E00363600000056360008
:1002A00000081422410014141414140041221408EC
:1002B0000201510906324979413E7E1111117E7FBA
:1002C000494949363E414141227F4141221C7F49F3
:1002D0004949417F090909013E4149497A7F080896
:1002E000087F00417F41002040413F017F081422E8
:1002F000417F404040407F020C027F7F0408107F16
:100300003E4141413E7F090909063E4151215E7F40
:1003100009192946464949493101017F01013F40F8
:1003200040403F1F2040201F3F4038403F6314089B
:10033000146307087008076151494543007F414134
:100340000002040810200041417F00040201020461
:100350004040404040000102040020545454787F43
:10036000484444383844444420384444487F38544E
:10037000545418087E0901020C5252523E7F080460
:10038000047800447D40002040443D007F10284414
:100390000000417F40007C041804787C0804047845
:1003A00038444444387C14141408081414187C7C11
:1003B000080404084854545420043F4440203C405E
:1003C00040207C1C2040201C3C4030403C442810F5
:1003D00028440C5050503C4464544C44000836416E
:1003E0000000007F000000413608001008081008D7
:1003F00078464146786E616E00696E660000407A0C
:1004000010F35A00A0724E18090010A5D4E800009D
:10041000E87648170000E40B54020000CA9A3B003B
:100420000000E1F505000080969800000040420FB2
:10043000000000A08601000000102700000000E876
:1004400003000000006400000000000A000000003B
:10045000000100000000002C76D888DC674F0823DC
:10046000DFC1DFAE59E1B1B796E5E3E453C63AE642
:1004700051997696E8E6C28426EB898C9B62ED4022
:100480007C6FFCEFBC9C9F40F2BAA56FA5F4900571
:100490005A2AF75C936B6CF9676DC11BFCE0E40DA5
:1004A00047FEF520E6B500D0ED902E030094357799
:1004B000050080841E080000204E0A000000C80CC1
:1004C000333333330F986E12831141EF8D2114892A
:1004D0003BE65516CFFEE6DB18D1844B381BF77C84
:1004E0001D901DA4BBE424203284725E228100C9C9
:1004F000F124ECA1E53D270011241FBECFEFDAE087
:10050000DEBFCDBF13E0A0E0B1E0E6EBFDE402C04A
:1005100005900D92A23FB107D9F718E0A2EFB3E022
:1005200001C01D92A43AB107E1F70E94AE150C94E8
:10053000D9260C9400001F920F920FB60F9211242F
:100540002F933F934F935F936F937F938F939F93DB
:10055000AF93BF93EF93FF936091F2037091F30316
:100560008091F4039091F5032DEB37E346E05CE3D3
:100570000E94C9206093F2037093F3038093F40305
:100580009093F503FF91EF91BF91AF919F918F9160
:100590007F916F915F914F913F912F910F900FBE7F
:1005A0000F901F9018951F920F920FB60F92112463
:1005B0008F939F93AF93BF938091FE059091FF051A
:1005C000A0910006B09101060196A11DB11D809376
:1005D000FE059093FF05A0930006B0930106BF911E
:1005E000AF919F918F910F900FBE0F901F90189514
:1005F0001092900082E08093910081E080937100DE
:100600000895AF92BF92CF92DF92EF92FF920F9335
:100610001F93E0909400F09095006091FE0570911A
:10062000FF0580910006909101060E94CD2120E0F7
:1006300030E040E857E40E945D235B016C0100E07C
:1006400010E0C801B7010E94CD219B01AC01C60199
:10065000B5010E94C92020E030E040E051E40E9452
:100660005D2320E034E244EF5AE40E9434211F91DC
:100670000F91FF90EF90DF90CF90BF90AF900895D3
:100680001092FE051092FF051092000610920106CE
:100690000895519821985098279820980895869801
:1006A00085980895229A239A089583E08093BF0045
:1006B0008FEF8093D10082E88093C0003F9A87E05B
:1006C0008093C1001092C30008950E944903869848
:1006D0008598229A239A0E94550308958091C30316
:1006E00008951092C30308952F923F924F925F9204
:1006F0006F927F928F929F92AF92BF92CF92DF9232
:10070000EF92FF920F931F93DF93CF93CDB7DEB796
:1007100028970FB6F894DEBF0FBECDBF9A838983AA
:100720001B013A0129016D8D7E8D88279927821939
:1007300093099C01249FC001259F900D349F900D2B
:100740001124E981FA818E1B9F0B080F191F88273E
:1007500099278C199D099C012A9DC0012B9D900D04
:100760003A9D900D11248E199F09680F791FA0E002
:10077000B0E0E40FF51FFC83EB83420C531CC50172
:100780008E0D9F1D9E838D838C0C9D1C35C0E98131
:10079000FA81AE17BF07ECF08F819885821593051B
:1007A000C4F0F90180818823A1F0AE15BF058CF05B
:1007B0008D819E81A817B90764F4EF81F885EC1547
:1007C000FD053CF0E815F90524F4FA018081882341
:1007D000F9F48F819885019698878F834A0D5B1D68
:1007E000260D371DEF81F885E415F50584F2119685
:1007F0000F5F1F4F6F5F7F4F2B813C81A217B307A5
:1008000014F080E006C0AB01980118861F82EACF81
:1008100081E028960FB6F894DEBF0FBECDBFCF9112
:10082000DF911F910F91FF90EF90DF90CF90BF90DD
:10083000AF909F908F907F906F905F904F903F9080
:100840002F90089580917A0690917B0608952091CB
:100850007A0630917B06280F391F30937B06209350
:100860007A06089590937B0680937A060895809186
:100870008005909181050895809180059091810572
:100880000197909381058093800508959093810549
:100890008093800508958091FC0508958091FC0562
:1008A00091E089278093FC0508958091770608954B
:1008B0008091770691E0892780937706089580914B
:1008C000FD05089581E08093FD05089581E0809302
:1008D000FC05109277061092FD0510927B0610928F
:1008E0007A0685E090E090938105809380050895D5
:1008F000292F332727FD3A952093BF008093CF00FF
:10090000089585B5846085BD81E080936E007894FC
:10091000089585E290E090938B0480938A0489E2A5
:1009200090E090937906809378061092FB051092E0
:10093000FA050895282F83B1869580FD02C02136DF
:1009400049F48091FA059091FB05892B19F48FEFFA
:100950009FEF0CC0489902C0243669F48091FA05D3
:100960009091FB05892B39F481E090E09093FB0591
:100970008093FA051BC083B1869580FD02C02136A5
:1009800031F48091FA059091FB05019759F048994F
:1009900002C0243659F48091FA059091FB058F5FCF
:1009A0009F4F21F41092FB051092FA0580918A0462
:1009B00090918B048A3491054CF01092FB051092B3
:1009C000FA05019790938B0480938A0480918A049E
:1009D00090918B04823091054CF41092FB0510929B
:1009E000FA05019690938B0480938A04089580E021
:1009F0000E949A048091FA059091FB052FEF8F3F9A
:100A0000920751F480918A0490918B0401979093FE
:100A10008B0480938A040895019749F480918A0495
:100A200090918B04019690938B0480938A0408958F
:100A30008091FA059091FB05089580918A04909128
:100A40008B0408958091780690917906089580919D
:100A50007C0590917D050895ECE8F4E080E090E05D
:100A6000A0E2B1EC80839183A283B38384839583D6
:100A7000A683B78380879187A287B3873C9625E0BA
:100A8000EC37F20779F708950F931F93CF93DF9315
:100A9000C0E9D4E000E010E0688179818A819B811F
:100AA00020E030E040E050E00E942D21181614F0C4
:100AB0000F5F1F4F2C9685E0C038D80769F724E1F7
:100AC00030E0201B310BC901DF91CF911F910F91B5
:100AD0000895CF92DF92EF92FF920F931F93CF93DF
:100AE000DF937CE8C72E74E0D72EC0E0D0E0F6019B
:100AF000648175818681978120E030E040E050E09C
:100B00000E942D2187FD1AC0F601E080F18002814C
:100B10001381C801B70120E030E040E050E00E94BE
:100B20002D2187FD0BC0C801B70120E030E048EA65
:100B300052E40E94592318160CF056C00E9401037B
:100B400020E030E040E050E00E94592318160CF0FD
:100B50004BC08E01000F111F0C0F1D1F000F111F26
:100B6000000F111F4CE8E42E44E0F42EE00EF11EBD
:100B700060918A0470918B04882777FD8095982F67
:100B80000E94CF21F7016083718382839383005792
:100B90001B4F6091780670917906882777FD8095C4
:100BA000982F0E94CF21F801608371838283938301
:100BB00060917C0570917D0580917E0590917F0507
:100BC00068597E4F8F4F9F4F28E631E040E050E05C
:100BD0000E9451240E94CF21F7016087718782878C
:100BE00093870E94010309C021968CE090E0C80E13
:100BF000D91EC431D10509F07ACFDF91CF911F9171
:100C00000F91FF90EF90DF90CF900895FC01EE0FD1
:100C1000FF1FE80FF91FEE0FFF1FEE0FFF1FE45736
:100C2000FB4F2081318142815381B901CA0108956E
:100C3000FC01EE0FFF1FE80FF91FEE0FFF1FEE0F75
:100C4000FF1FE057FB4F2081318142815381B90161
:100C5000CA0108950F931F939B018C01000F111F70
:100C6000080F191F000F111F000F111F04571B4FF2
:100C7000442737FD4095542FCA01B9010E94CF2166
:100C8000F80160837183828393831F910F9108958C
:100C90000F931F939B018C01000F111F080F191F49
:100CA000000F111F000F111F00571B4F442737FD66
:100CB0004095542FCA01B9010E94CF21F8016083E9
:100CC0007183828393831F910F910895FC01EE0F2E
:100CD000FF1FE80FF91FEE0FFF1FEE0FFF1FEA596E
:100CE000FB4F60817181828193810E949C21CB01A5
:100CF0000895FC01EE0FFF1FE80FF91FEE0FFF1F15
:100D0000EE0FFF1FE659FB4F608171818281938155
:100D10000E949C21CB010895CF93DF93C0E0D0E0E7
:100D200060916604709167048091680490916904F1
:100D300020E030E040E050E00E942D21882314F4B0
:100D4000C1E0D0E0609172047091730480917404EA
:100D50009091750420E030E040E050E00E942D21A9
:100D600088230CF4219660917E0470917F04809119
:100D700080049091810420E030E040E050E00E9447
:100D80002D2188230CF4219623E030E02C1B3D0B11
:100D9000C901DF91CF910895E2E0F6E040E050E034
:100DA0008081918197FF02C04F5F5F4F369686E04A
:100DB000E632F807A9F726E030E0241B350BC9011D
:100DC0000895FC01EE0FFF1FE80FF91FEE0FFF1F44
:100DD000EE5FF94F808191810895FC01EE0FFF1FB6
:100DE000E80FF91FEE0FFF1FEC5FF94F8081918133
:100DF0000895ECE7F6E040E050E08081918197FFB4
:100E000002C04F5F5F4F349686E0EC3AF807A9F7CF
:100E10002CE030E0241B350BC9010895FC01EE0FD6
:100E2000FF1FEE0FFF1FE458F94F80819181089555
:100E3000FC01EE0FFF1FEE0FFF1FE258F94F8081FC
:100E400091810895EF92FF920F931F930F2EF0E080
:100E5000EF2EF0E0FF2EF8EA0F2FF2EC1F2FF02D0F
:100E6000E0926604F09267040093680410936904AA
:100E700020E030E040E452EC20936A0430936B04AD
:100E800040936C0450936D0480E090E0A0E0B0E0EB
:100E900080936E0490936F04A0937004B0937104D8
:100EA000E0927204F092730400937404109375043A
:100EB0002093760430937704409378045093790418
:100EC00080937A0490937B04A0937C04B0937D0478
:100ED000E0927E04F0927F040093800410938104DA
:100EE00020938204309383044093840450938504B8
:100EF0008093860490938704A0938804B093890418
:100F0000E2E0F6E02CEA3FEF80ED9FEF31832083B3
:100F10009383828315821482369646E0E632F40784
:100F2000A9F7ECE7F6E02CEA3FEF80ED9FEF318385
:100F300020839383828315821482349646E0EC3AB0
:100F4000F407A9F71F910F91FF90EF900895EF928A
:100F5000FF920F931F93009739F56091660470918B
:100F6000670480916804909169040E949C217B0130
:100F70008C01709303066093020660916A0470917D
:100F80006B0480916C0490916D040E949C2170937D
:100F9000050660930406F0920906E0920806709335
:100FA0000B0660930A0652C08130910539F56091B5
:100FB00072047091730480917404909175040E947E
:100FC0009C217B018C0170930F0660930E0660914B
:100FD00076047091770480917804909179040E944E
:100FE0009C217093110660931006F0921506E09212
:100FF0001406709317066093160628C0029731F501
:1010000060917E0470917F048091800490918104AE
:101010000E949C217B018C0170931B0660931A0631
:10102000609182047091830480918404909185047E
:101030000E949C2170931D0660931C06F09221066D
:10104000E092200670932306609322061F910F9171
:10105000FF90EF9008950097C9F420910206309117
:10106000030630937D0620937C06809104069091C0
:10107000050690937F0680937E0630938106209329
:1010800080069093830680938206089581309105AF
:1010900009F580910E0690910F0690938506809336
:1010A0008406809110069091110690938706809394
:1010B0008606809108069091090690938906809390
:1010C000880680910A0690910B0690938B06809378
:1010D0008A0608958230910509F58091080690915D
:1010E000090690938D0680938C0680910A06909154
:1010F0000B0690938F0680938E0680910E0690913A
:101100000F0690939106809390068091100690911F
:10111000110690939306809392060895833091056B
:1011200009F58091080690910906909395068093A1
:10113000940680910A0690910B06909397068093EF
:10114000960680910E0690910F06909399068093D3
:101150009806809110069091110690939B068093BB
:101160009A06089584309105C9F420911A063091A9
:101170001B0630939D0620939C0680911C0690913F
:101180001D0690939F0680939E063093A1062093A0
:10119000A0069093A3068093A20608950597C1F434
:1011A00020912006309121063093A5062093A406B5
:1011B00080912206909123069093A7068093A6061D
:1011C0003093A9062093A8069093AB068093AA06B5
:1011D0000895813621F4CB010E94A7070895823635
:1011E00019F4CB010E942B080895CF93DF93C0E040
:1011F000D0E0CE0167E270E041E00E94AB1A229697
:10120000C635D105B1F7DF91CF910895AF92BF9266
:10121000CF92DF92EF92FF920F931F93CF93DF93C2
:1012200040EDC42E43E0D42E00E010E0880F991F5B
:10123000880F991F2CE7A22E26E0B22EA80EB91E09
:101240007C018EE796E0E80EF91E25C0F60180814C
:1012500091810C2E02C0959587950A94E2F780FF44
:101260000DC0F50180819181F70160817181600F6E
:10127000711F8C0F9D1F41E00E94AB1A2196C73051
:10128000D10521F70F5F1F4F82E090E0C80ED91EF5
:101290000330110519F0C0E0D0E0D8CFDF91CF9135
:1012A0001F910F91FF90EF90DF90CF90BF90AF9084
:1012B0000895AF92BF92CF92DF92EF92FF920F9379
:1012C0001F93CF93DF93F6ECCF2EF3E0DF2E00E0F9
:1012D00010E09C01220F331F280F391F220F331FEC
:1012E00062E0A62E66E0B62EA20EB31E790184E05F
:1012F00096E0E80EF91E25C0F601808191810C2E42
:1013000002C0959587950A94E2F780FF0DC0F5011C
:1013100080819181F70160817181600F711F8C0F55
:101320009D1F41E00E94AB1A2196C730D10521F7DD
:101330000F5F1F4F82E090E0C80ED91E05301105E7
:1013400019F0C0E0D0E0D8CFDF91CF911F910F917D
:10135000FF90EF90DF90CF90BF90AF9008952F92C5
:101360003F924F925F926F927F928F929F92AF9235
:10137000BF92CF92DF92EF92FF920F931F93CF9382
:10138000DF93CC24DD249C01220F331F280F391F4B
:10139000220F331F220F331F16E6212E14E0312EA9
:1013A000220E331E59018AE694E0A80EB91E3CC0F5
:1013B000F201808190E00C2E02C0959587950A94E9
:1013C000E2F780FF26C0BE01882777FD8095982F21
:1013D0000E94CF21F10120813181428153810E94FD
:1013E000C9200E949C217B018C01C401B3010E9491
:1013F000CF21F50120813181428153810E94C92092
:101400000E949C219B01AC01C701B90141E00E94EF
:10141000AB1A2196C730D10559F60894C11CD11CCE
:10142000F7E0CF16D10471F0C0E0D0E0A8ED4A2E6D
:10143000A3E05A2E4C0C5D1C3601882477FC809466
:10144000982CB6CFDF91CF911F910F91FF90EF9025
:10145000DF90CF90BF90AF909F908F907F906F90D4
:101460005F904F903F902F900895CF93DF9380E04F
:1014700090E00E94AF0981E090E00E94AF0982E015
:1014800090E00E94AF09C0E0D0E0CE010E9459096F
:101490002196C630D105C9F7C0E0D0E0CE010E9448
:1014A00006092196CC30D105C9F7DF91CF91089577
:1014B0004F925F926F927F928F929F92AF92BF9264
:1014C000CF92DF92EF92FF920F931F93CF93DF9310
:1014D0006CE8A62E64E0B62E53C0F201808190E045
:1014E0000C2E02C0959587950A94E2F780FF26C0DE
:1014F000BE01882777FD8095982F0E94CF21F501A6
:1015000020813181428153810E94C9200E949C2107
:101510007B018C01C401B3010E94CF21F50124811C
:101520003581468157810E94C9200E949C219B01E0
:10153000AC01C701B90141E00E94AB1A2196C73046
:10154000D10559F60894C11CD11CF2E0CF16D10484
:1015500071F0C0E0D0E054EC452E53E0552E4C0C19
:101560005D1C3601882477FC8094982CB6CF8CE0E3
:1015700090E0A80EB91E9CE7A91695E0B90619F0EF
:10158000CC24DD24E6CFDF91CF911F910F91FF9006
:10159000EF90DF90CF90BF90AF909F908F907F9013
:1015A0006F905F904F900895EF92FF920F931F936B
:1015B000CF93DF9300E010E021C0C7010C2E02C0E2
:1015C000959587950A94E2F780FF0FC080918A0471
:1015D00090918B046091780670917906600F711F6D
:1015E0008C0F9D1F41E00E94AB1A2196C730D10598
:1015F00021F70F5F1F4F0730110549F0F801E15245
:10160000FC4F8081E82EFF24C0E0D0E0D6CFDF91F0
:10161000CF911F910F91FF90EF9008950E94A31A10
:101620000E94350A0E94F5080E94580A0E94D40AB6
:101630000E94BF1C08958F929F92AF92BF92CF924B
:10164000DF92EF92FF920F931F93CF93DF93C0909F
:101650008005D0908105C6E6D4E00F2EF0E08F2EF5
:10166000F0E09F2EF0E2AF2EF1ECBF2EF02D68815E
:1016700079818A819B810E940A227B018C0120E072
:1016800030E040E050E00E94592388237CF1C801FB
:10169000B70120E030E048EA52E40E942D211816FC
:1016A0002CF16C817D818E819F8120E030E040EEC5
:1016B00050E40E94C92020E030E040E85FE30E944F
:1016C000C8200E940A2220E030E04CE152E40E944F
:1016D000592388235CF088829982AA82BB828C82FB
:1016E0009D82AE82BF820894C108D1082C9684E006
:1016F000CA38D80709F0BBCFC2E0D6E0E6EFAE2E7D
:10170000EFEFBE2E68817981882777FD8095982F2D
:101710000E94CF210E940A227B018C0120E030E050
:1017200040E050E00E94592388232CF1C801B70102
:1017300020E030E048EA52E40E942D211816DCF047
:101740006A817B816C5F7F4F882777FD8095982F1A
:101750000E94CF210E940A2220E030E04CE152E4B6
:101760000E94592388233CF0B982A882BB82AA82B6
:101770000894C108D108269686E0C632D80709F039
:10178000C1CFCCE7D6E076EFA72E7FEFB72E6881EA
:101790007981882777FD8095982F0E94CF210E941C
:1017A0000A227B018C0120E030E040E050E00E9402
:1017B000592388232CF1C801B70120E030E048EA22
:1017C00052E40E942D211816DCF06A817B816E5F45
:1017D0007F4F882777FD8095982F0E94CF210E9408
:1017E0000A2220E030E04CE152E40E945923882391
:1017F0003CF0B982A882BB82AA820894C108D108B1
:10180000249686E0C838D80709F0C1CFD092810568
:10181000C0928005DF91CF911F910F91FF90EF90C3
:10182000DF90CF90BF90AF909F908F900895AF9230
:10183000BF92CF92DF92EF92FF920F931F93CF93BD
:10184000DF93C6E6D4E0AA24BB24CC24DD2468813F
:1018500079818A819B810E949C216D5F7F4F8827BF
:1018600077FD8095982F0E94CF210E940A227B014C
:101870008C0120E030E048E252E40E942D218823D0
:1018800024F40894A11CB11C0DC0C801B70120E0CC
:1018900030E048E252E40E94592318161CF40894E0
:1018A000C11CD11C2C9684E0CA38D80781F6CA1412
:1018B000DB041CF42A9A2A9804C0AC14BD040CF46E
:1018C0002B9A88EE93E028EC30E0F9013197F1F79C
:1018D0000197D9F72A982B98DF91CF911F910F91FB
:1018E000FF90EF90DF90CF90BF90AF9008950E944F
:1018F000010320E030E040E752E40E9434210E94DE
:101900000A220E949C21CB010895EF92FF920F932F
:101910001F93CF93DF93C6E6D4E00F2EF0E0EF2EB7
:10192000F0E0FF2EF0E20F2FF1EC1F2FF02D0E94C0
:1019300008256CE470E00E941C24AA2797FDA0955E
:10194000BA2FBC01CD010E94CF21688379838A839D
:101950009B83EC82FD820E831F832C9684E0CA3821
:10196000D80729F7DF91CF911F910F91FF90EF904A
:1019700008950E948C06892B61F40E94CC06892B65
:1019800041F40E94F906892B21F40E94850C0E94E3
:10199000170C089580E00E948C1AA0E0B0E0BC0112
:1019A000CD010E94CD2126E636E648E051E40E94B2
:1019B00034210E949C219B01AC016D33710581058E
:1019C00091057CF02DE330E040E050E00E9451248E
:1019D00060937C0570937D0580937E0590937F05D1
:1019E000089566277727CB01621B730B840B950B39
:1019F0002DE330E040E050E00E94512424EC3FEF22
:101A00004FEF5FEF261B370B480B590B20937C05DC
:101A100030937D0540937E0550937F05089581E0C6
:101A20000E948C1A2FEF33E0281B390B40E050E066
:101A3000CA01B9010E94CD212AE939E94CEC52E4EE
:101A40000E9434212DEC3CEC4CEC5DE30E945D23C4
:101A500008950E94011608950F931F93DF93CF936B
:101A6000CDB7DEB71F810885FE013D96812F902FEF
:101A700069857A854B855C859F010E943226E12F1E
:101A8000F02FDF010D900020E9F71197AE1BBF0B7F
:101A9000812F902FBD010E94B616CF91DF911F912B
:101AA0000F910895DC010D900020E9F71197A81B14
:101AB000B90BBD010E94B616089580E091E00E9426
:101AC000520D08950F931F93DF93CF93CDB7DEB7D9
:101AD0000B851C85FE013F96C80160E570E04D85D1
:101AE0005E859F010E9432268F81988569857A855F
:101AF000A80121E00E949A1CCF91DF911F910F91C4
:101B000008950E94A31A80E06DE00E94D21C86E135
:101B100090E068E170E041EC52E020E00E949A1C05
:101B20000E94BF1CFFCF8FE30E94F31C80E061E2A4
:101B30000E94D21C80E064E90E94D21C80E06CE02C
:101B40000E94D21C80E060E20E94D21C08951F9384
:101B5000E1E6F0E080E8808311E0108310929000CD
:101B600082E080939100109371000E94930D85B5DF
:101B7000846085BD10936E0078940E94E5150E94E4
:101B8000881A0E9465031F9108952F923F924F92E9
:101B90005F926F927F928F929F92AF92BF92CF92FD
:101BA000DF92EF92FF920F931F93DF93CF9300D0BA
:101BB00000D000D0CDB7DEB729833A834B835C8356
:101BC0001801FE82ED828F8C98A049A05AA00E9435
:101BD000C0237B018C01C10162E070E00E941C24E3
:101BE000882777FD8095982F0E94CF219B01AC011B
:101BF000C801B7010E94C8200E949C213B01C60178
:101C0000B5010E94C0237B018C01C40162E070E039
:101C10000E941C24882777FD8095982F0E94CF2151
:101C20009B01AC01C801B7010E94C8200E949C2101
:101C3000860E971E681479040CF04DC0620C731C5C
:101C4000661577050CF047C069817A818B819C818C
:101C50000E94C0237B018C018D819E8162E070E037
:101C60000E941C24882777FD8095982F0E94CF2101
:101C70009B01AC01C801B7010E94C8200E949C21B1
:101C80006B016B8D7C8D8D8D9E8D0E94C0237B01A1
:101C90008C01C20162E070E00E941C24882777FD5D
:101CA0008095982F0E94CF219B01AC01C801B701FC
:101CB0000E94C8200E949C21460E571EC414D504C1
:101CC00054F420E08D819E81C80ED91E6C157D05CF
:101CD0001CF421E001C020E0822F26960FB6F89474
:101CE000DEBF0FBECDBFCF91DF911F910F91FF904F
:101CF000EF90DF90CF90BF90AF909F908F907F90AC
:101D00006F905F904F903F902F9008952F923F9249
:101D10004F925F926F927F928F929F92AF92BF92FB
:101D2000CF92DF92EF92FF920F931F93DF93CF93A7
:101D3000CDB7DEB728970FB6F894DEBF0FBECDBF84
:101D40002CE834E03A832983A981BA8114966D91F5
:101D50007D918D919C9117970E940A2220E030E09E
:101D600040E050E00E94592318160CF086C2E98129
:101D7000FA8160817181828193810E940A227B01B4
:101D80008C0120E030E040E050E00E94592318161A
:101D90000CF073C2C801B70120E030E048EA52E419
:101DA0000E942D2188230CF068C226E634E0388793
:101DB0002F831C821B828DB79EB708970FB6F894AD
:101DC0009EBF0FBE8DBF0DB71EB70F5F1F4FAF81F8
:101DD000B8856D917D918D919C910E949C21882761
:101DE00077FD8095982F0E94CF213B014C01EF8118
:101DF000F88564817581868197810E949C2188275E
:101E000077FD8095982F0E94CF219B01AC01A9817D
:101E1000BA81AD90BD90CD90DC90139714968D91C2
:101E20009D910D90BC91A02DF80180839183A28398
:101E3000B38387E090E095838483A2E0B0E0B7832A
:101E4000A683C401B30107E010E0F7E0EF2EF12C08
:101E50000E94C50DEDB7FEB738960FB6F894FEBFD9
:101E60000FBEEDBF882309F471C000D02DB73EB777
:101E70002F5F3F4F3E832D83AF81B8856D917D915C
:101E80008D919C910E949C211B012C01EF81F88572
:101E900064817581868197810E949C217B018C01E0
:101EA000A981BA816D917D918D919C910E949C2117
:101EB0003B014C01E981FA816481758186819781BA
:101EC0000E949C215B016C01E6EDF3E0AD81BE81D7
:101ED000ED93FC93C101B70147E050E027E030E00B
:101EE00008ED13E073016501E7E0AE2EB12CB2E01E
:101EF0008B2E912C0E9474030F900F90882331F148
:101F000081E66B817C810E94E90880E090E0A0E29C
:101F1000B1ECEF81F88580839183A283B3838483BE
:101F20009583A683B783E981FA8180839183A28315
:101F3000B38384839583A683B78380917A06909137
:101F40007B06019690937B0680937A062B813C81D9
:101F50002F5F3F4F3C832B838F8198850C9698870A
:101F60008F832330310509F026CFA2E0B6E0B88791
:101F7000AF8322243324EDB7FEB738970FB6F89419
:101F8000FEBF0FBEEDBF0DB71EB70F5F1F4FAF8176
:101F9000B8856D917C91882777FD8095982F0E9458
:101FA000CF213B014C01EF81F88562817381882745
:101FB00077FD8095982F0E94CF219B01AC01A981CC
:101FC000BA81AD90BD90CD90DC90139714968D9111
:101FD0009D910D90BC91A02DF80180839183A283E7
:101FE000B38387E090E095838483A2E0B0E0B78379
:101FF000A683C401B30105E010E0A5E0EA2EF12CB0
:102000000E94C50DEDB7FEB738960FB6F894FEBF27
:102010000FBEEDBF882309F465C000D00DB71EB711
:102020000F5F1F4FAF81B885ED90FC90119712960E
:102030004D905C901397E981FA8160817181828172
:1020400093810E949C213B014C01A981BA81149685
:102050006D917D918D919C9117970E949C215B01C0
:102060006C0126ED33E0F80131832083C701B20112
:1020700045E050E025E030E008ED13E07301650134
:10208000F7E0AF2EB12CE2E08E2E912C0E9474036B
:102090000F900F90882331F182E6B1010E94E90888
:1020A000E6EFFFEFAF81B8851196FC93EE931396A0
:1020B000FC93EE93129780E090E0A0E2B1ECE9810E
:1020C000FA8180839183A283B38384839583A683DB
:1020D000B78380917A0690917B06029690937B0657
:1020E00080937A060894211C311C2F8138852A5F41
:1020F0003F4F38872F8336E02316310409F03BCF5A
:102100001CE7212E16E0312E8DB79EB708970FB62B
:10211000F8949EBF0FBE8DBF0DB71EB70F5F1F4F48
:10212000D1016D917C91882777FD8095982F0E9431
:10213000CF213B014C01F10162817381882777FD3A
:102140008095982F0E94CF219B01AC01A981BA8173
:10215000AD90BD90CD90DC90139714968D919D918C
:102160000D90BC91A02DF80180839183A283B3834D
:1021700087E090E095838483A2E0B0E0B783A683F4
:10218000C401B30103E010E0B3E0EB2EF12C0E9498
:10219000C50DEDB7FEB738960FB6F894FEBF0FBE6B
:1021A000EDBF882309F45FC000D00DB71EB70F5FE5
:1021B0001F4FD101ED90FC90119712964D905C90BD
:1021C0001397E981FA8160817181828193810E94F4
:1021D0009C213B014C01A981BA8114966D917D919E
:1021E0008D919C9117970E949C215B016C0126EDBB
:1021F00033E0F80131832083C701B20143E050E0AE
:1022000023E030E008ED13E073016501A7E0AA2E9A
:10221000B12CF2E08F2E912C0E9474030F900F903E
:10222000882309F1E6EFFFEFD1011196FC93EE93BD
:102230001396FC93EE93129780E090E0A0E2B1EC4D
:10224000E981FA8180839183A283B3838483958318
:10225000A683B78380917A0690917B06049690932B
:102260007B0680937A0624E030E0220E331E3CEA9F
:10227000231636E0330609F047CF89819A810C9600
:102280009A838983885B954009F05ECD28960FB6C6
:10229000F894DEBF0FBECDBFCF91DF911F910F919C
:1022A000FF90EF90DF90CF90BF90AF909F908F9076
:1022B0007F906F905F904F903F902F9008950E9475
:1022C0001B0B0E94860E08950E94010320E030E05F
:1022D00040E752E40E9424229B01AC01CA01B901EB
:1022E0000E949C21CB0108952F923F924F925F92C2
:1022F0006F927F928F929F92AF92BF92CF92DF9216
:10230000EF92FF920F931F93CF93DF938091FD0580
:10231000882359F480917706882339F48BEC92E076
:102320000E94520D81E08093FD050E94770CEC0124
:102330000E9464113C0140908005509081052090DE
:102340007A0630907B060E948C064C010E94CC06D7
:102350005C010E94F9066C010E9444058C01E0902A
:102360007C05F0907D050E940F0D2DB73EB72C51D6
:1023700030400FB6F8943EBF0FBE2DBFEDB7FEB78D
:10238000319622E835E0ADB7BEB712963C932E9356
:10239000119728E730E0338322832BED32E0358339
:1023A0002483D783C68371866086538642863586AA
:1023B000248697868686B18AA08AD38AC28A158B9C
:1023C000048BF78AE68A608F718F828F938F0E94C9
:1023D0002C0D2DB73EB7245E3F4F0FB6F8943EBF8D
:1023E0000FBE2DBFDF91CF911F910F91FF90EF9006
:1023F000DF90CF90BF90AF909F908F907F906F9025
:102400005F904F903F902F9008953F924F925F9230
:102410006F927F928F929F92AF92BF92CF92DF92F4
:10242000EF92FF920F931F93CF93DF930E9474114B
:1024300091E0E92EF12CC2E8D5E08DE4482E83E04E
:10244000582E0AE0602E712C1DE5812E13E0912E8E
:10245000B4E1AB2EB12CA6E6CA2EA3E0DA2E3324CB
:1024600033946CC00E94A31A0E94770C8C010E94C6
:1024700064112DB73EB72C5030400FB6F8943EBFD4
:102480000FBE2DBFEDB7FEB73196ADB7BEB71296F2
:10249000FC92EE92119713821282D583C4835782E5
:1024A000468211870087938782870E94620D0F9072
:1024B0000F90EDB7FEB73196ADB7BEB71296FC924E
:1024C000EE92119773826282D583C483978286824B
:1024D0008091800590918105918780870E94620D8F
:1024E000EDB7FEB73196ADB7BEB71296FC92EE923D
:1024F0001197B382A282D583C483D782C68280918A
:102500007A0690917B06918780870E94620D2DB795
:102510003EB7265F3F4F0FB6F8943EBF0FBE2DBFAC
:102520000E94BF1C0E9401168037910511F0189B74
:1025300005C08091FC0583258093FC058091FC05F6
:10254000882309F08FCFDF91CF911F910F91FF90DA
:10255000EF90DF90CF90BF90AF909F908F907F9043
:102560006F905F904F903F9008951F93CF93DF93AC
:10257000EC010E949A04C737D10521F089B18695F4
:1025800080FF02C00E946905C337D10511F01F9B6F
:1025900002C00E940512C237D10539F08FB1829571
:1025A00086958695837080FF1AC01092C303809130
:1025B000770611E08127809377060E9474111093AB
:1025C000FC05109277061092FD0510927B06109282
:1025D0007A0685E090E09093810580938005C0376E
:1025E000D10511F0189B08C08091FC0591E0892766
:1025F0008093FC059093FD05C137D10531F08FB173
:1026000082958695877080FF02C00E94810DEF97AA
:1026100011F40E945D0DDF91CF911F91089580917B
:10262000800590918105181619060CF458C0809108
:10263000770691E08927809377060E94A31A81E0AC
:1026400090E06AE070E040E753E021E00E949A1CCD
:102650000E94BF1C8BE793E00E94520D0E947411F0
:102660002A9A2B9A20E030E040E157E2832F992705
:1026700087FD9A958093BF002093CF00CA010197F0
:10268000F1F72F5F3F4F84E02030380779F780E281
:102690009EE428EC30E0F9013197F1F70197D9F782
:1026A0002A982B9881E090E064E170E04AE853E0DA
:1026B00021E00E949A1C81E090E06EE170E04CE91C
:1026C00053E021E00E949A1C0E94BF1C04C00E949B
:1026D00001160E94B512809177068823C1F70895EC
:1026E000AF92BF92CF92DF92EF92FF920F931F9320
:1026F000CF93DF93B9E5EB2EF12C0FEB1FEFC2E781
:10270000D0E0AFEFAA2EA3E0BA2EF0E5CF2EF3EC87
:10271000DF2E48C00E9401160E94B5120E94A31A23
:10272000C7016FE070E04FEA53E021E00E949A1C7D
:10273000C80168E170E048EB53E021E00E949A1C78
:10274000CE0167E270E041EC52E021E00E949A1C69
:102750000F5F1F4F0131110514F001E110E00894E3
:10276000E108F10886E1E816F1041CF4E6E1EE2E3A
:10277000F12C2197C431D10514F4C4E1D0E00E94BA
:10278000BF1C80E00E948C1A9501281B390B832FF7
:10279000992787FD9A958093BF002093CF00C601AB
:1027A0000197F1F78091C303882311F07E9BB2CF8C
:1027B0001092C3030E94A31ADF91CF911F910F9132
:1027C000FF90EF90DF90CF90BF90AF9008950E9460
:1027D000701381E08093FC05109277061092FD053E
:1027E00010927B0610927A0685E090E09093810526
:1027F000809380050E94220785E290E090938B04ED
:1028000080938A0489E290E0909379068093780619
:102810001092FB051092FA050E942C050E94850C6F
:102820001092FE051092FF0510920006109201060C
:102830000895AA2797FDA095BA2FBC01CD010E944B
:10284000CF212BED3FE049E450E40E945D2320E0DE
:1028500030E044E353E40E9434210E943121089582
:10286000AA2797FDA095BA2FBC01CD010E94CF21C8
:102870002BED3FE049E450E40E945D2320E030E08E
:1028800044E353E40E9434210E94E0230895AF9270
:10289000BF92CF92DF92EF92FF920F931F93CF934D
:1028A000DF93C6E6D4E0A880B980CA80DB800E94AE
:1028B0000F0D7B018C0180E090E00E9430149B01A1
:1028C000AC01C801B7010E945D239B01AC01C601A8
:1028D000B5010E94C920688379838A839B83AC8079
:1028E000BD80CE80DF800E940F0D7B018C0180E0D7
:1028F00090E00E9419149B01AC01C801B7010E942D
:102900005D239B01AC01C601B5010E94C9206C8307
:102910007D838E839F832C9684E0CA38D80719F66E
:10292000C2E0D6E068817981882777FD8095982F6D
:102930000E94CF215B016C010E940F0D7B018C0175
:1029400080E090E00E9430149B01AC01C801B70107
:102950000E945D239B01AC01C601B5010E94C92004
:102960000E949C21798368836A817B81882777FD17
:102970008095982F0E94CF215B016C010E940F0D62
:102980007B018C0180E090E00E9419149B01AC0156
:10299000C801B7010E945D239B01AC01C601B501CE
:1029A0000E94C9200E949C217B836A83269686E030
:1029B000C632D80709F0B6CFCCE7D6E06881798176
:1029C000882777FD8095982F0E94CF215B016C01AD
:1029D0000E940F0D7B018C0180E090E00E9430147A
:1029E0009B01AC01C801B7010E945D239B01AC01B2
:1029F000C601B5010E94C9200E949C217983688389
:102A00006A817B81882777FD8095982F0E94CF214E
:102A10005B016C010E940F0D7B018C0180E090E056
:102A20000E9419149B01AC01C801B7010E945D23EB
:102A30009B01AC01C601B5010E94C9200E949C21E6
:102A40007B836A83249686E0CC3AD80709F0B6CF18
:102A5000DF91CF911F910F91FF90EF90DF90CF907A
:102A6000BF90AF900895EF92FF920F931F93CF9373
:102A7000DF93CCE8D4E0E880F9800A811B81688587
:102A800079858A859B850E949C21DC01CB010E946F
:102A900030142DEC3CEC4CE45FEB0E945D239B0179
:102AA000AC01C801B7010E94C920688379838A8379
:102AB0009B83EC80FD800E811F81688579858A85E6
:102AC0009B850E949C21DC01CB010E9419142DECF6
:102AD0003CEC4CE45FEB0E945D239B01AC01C80120
:102AE000B7010E94C9206C837D838E839F832C96BF
:102AF00085E0CC37D80709F0BECFDF91CF911F9189
:102B00000F91FF90EF900895CF93DF930E940116ED
:102B1000EC010E94B5128FB18295869586958370DF
:102B200080FD03C0C237D10511F40E94E7138091E4
:102B3000FC05882341F40E9447140E94F7040E9478
:102B4000CA0C0E9433150E945F110E94B90C0E94AA
:102B50000F130E940E0BDF91CF910895EF92FF9219
:102B60000F931F93CF93DF93009180051091810500
:102B7000E0907A06F0907B060E946411E00EF11E50
:102B80008E0D9F1D0E940D258091C303882311F097
:102B90000E94A70D0E94E713C8ECD0E009C00E9474
:102BA000841584EF91E0FE013197F1F70197D9F791
:102BB00080917706882399F380E090E0DF91CF91B0
:102BC0001F910F91FF90EF90089581E08093D700BF
:102BD00080EA8093D80082E189BD09B400FEFDCF70
:102BE00080E98093D8001092E0001092F6031092D2
:102BF000F7038CE08093E200789408958091F603C7
:102C000008952FB7F8948091F603882369F083E044
:102C10008093E9009BE68091E80085FD09C082FF72
:102C200003C09093E800F7CF2FBF2FEF3FEF0CC00A
:102C30009091F1008091E80085FD03C08BE68093C0
:102C4000E8002FBF292F30E0C90108952FB7F8946D
:102C50008091F603882311F490E010C083E0809304
:102C6000E9009091F200992349F48091E80082FFF5
:102C700005C085FD03C08BE68093E8002FBF892F38
:102C800008958091F603882371F09FB7F89483E04C
:102C90008093E9002BE602C02093E8008091E800D1
:102CA00085FDFACF9FBF0895482F8091F6038823B2
:102CB000D9F12FB7F89484E08093E9008091F9036B
:102CC000882341F08091E80085FD02C02FBF12C02B
:102CD0001092F9039091E400975E34E08091E8004F
:102CE00085FD13C02FBF8091E400891729F481E08E
:102CF0008093F9038FEF08958091F6038823A1F064
:102D00002FB7F8943093E900E9CF4093F100809118
:102D1000E80085FD03C08AE38093E80085E08093A6
:102D2000F8032FBF80E008958FEF0895282F80913A
:102D3000F603882351F09FB7F89484E08093E9006C
:102D40008091E80085FD03C09FBF8FEF0895209319
:102D5000F1008091E80085FD03C08AE38093E800DC
:102D600085E08093F8039FBF80E00895CF93DF93C1
:102D7000EC018091F603882309F41CC13FB7F89455
:102D800084E08093E9008091F903882309F408C165
:102D90008091E80085FD02C03FBF0CC11092F9038D
:102DA000FFC09091E400975E8091E80085FD13C01C
:102DB0003FBF8091E400891721F481E08093F903FB
:102DC000F9C08091F603882309F4F4C03FB7F89462
:102DD000B093E900E9CF8091F200242F281B822FC5
:102DE00090E06817790708F4262F822F90E081344D
:102DF000910508F0C6C08A5A9F4FFC01EE0FFF1FD5
:102E00000590F491E02D099489918093F1008991C6
:102E10008093F10089918093F10089918093F10072
:102E200089918093F10089918093F1008991809339
:102E3000F10089918093F10089918093F10089914B
:102E40008093F10089918093F10089918093F10042
:102E500089918093F10089918093F1008991809309
:102E6000F10089918093F10089918093F10089911B
:102E70008093F10089918093F10089918093F10012
:102E800089918093F10089918093F10089918093D9
:102E9000F10089918093F10089918093F1008991EB
:102EA0008093F10089918093F10089918093F100E2
:102EB00089918093F10089918093F10089918093A9
:102EC000F10089918093F10089918093F1008991BB
:102ED0008093F10089918093F10089918093F100B2
:102EE00089918093F10089918093F1008991809379
:102EF000F10089918093F10089918093F10089918B
:102F00008093F10089918093F10089918093F10081
:102F100089918093F10089918093F1008991809348
:102F2000F10089918093F10089918093F10089915A
:102F30008093F10089918093F10089918093F10051
:102F400089918093F10089918093F1008991809318
:102F5000F10089918093F10089918093F10089912A
:102F60008093F10089918093F10089918093F10021
:102F700089918093F10089918093F10089918093E8
:102F8000F10089918093F1008091E80085FD02C0F5
:102F90005093E800621B7109A093F8033FBF04C07F
:102FA000B4E040E45AE3A5E06115710509F0F9CEFB
:102FB00080E001C08FEFDF91CF9108959FB7F89423
:102FC0008091F803882341F084E08093E9008AE34C
:102FD0008093E8001092F8039FBF08956091E60384
:102FE0007091E7038091E8039091E903089580913F
:102FF000EA0308958091EB0308958091EC0308950E
:103000008091F7030895282F9FB7F8948091F603D5
:10301000882339F082E08093E9008091E80085FD03
:1030200003C09FBF8FEF089581EA8093F10080E293
:103030008093F1001092F1001092F1001092F100D3
:103040001092F10081E08093F1001092F100209342
:10305000F1008AE38093E8009FBF80E008951F920B
:103060000F920FB60F9211248F939F938091E100DE
:103070001092E100982F83FF11C01092E90081E0C7
:103080008093EB001092EC0082E18093ED0088E0E9
:103090008093F0001092F6031092F70392FF13C092
:1030A0008091F603882379F08091F803882359F002
:1030B00081508093F803882331F484E08093E90001
:1030C0008AE38093E8009F918F910F900FBE0F903D
:1030D0001F9018951F920F920FB60F9211240F9305
:1030E0001F932F933F934F935F936F937F938F9390
:1030F0009F93AF93BF93EF93FF931092E90080915A
:10310000E80083FF3CC14091F1003091F1008091D3
:10311000F100682F70E02091F100922F80E0682B81
:10312000792B8091F100A82FB0E02091F100922F2F
:1031300080E0A82BB92B1091F1000091F10082EFF3
:103140008093E800363009F05AC023E531E0A90148
:1031500045505040F901379785919491861797070C
:1031600001F5FA01859194918A179B07D1F49A0190
:103170002E5F3F4FF901659174912E5F3F4FF9012A
:103180004491212F30E0902F80E0282B392B2F3FC6
:10319000310519F010F02FEF30E0241758F4422FCA
:1031A00009C0295F3F4F495F5F4FF1E02D373F076F
:1031B00089F6E5C05EEF8091E800282F30E0C90174
:1031C00085709070892BB9F322FDDCC0342F41311A
:1031D00008F030E1232FCB0106C0FC010196E491F9
:1031E000E093F10021502223C1F7630F711D431BAF
:1031F0005093E8004423F9F63031E9F2C3C035308A
:1032000061F48EEF8093E8008091E80080FFFCCFAE
:10321000862F80688093E300B5C0393051F5442390
:1032200009F0ADC06093F6031092F7031092F80313
:103230008EEF8093E80086E791E021E02093E9009B
:10324000FC010196E491E093EB00EE2369F0AC0100
:103250004F5F5F4FFC0184918093EC00CA0101969F
:10326000FA0134913093ED002F5F253039F78EE16C
:1032700081C0383061F4403809F081C08091E800A5
:1032800080FFFCCF8091F6038093F10050C0313273
:1032900089F4413A09F073C08091E80080FFFCCFC7
:1032A000E6EEF3E081918093F10083E0ED3EF807D4
:1032B000C9F73DC03032A1F4413209F060C08091BD
:1032C000E80082FFFCCFE6EEF3E08091F10081930D
:1032D00083E0ED3EF807C9F78BEF8093E80027C045
:1032E000323251F4413209F04AC06093F7038091C1
:1032F000E80080FFFCCF1BC03323E9F48091E80095
:1033000080FFFCCF423811F080E00DC0A093E900AF
:103310008091EB0090E025E0969587952A95E1F75E
:1033200081701092E9008093F1001092F1008EEF0D
:103330008093E80027C0313011F0333001F542307E
:10334000F1F4672BE1F42A2F2F77822F81508430FC
:10335000B0F48EEF8093E8002093E900333079F0E9
:1033600089E18093EB0081E090E002C0880F991F13
:103370002A95E2F78093EA001092EA0003C081E206
:103380008093EB00FF91EF91BF91AF919F918F914F
:103390007F916F915F914F913F912F911F910F916D
:1033A0000F900FBE0F901F9018959B01AC01F894E1
:1033B00060E079E08DE390E00E942F2421503040BE
:1033C0004040504056954795379527953093CD000E
:1033D0002093CC0082E08093C80088E98093C900E4
:1033E00086E08093CA001092230480912304809386
:1033F000220410926504809165048093640478949B
:103400000895282F909122049F5F983208F090E051
:10341000809123048917E1F3E92FF0E0E650FC4F97
:1034200020839093220488EB8093C90008959091A3
:103430006404809165049817D1F3909165049F5FAF
:10344000903408F090E0E92FF0E0EC5DFB4F8081D4
:1034500090936504089580916404909165048917A0
:1034600010F0891B0895805C891B08951F920F92AC
:103470000FB60F9211248F939F93EF93FF93909128
:10348000220480912304981721F488E98093C900CD
:103490000FC0909123049F5F983208F090E0E92FCD
:1034A000F0E0E650FC4F80818093CE00909323049F
:1034B000FF91EF919F918F910F900FBE0F901F90F2
:1034C00018951F920F920FB60F9211242F938F937E
:1034D0009F93EF93FF932091CE00909164049F5FA0
:1034E000903408F090E080916504981739F0E92F46
:1034F000F0E0EC5DFB4F208390936404FF91EF912B
:103500009F918F912F910F900FBE0F901F90189544
:1035100087E880937A000895982F9F719064909324
:103520007C00807280937B0080917A00806480931D
:103530007A0080917A0086FDFCCF2091780030914E
:103540007900C9010895ECEAF6E0119288E0E43AC6
:10355000F807D9F708959C0197FD37C077FD35C06E
:103560008435910594F5603371057CF5CB0173E0EA
:10357000959587957A95E1F76770452B99F0E4E585
:103580008E9FF0011124E20FF31FE455F94F81E003
:1035900090E002C0880F991F6A95E2F72081282BDE
:1035A00020830895E4E58E9FF0011124E20FF31FBC
:1035B000E455F94F81E090E002C0880F991F6A95A9
:1035C000E2F7809520812823208308952F923F924F
:1035D0004F925F926F927F928F929F92AF92BF9223
:1035E000CF92DF92EF92FF920F931F93DF93CF93CF
:1035F000CDB7DEB72E970FB6F894DEBF0FBECDBFA6
:103600007C016B014A0139011C870B8784179507E0
:10361000F9F45B0110C0C701B5014B855C850E94C0
:10362000AB1AC614D70424F40894A11CB11C03C01F
:103630000894A108B108C614D7042CF46A147B04BA
:103640000CF4FDC0E8CFA614B7040CF4F8C0E3CF27
:1036500062177307F9F45C0110C0C501B6014B8510
:103660005C850E94AB1AE814F90424F40894A11CA8
:10367000B11C03C00894A108B108E814F9042CF4A3
:103680008A149B040CF4DBC0E8CFA814B9040CF432
:10369000D6C0E3CF4817590724F447017A013B010C
:1036A0006901B4016E197F09882777FD8095982FED
:1036B0000E94CF216F83788789879A87B3016C191D
:1036C0007D09882777FD8095982F0E94CF216B83F5
:1036D0007C838D839E832F81388549855A850E94FE
:1036E00034211B012C0120E030E040E050E00E943A
:1036F000592387FF04C057FA509457F85094DA8240
:10370000C9820F2EF0E0AF2EF0E0BF2EF0E0CF2EFA
:10371000F0E0DF2EF02D7FC0C70169817A814B85F3
:103720005C850E94AB1AC601B501A20191010E94FD
:10373000C9203BC0C70169817A814B855C850E94A5
:10374000AB1A1E861D866B817C818D819E8120E057
:1037500030E040E050E00E945923181624F421E0A4
:1037600030E03E872D8700E010E06B817C818D8109
:103770009E8120E030E040E050E00E942D2188232F
:1037800014F401E010E08D859E85801B910BE9818A
:10379000FA81E80FF91FFA83E983C601B50120E039
:1037A00030E040E85FE30E94C8205B016C0120E04C
:1037B00030E040E05FE30E9459238823CCF06B8126
:1037C0007C818D819E8120E030E040E050E00E94CD
:1037D000592318163CF429813A81621673060CF0BD
:1037E000A9CF06C089819A81861597050CF0A2CFD2
:1037F0006F81788589859A8520E030E040E050E04F
:103800000E945923181624F40894E11CF11C03C0EB
:103810000894E108F1086F81788589859A8520E010
:1038200030E040E050E00E945923181624F48E1432
:103830009F042CF071CFE814F9040CF06DCF2E9694
:103840000FB6F894DEBF0FBECDBFCF91DF911F91B1
:103850000F91FF90EF90DF90CF90BF90AF909F902F
:103860008F907F906F905F904F903F902F90089532
:103870004F925F926F927F928F929F92AF92BF9280
:10388000CF92DF92EF92FF920F931F93CF93DF932C
:103890003B01490125E0429FA0011124A5E7EA2E42
:1038A000A1E0FA2EE40EF51E8C01F1E04F2E512C12
:1038B000EAE7AE2EE1E0BE2EA40EB51EF70184911C
:1038C0008114910409F48095C0E0D0E0C82EDD2475
:1038D000BE01660D771DA2010C2E02C0440F551FBC
:1038E0000A94E2F74C215D210C2E02C055954795B4
:1038F0000A94E2F7C8010E94AB1A2196C830D1059C
:1039000039F70894E11CF11C0F5F1F4FEA14FB0408
:10391000A9F6DF91CF911F910F91FF90EF90DF906B
:10392000CF90BF90AF909F908F907F906F905F905F
:103930004F900895CF92DF92EF92FF920F931F93D3
:10394000CF93DF936B017A01E901082F10E008C0E3
:10395000802F90E0B6019E010E94381C0B5F1F5F14
:10396000F701E10FF11D4081442391F7DF91CF91E1
:103970001F910F91FF90EF90DF90CF900895CF931C
:10398000DF9380E060E00E94341DCCEAD6E081E065
:1039900069910E94D21C88E0C43AD807C1F7DF9130
:1039A000CF91089595B18295880F807E9F7D982B49
:1039B00095B95F9827E030E070E08F98CB01022E38
:1039C00002C0959587950A94E2F780FF02C02E9A6F
:1039D00001C02E988F9A215030408FEF2F3F38072B
:1039E00061F75F9A08951F93182F579A249A259A82
:1039F000269A879A2C985F9A2C9A80E061E20E941E
:103A0000D21C106880E0612F0E94D21C80E064E02C
:103A10000E94D21C80E063E10E94D21C80E06CE036
:103A20000E94D21C80E060E20E94D21C80E06CE028
:103A30000E94D21C80E060E40E94D21C80E060E81A
:103A40000E94D21C1F910895CF93DF93C0E0D0E075
:103A500081E060E00E94D21C219681E0C83FD80737
:103A6000B9F7DF91CF9108951F93182F606480E01C
:103A70000E94D21C106880E0612F0E94D21C1F910E
:103A80000895A1E1B0E0E7E4FDE10C946C243C0171
:103A90007F876E876A01FC0117821682838181FD10
:103AA00003C06FEF7FEF6FC39E012F5F3F4F398BD6
:103AB000288BF3012381EE85FF8523FD859123FF6C
:103AC0008191FF87EE87882309F45AC3853251F428
:103AD000EE85FF8523FD859123FF8191FF87EE878A
:103AE000853229F490E0B3010E940626E2CF982F98
:103AF00010E0882499241032B0F49B3269F09C3293
:103B000028F4903251F0933271F40BC09D3239F0A9
:103B1000903349F4116028C01260146025C0186009
:103B200023C0106121C017FD2AC0892F80538A301D
:103B300078F416FF06C0FAE09F9E902C1124980E90
:103B400013C03AE0839E802C1124880E10620CC0B2
:103B50009E3221F416FD14C3106406C09C3611F485
:103B6000106802C0983659F4EE85FF8523FD9591C3
:103B700023FF9191FF87EE87992309F0BCCF892F0E
:103B80008554833020F4812F8061905E07C0892F97
:103B90008556833008F09FC1812F8F7E86FD02C03D
:103BA00076E0972E6FE3F62EF822953619F4F0E4BE
:103BB000FF2A07C0963619F420E8F22A02C09110B5
:103BC0009A94F7FE0AC03BE3391518F45CE3B52E6E
:103BD00002C0B92CB39427E009C047E0491520F48E
:103BE000BB2447E0942EF7CF292DBB24C6010496B1
:103BF0009D878C87F6016081718182819381AE01FE
:103C00004F5F5F4F0B2D0E9418256C010981202EFC
:103C1000332400FF04C003FD02C01DE209C0F1FE11
:103C200002C01BE205C0F2FC02C010E001C010E2BD
:103C3000C1018C709070892BB9F1112311F483E0CC
:103C400001C084E0881510F088240AC0881AF3FCAB
:103C500007C080E290E0B3010E9406268A94C9F76B
:103C6000112329F0812F90E0B3010E94062623FE44
:103C700003C005EF13E00EC009EF13E00BC0E11421
:103C8000F10409F0805290E0B3010E9406260F5F14
:103C90001F4F05C0EF2CFF24F0E1EF22FF24F801B5
:103CA0008491882361F714C1F7FE12C0BC0C24FE76
:103CB00004C08A81813309F4BA941B141CF0BB241C
:103CC000B3942DC0F8E0FB1550F538E0B32E27C0B3
:103CD000F6FC25C0892D90E08C159D054CF02CEF4D
:103CE000C2162FEFD20624F030E8F32A01C09A94CE
:103CF000992049F0E2E0F0E0EC0FFD1FE90DF11D25
:103D000080818033A1F3F7FE0AC0B92CB394892DCA
:103D100090E0C816D90614F0992401C09C18F7FC4D
:103D200003C025E030E009C01C141D041CF021E094
:103D300030E003C096012F5F3F4F112311F02F5F3A
:103D40003F4F992029F0892D90E00196280F391FC7
:103D5000882D90E02817390714F0882401C0821AB2
:103D60004F2C5524C20189709070892B39F008C0FE
:103D700080E290E0B3010E9406268A948820C1F771
:103D8000112329F0812F90E0B3010E94062643FE03
:103D900007C008C080E390E0B3010E9406268A9421
:103DA0008820C1F7F7FE46C08601D7FE02C000E0BA
:103DB00010E076010894E11CF11CE01AF10A41E0E0
:103DC00050E04C0F5D1FE40EF51E26014B18510804
:103DD000892D90E0AA24BB24A81AB90A5FEF0F3FEF
:103DE000150729F48EE290E0B3010E940626C01662
:103DF000D10634F0401651061CF4F701808101C051
:103E000080E3015010400894E11CF11C0A151B05C9
:103E10002CF090E0B3010E940626E0CF0C151D05A2
:103E200039F49A81963318F4953311F424FE81E322
:103E300090E04BC08A81813309F00F7E90E0B3019E
:103E40000E9406269920A1F08EE290E0B3010E9424
:103E5000062612E0E1E0F0E0EC0FFD1FE10FF11D9E
:103E60001F5F808190E0B3010E9406269A9491F72B
:103E700044FC03C085E690E002C085E490E0B30115
:103E80000E940626D7FC05C0C114D10441F404FFEA
:103E900006C0D094C194D108D3948DE201C08BE2C6
:103EA00090E0B3010E94062680E305C08F5F26EFF5
:103EB0003FEFC20ED31E3AE0C316D104BCF790E028
:103EC000B3010E940626C601C096B3010E940626D1
:103ED000CC84DD8452C1933631F0933799F0933519
:103EE00009F059C023C0F601808189835E010894DE
:103EF000A11CB11C22E030E0C20ED31E21E0E22E54
:103F0000F12C12C0F601A080B18016FD03C06FEF46
:103F10007FEF02C0692D70E022E030E0C20ED31EB8
:103F2000C5010E94FB257C011F7713C0F601A0800C
:103F3000B18016FD03C06FEF7FEF02C0692D70E006
:103F400022E030E0C20ED31EC5010E94F0257C01A4
:103F5000106813FF07C01BC080E290E0B3010E940D
:103F600006268A94882D90E0E816F906A8F30FC07B
:103F7000F50117FD859117FF81915F0190E0B30175
:103F80000E94062681108A940894E108F108E11441
:103F9000F10471F7F2C0943611F0993689F517FFE4
:103FA00008C0F601208131814281538184E090E094
:103FB0000AC0F601808191819C01442737FD40951C
:103FC000542F82E090E0C80ED91E9FE6F92EF12210
:103FD00057FF09C050954095309521953F4F4F4F61
:103FE0005F4F90E8F92ACA01B901AE014F5F5F4FF8
:103FF0002AE030E00E945C26E82EE889EE1A41C0F3
:10400000953721F41F7E2AE030E01CC0197F9F36CF
:1040100061F0903720F4983509F0B2C00FC09037A6
:1040200039F0983709F0ACC004C028E030E00AC08D
:10403000106114FD146020E130E004C014FD16602E
:1040400020E132E017FF08C0F601608171818281B2
:10405000938144E050E008C0F60180819181BC0169
:1040600080E090E042E050E0C40ED51EAE014F5F0C
:104070005F4F0E945C26E82E5889E51A8FE7F82EDC
:10408000F122F6FE0BC08EEFF822E91438F4F4FEAC
:1040900007C0F2FC05C09FEEF92202C01E2D01C030
:1040A000192DF4FE0DC0FE01EE0DF11D808180334F
:1040B00019F4E9EEFE2208C01F5FF2FE05C003C03E
:1040C0008F2D867809F01F5F0F2DF3FC14C0F0FED2
:1040D0000FC0181510F09E2C0BC09E2C980C911A36
:1040E000182D06C080E290E0B3010E9406261F5FF3
:1040F0001815C0F304C0181510F4811A01C08824E3
:1041000004FF0FC080E390E0B3010E94062602FF87
:104110001DC001FD03C088E790E00EC088E590E077
:104120000BC0802F867891F001FF02C08BE201C0A6
:1041300080E2F7FC8DE290E0B3010E94062606C003
:1041400080E390E0B3010E9406269A94E914C0F33C
:10415000EA94E1E0F0E0EC0FFD1FEE0DF11D80812F
:1041600090E0B3010E940626EE2091F706C080E29F
:1041700090E0B3010E9406268A948820C1F799CC6A
:10418000F30166817781CB016196E2E10C9488248A
:104190005058BB27AA270ED02AC2F3D130F0F8D14D
:1041A00020F031F49F3F11F41EF4E8C10EF4E095C5
:1041B000E7FBB5C1E92F3DD280F3BA176207730759
:1041C0008407950718F071F49EF56CC20EF4E09523
:1041D0000B2EBA2FA02D0B01B90190010C01CA01C1
:1041E000A0011124FF27591B99F0593F50F4503E6C
:1041F00068F11A16F040A22F232F342F4427585F5E
:10420000F3CF469537952795A795F0405395C9F775
:104210007EF41F16BA0B620B730B840BBAF091502D
:10422000A1F0FF0FBB1F661F771F881FC2F70EC0CC
:10423000BA0F621F731F841F48F48795779567959F
:10424000B795F7959E3F08F0B3CF9395880F08F088
:104250009927EE0F9795879508953DD108F481E051
:1042600008959ED1E395D4C10CD0C1C191D140F045
:1042700088D130F021F45F3F19F051C1511113C2C0
:104280007DC1D7D198F39923C9F35523B1F3951B79
:10429000550BBB27AA2762177307840738F09F5F67
:1042A0005F4F220F331F441FAA1FA9F333D00E2ED6
:1042B0003AF0E0E830D091505040E695001CCAF743
:1042C00029D0FE2F27D0660F771F881FBB1F261708
:1042D00037074807AB07B0E809F0BB0B802DBF01DB
:1042E000FF2793585F4F2AF09E3F510568F017C192
:1042F000DAC15F3FECF3983EDCF3869577956795DE
:10430000B795F7959F5FC9F7880F911D969587958B
:1043100097F90895E1E0660F771F881FBB1F6217AA
:1043200073078407BA0720F0621B730B840BBA0B68
:10433000EE1F88F7E095089504D06894B111B3C1D9
:1043400008957FD188F09F5790F0B92F9927B751E2
:10435000A0F0D1F0660F771F881F991F1AF0BA9549
:10436000C9F712C0B13081F09DD1B1E008959AC172
:10437000672F782F8827B85F39F0B93FCCF386953F
:1043800077956795B395D9F73EF49095809570959C
:1043900061957F4F8F4F9F4F0895E89409C097FB19
:1043A0003EF490958095709561957F4F8F4F9F4F0C
:1043B0009923A9F0F92F96E9BB279395F695879550
:1043C00077956795B795F111F8CFFAF4BB0F11F413
:1043D00060FF1BC06F5F7F4F8F4F9F4F16C08823BA
:1043E00011F096E911C0772321F09EE8872F762FF0
:1043F00005C0662371F096E8862F70E060E02AF031
:104400009A95660F771F881FDAF7880F969587951C
:1044100097F9089530D180F09F3740F491110EF054
:1044200042C160E070E080E89FEB089526F41B161F
:10443000611D711D811D79C093C0A3D018F011F0CA
:10444000A7D038F49BC02FC1E92FF3D0B0F3552388
:10445000C9F3E7FB6217730784079507A8F199F37F
:10446000E92FFF2788232AF03197660F771F881FCF
:10447000DAF7952F5527442332F091505040220F00
:10448000331F441FD2F7BB27E91BF50B621B730BCD
:10449000840BB109C1F222F4620F731F841FB11D96
:1044A00031972AF0660F771F881FBB1FEFCF9150FF
:1044B00050405AF041F0882332F0660F771F881F72
:1044C00091505040C1F793954BC08695779567956D
:1044D0009F5FD9F7F8CF990F0008550FAA0BE0E8B6
:1044E000FEEF16161706E807F907C0F012161306B6
:1044F000E407F50798F0621B730B840B950B39F4F6
:104500000A2661F0232B242B252B21F408950A265B
:1045100009F4A140A6958FEF811D811D089597F99B
:104520009F6780E870E060E00895882371F4772346
:1045300021F09850872B762F07C0662311F4992716
:104540000DC09051862B70E060E02AF09A95660FBE
:10455000771F881FDAF7880F9695879597F9089542
:104560009F3F31F0915020F4879577956795B795E7
:10457000880F911D9695879597F908959FEF80EC88
:10458000089500240A9416161706180609060895B9
:1045900000240A9412161306140605060895EECF99
:1045A00050D0E8F3E894E0E0BB279F57F0F02AED05
:1045B0003FE049EC06C0EE0FBB0F661F771F881F58
:1045C00028F0B23A62077307840728F0B25A620BE8
:1045D000730B840BE3959A9572F7803830F49A95B3
:1045E000BB0F661F771F881FD2F79048BBCF092EDD
:1045F0000394000C11F4882352F0BB0F40F4BF2B3E
:1046000011F460FF04C06F5F7F4F8F4F9F4F08957D
:10461000EF93E0FF06C0A2EA2AED3FE049EC5FEB32
:10462000C9DDE5DF0F90039401FC9058EEE2F1E064
:10463000CDC057FD9058440F551F59F05F3F71F0A2
:104640004795880F97FB991F61F09F3F79F08795F9
:104650000895121613061406551FF2CF4695F1DF82
:1046600008C0161617061806991FF1CF8695710512
:10467000610508940895E5DFA0F0BEE7B91788F456
:10468000BB279F3860F41616B11D672F782F882737
:10469000985FF7CF869577956795B11D9395963975
:1046A000C8F30895E894BB2766277727CB0197F9CD
:1046B000089511DF08F48FEF08950BD098CF61DFD4
:1046C00028F066DF18F0952309F029CF57CF112481
:1046D000EACFAFDFA0F3959FD1F3950F50E0551FC0
:1046E000629FF001729FBB27F00DB11D639FAA2747
:1046F000F00DB11DAA1F649F6627B00DA11D661F96
:10470000829F2227B00DA11D621F739FB00DA11DB6
:10471000621F839FA00D611D221F749F3327A00D70
:10472000611D231F849F600D211D822F762F6A2F0C
:1047300011249F5750408AF0E1F088234AF0EE0F91
:10474000FF1FBB1F661F771F881F91505040A9F79E
:104750009E3F510570F0E3CEA6CF5F3FECF3983E4D
:10476000DCF3869577956795B795F795E7959F5F05
:10477000C1F7FE2B880F911D9695879597F908959F
:1047800060DFE0F09E37D8F09639B8F49E3848F4F0
:10479000672F782F8827985FF9CF8695779567954B
:1047A00093959539D0F3B62FB1706B0F711D811DA4
:1047B00020F48795779567959395B7CED1CE73CF33
:1047C0009F93EEDE0F9007FCEE5F22CF9F938F93B7
:1047D0007F936F93FF93EF939B01AC016EDFEF919B
:1047E000FF9105D02F913F914F915F9166CFDF935D
:1047F000CF931F930F93FF92EF92DF927B018C0177
:10480000689405C0DA2EEF0164DFFE01E894A591FB
:104810002591359145915591AEF3EF01CBDCFE0129
:104820009701A801DA9479F7DF90EF90FF900F914C
:104830001F91CF91DF91089597FB092E07260AD08B
:1048400077FD04D080D006D000201AF470956195D1
:104850007F4F0895F6F7909581959F4F0895A1E2B7
:104860001A2EAA1BBB1BFD010DC0AA1FBB1FEE1FEA
:10487000FF1FA217B307E407F50720F0A21BB30B35
:10488000E40BF50B661F771F881F991F1A9469F7B1
:1048900060957095809590959B01AC01BD01CF010D
:1048A000089597FB092E05260ED057FD04D0D7DFBB
:1048B0000AD0001C38F450954095309521953F4F13
:1048C0004F4F5F4F0895F6F79095809570956195DD
:1048D0007F4F8F4F9F4F08952F923F924F925F923D
:1048E0006F927F928F929F92AF92BF92CF92DF9200
:1048F000EF92FF920F931F93CF93DF93CDB7DEB765
:10490000CA1BDB0B0FB6F894DEBF0FBECDBF0994F8
:104910002A88398848885F846E847D848C849B844F
:10492000AA84B984C884DF80EE80FD800C811B815D
:10493000AA81B981CE0FD11D0FB6F894DEBF0FBE8C
:10494000CDBFED010895AA1BBB1B51E107C0AA1FF3
:10495000BB1FA617B70710F0A61BB70B881F991F20
:104960005A95A9F780959095BC01CD010895A0E0D6
:10497000B0E0EDEBF4E20C947424EC01A880B98073
:10498000CA80DB80A114B104C104D10441F484E2E3
:10499000A82E89EDB82E8BE5C82E87E0D82EC6014B
:1049A000B5012DE133EF41E050E00E94512427EAA8
:1049B00031E440E050E00E94BA267B018C01C60140
:1049C000B5012DE133EF41E050E00E945124CA01CE
:1049D000B9012CEE34EF4FEF5FEF0E94BA266E0D57
:1049E0007F1D801F911F97FF04C061507040804061
:1049F0009048688379838A839B839B013F77C901B1
:104A0000CDB7DEB7EAE00C9490240E94B724089555
:104A10008DEE93E00E94B7240895A0E0B0E080936B
:104A2000ED039093EE03A093EF03B093F00308958A
:104A3000283008F027E03327DA01990F311D87FD70
:104A4000916000966105710539F432602E5F3D93E7
:104A500030E32A95E1F708959F3F30F080387105E3
:104A6000610509F03C5F3C5F3D93913008F0806840
:104A7000911DDF93CF931F930F93FF92EF92192F06
:104A8000987F9695E92F96959695E90FFF27E95A15
:104A9000FB4F99273327EE24FF24A701E701059058
:104AA0000894079428F4360FE71EF81E491F511D7D
:104AB000660F771F881F991F0694A1F7059007942A
:104AC00028F4E70EF81E491F561FC11D770F881FD7
:104AD000991F661F0694A1F70590079428F4F80E15
:104AE000491F561FC71FD11D880F991F661F771FAB
:104AF0000694A1F70590079420F4490F561FC71F8D
:104B0000D81F990F661F771F881F0694A9F78491F5
:104B10001095177041F0D695C79557954795F7941E
:104B2000E7941A95C1F7EDEFF3E0689415901591AD
:104B300035916591959105907FE27395E118F10AA1
:104B4000430B560BC90BD009C0F7E10CF11E431FF4
:104B5000561FC91FD01D7EF4703311F48A95E6CF1D
:104B6000E894015030F0080F0AF40027021708F407
:104B7000202F2395022F7A3328F079E37D932A950D
:104B8000E9F710C07D932A9589F606949795679565
:104B9000379517951794E118F10A430B560BC90B7B
:104BA000D00998F023957E9173957A3308F070E3DD
:104BB0007C932013B8F77E9170617D9330F08395DC
:104BC00071E37D9370E32A95E1F71124EF90FF9054
:104BD0000F911F91CF91DF91992787FD90950895AF
:104BE000FC010590615070400110D8F780959095B8
:104BF0008E0F9F1F0895FC016150704001900110BD
:104C0000D8F7809590958E0F9F1F08950F931F934F
:104C1000CF93DF938C01EB018B8181FF1BC082FF5F
:104C20000DC02E813F818C819D812817390764F446
:104C3000E881F9810193F983E88306C0E885F98565
:104C4000802F0995892B31F48E819F8101969F8356
:104C50008E8302C00FEF1FEFC801DF91CF911F912C
:104C60000F910895AEE0B0E0E8E3F6E20C947A2408
:104C70008C0177FF02C060E070E8615070407E8375
:104C80006D831A83098386E08C83CE010196BA0175
:104C9000A9010E94411D2D813E8137FD09C0EF8190
:104CA000F8852E173F070CF4F901E00FF11F108271
:104CB0002E96E4E00C949624FA01AA27283051F1AC
:104CC000203181F1E8946F936E7F6E5F7F4F8F4F3D
:104CD0009F4FAF4FB1E03ED0B4E03CD0670F781F9C
:104CE000891F9A1FA11D680F791F8A1F911DA11D81
:104CF0006A0F711D811D911DA11D20D009F46894BA
:104D00003F912AE0269F11243019305D3193DEF661
:104D1000CF010895462F4770405D4193B3E00FD017
:104D2000C9F7F6CF462F4F70405D4A3318F0495D02
:104D300031FD4052419302D0A9F7EACFB4E0A695E5
:104D40009795879577956795BA95C9F70097610507
:104D5000710508959B01AC010A2E0694579547955D
:104D600037952795BA95C9F7620F731F841F951F52
:104D7000A01D0895629FD001739FF001829FE00DF6
:104D8000F11D649FE00DF11D929FF00D839FF00DCA
:104D9000749FF00D659FF00D9927729FB00DE11D76
:104DA000F91F639FB00DE11DF91FBD01CF01112453
:064DB0000895F894FFCF06
:104DB6000D0A436F6E74726F6C73200D0A202761A3
:104DC6002720E28093206D6F76652073706163659E
:104DD60073686970206C656674200D0A2027642745
:104DE60020E28093206D6F76652073706163657332
:104DF60068697020726967687420200D0A20277719
:104E06002720E28093206669726520706C61736D5D
:104E16006120626F6C747320200D0A20277327208F
:104E2600E280932073656E64202F646973706C61F1
:104E3600792073746174757320200D0A20277227F8
:104E460020E28093207374617274202F2072657340
:104E560065742027702720E2809320706175736542
:104E660020200D0A2027712720E280932071756982
:104E7600742027742720E28093207365742061696B
:104E86006D282D363020746F2036302920200D0AEB
:104E960020276D2720E28093207365742073706548
:104EA6006564283020746F2031302920200D0A20B7
:104EB600276C2720E2809320736574206C696665F1
:104EC60020200D0A2027672720E28093207365742F
:104ED6002073636F726520200D0A20273F2720E28A
:104EE6008093207072696E7420636F6E74726F6C3B
:104EF6007320200D0A2027682720E28093207370F4
:104F06006163657368697020746F20636F6F726484
:104F160020200D0A20276A2720E2809320617374DF
:104F260065726F696420746F20636F6F72642020EE
:104F36000D0A20276B2720E2809320626F756C6430
:104F4600657220746F20636F6F726420200D0A20D3
:104F560027692720E2809320667261676D656E740B
:104F660020746F20636F6F726420200D0A0D0A2073
:104F7600006E3130333533393530000A0D47616DF7
:104F860065205374617274210A0D000A0D54696D0F
:104F9600653A20253032643A253032640A0D4C6970
:104FA60066653A2025640A0D53636F72653A2025BB
:104FB600640A0D41737465726F69643A2025640A48
:104FC6000D426F756C6465723A2025640A0D46724F
:104FD60061676D656E74733A2025640A0D426F6CC5
:104FE60074733A2025640A0D41696D3A2025640AD6
:104FF6000D53706565643A2025660A0A0054696D8A
:10500600653A20253032643A25303264004C6966B0
:10501600653A2025640053636F72653A2025640063
:1050260047616D65204F76657221000A0D47616DF7
:1050360065204F766572210A0D00546F20717569DF
:10504600742070726573732027712700546F207265
:10505600657365742070726573732027722700412B
:10506600737465726F69640041706F63616C797007
:1050760073650001181808001C003E001C0008009B
:1050860008001C0008001818081C3E7F3E1C080873
:1050960049495D7F5D4100E1000000000801000014
:0250A600000008
:00000001FF
